:040000006F0080739A
:100004000000000000000000C8020000CA02000056
:10001400000000003607000000000000000000009F
:100024003607000036070000000000000000000052
:100034003607000000000000360700000000000042
:1000440036070000360700003607000036070000B8
:1000540036070000360700003607000036070000A8
:100064003607000036070000DA02000036070000F9
:100074003607000036070000360700005004000071
:100084003607000036070000360700003607000078
:100094003607000036070000360700003607000068
:1000A4003607000036070000360700003607000058
:1000B400360700007C040000360700003607000005
:1000C4003607000036070000360700003607000038
:1000D40036070000360700008803000036070000DA
:1000E4003607000036070000000000003607000055
:1000F4003607000036070000360700003607000008
:100104000000000036070000360700003607000034
:1001140036070000360700003607000036070000E7
:1001240036070000360700003607000036070000D7
:10013400360700000000000000000000000000007E
:10014400000000000000000000000000700F00002C
:10015400000000000000000000000000360700005E
:100164003607000036070000360700003607000097
:100174003607000036070000360700003607000087
:100184003607000036070000360700003607000077
:100194003607000036070000360700003607000067
:1001A400000000000000000000000000000000004B
:0C01B4000000000000000000000000003F
:1001C000397101436EC619A0397141536AC866CAB4
:1001D00062CC5ECE19A0397101535AD056D252D496
:1001E0004ED64AD826DA22DC06DE3301614082820E
:1001F00041114AC026C222C406C68282B24D4101C4
:10020000024D924C224CB24B4101024B924A224A7F
:10021000B2494101024992442244B24041018280E4
:100220003D432A876373C3029377F700BDEFADE5C3
:10023000937606FF3D8ABA960CC34CC30CC74CC7D5
:100240004107E36BD7FE11E28280B306C3408A0602
:100250009702000096966780A6002307B700A306C2
:10026000B7002306B700A305B7002305B700A30412
:10027000B7002304B700A303B7002303B700A3020A
:10028000B7002302B700A301B7002301B700A30002
:10029000B7002300B700828093F5F50F9396850091
:1002A000D58D93960501D58D61B79396270097025A
:1002B000000096968682E78086FA9680C1171D8F89
:1002C0003E96E374C3F8A5B701A0B707EFBE37E7C2
:1002D00000E0938707083CC701A0797122D64AD273
:1002E0003709002026D44ED052CE56CC9387818237
:1002F0009304090023900700138A840013848182E9
:1003000093090900854A9305E1002685231701001A
:10031000EF10207F09ED8317E10063DA07009C30BE
:100320001A20B397FA00D98FC207C1831EA089048F
:10033000E39B44FD9304800873B004800F10000019
:100340000145EF10002173A0048005472385E18259
:100350000E2003C8690003D6C18203C7290083C7E2
:100360004900834609003735000013058504EF1066
:10037000B0444145A1233254A25412598259724AC1
:10038000E24A456173002030411122C637440040E3
:100390009305000213050440EF00F02A0DC1130578
:1003A0000440EF00D02983D7618603D721868507D3
:1003B00093F7F71F6391E70805472382E1863744E7
:1003C0000040854513050440EF00F02709CD83C7A1
:1003D0005186854513050440850793F7F70FA382DF
:1003E000F186EF00F02637440040894513050440AC
:1003F000EF00702509CD83C70186894513050440A8
:10040000850793F7F70F2380F186EF0070243744B8
:100410000040A14513050440EF00F02209C905473B
:10042000A145130504402382E186EF007022324487
:1004300041017300203003D661863717002013076F
:1004400087201375F50F329708A32393F18685BF94
:1004500037050200FD260DC137050200FD263705D0
:100460000240814513058505A526814537050040D5
:10047000EF00D00A2384018673002030411122C688
:100480003704004091451305044026C4EF00D00A0C
:1004900005C913050440EF00F009AA84914513052E
:1004A0000440EF00F00A83A70185B387F44023AA34
:1004B000F18423A891840547238DE184239C018442
:1004C0003244A244410173002030EFF27FD2011187
:1004D0000945E925C12AEF10E0777165130505206C
:1004E000EF10407DB707002083A5070937350000CE
:1004F00013058508EF10502CF924AA853735000024
:1005000013058509EF10502B373500001305850AB8
:10051000EF10D03B373500001305850CEF10103B72
:10052000EF104039373500001305850EEF10103AF3
:100530003735000095451305C50FEF10F027C1476B
:100540007C8237150140930780043EC64C008D47DE
:10055000130505803EC42313010002C802CA02CC61
:1005600002CE9526914501450D29C1473EC8054457
:10057000B14708083ECC02CA22CEE12CB7E700E022
:10058000238D8740370700043735000023A0E7108C
:1005900013050512EF1090333735000013050515CC
:1005A000EF10D032EF104069373500001305C51643
:1005B000EF10D031EF10805901A0B71702409843D7
:1005C000B706FFF041111367170098C3D8433706E9
:1005D0000200758FD8C39843B706F7FEFD16758FD6
:1005E00098C39843B706FCFFFD16758F98C3D84390
:1005F000B70601FFFD16758FD8C337079F0098C750
:1006000002C402C69843C166558F98C3B71602400C
:1006100005679C42F18F3EC6A24785073EC4B2479C
:1006200081E7A247E397E7FEB71702409C43139781
:10063000E7006357070685473EC632478547631F75
:10064000F704B7170240D843B706C1FFFD16D8C359
:10065000D843D8C3D84313670740D8C3D843758F4E
:10066000D8C3D843B7062900558FD8C39843B706D7
:100670000001558F98C3984393166700E3DD06FE8B
:10068000D843B7160240719BD8C3D84313672700DD
:10069000D8C32147DC42B18BE39EE7FE4101828053
:1006A00002C661BFB7160240DC4237070020114680
:1006B000B18B130707096385C70021466388C7020A
:1006C000B7177A00938707201CC3B7170240DC4393
:1006D000918393F6F700B70700209387C700B6977A
:1006E00094231C43B3D7D7001CC38280DC42D4427E
:1006F0004166C983BD8BF18E890745466393C70068
:10070000C94781EEB746024083A60680C18A89CEDA
:10071000B7167A009386062021A8B7160240D44265
:100720001396E600E35606FEB7163D009386069044
:10073000B387D70251BF01A0970100209381811593
:10074000178100201301018C17350000130585C3A4
:10075000970500209385058B1386818263FAC50077
:100760008322050023A0550011059105E3EAC5FE8B
:100770001385818297150020938585C96377B5001D
:10078000232005001105E36DB5FEFD42739002BC08
:10079000AD4273904280B7620000938282087390EA
:1007A0000230970200009382228693E23200739017
:1007B0005230EFF09FE097020000938242D1739095
:1007C000123473002030B7F7FF1F03A547708280F3
:1007D0001C4189C593E717001CC1828041677917C6
:1007E000F98FDDBF9317350063DA0700B7070240C2
:1007F00083A707407D8D3335A000828093172500A5
:1008000063D70700B707024083A7074DE5B7B707CF
:1008100002409C43C5B79317350063D70700B7075D
:10082000024023A2A74082809317250063D70700C8
:10083000B707024023AAA74C8280B7070240C8C36B
:100840008280EFF2FF9A793FF1B2EFF27F9AE137BF
:10085000D1B25841032805004C45370601409307A3
:1008600006403E979346F8FFB1C583250640F58DB7
:100870002320B640D043F18ED4C31443B3E606011F
:1008800014C3184190479346F7FF758E90C7D04721
:10089000F18ED4C7144541466399C6009447D98E5A
:1008A00094C7D447558FD8C78280B6979443558F45
:1008B00098C382801C43F58F1CC38280B707014018
:1008C00023AAA74082809C4513F7070113F8F7007D
:1008D00001C7D8413368E8008E2113F7F50F39C3FB
:1008E00018418146854E3D4F930F8002930280044C
:1008F000214E3396DE00B3F8C500631116039398BA
:10090000260033131F011343F3FF3377E300B318BB
:10091000180133E7E800639FF70550C98506E39A9D
:10092000C6FD18C11307F00F6375B7045441214683
:10093000854E3D4F930F800293028004414EB39841
:10094000CE0033F715016392E80213172600011752
:100950003313EF001343F3FFB376D3003317E800EC
:10096000D98E639DF701232A15010506E319C6FDFB
:1009700054C18280E39457FA10C94DB7E39757FEEC
:1009800023281501DDB708456D8D3335A000828021
:1009900019C20CC982804CC9828013F7C50F93F726
:1009A0003500B7050140BA9594458A073D4733178E
:1009B000F7001347F7FF758F98C598453315F50075
:1009C000598D88C58280EFF2BF82797146212A84D1
:1009D00068082EC6F922925737470F0013070724DD
:1009E00033D7E702C204C18093F404FCC204930627
:1009F000C003C180B24563F4E6001307C0031316B9
:100A000007014182D18C46A0162061651305056A55
:100A1000C206C182F99AC206C18216A094416369D6
:100A2000D5048606B3D7D7029146139707014183B1
:100A3000BA876373D700914705064206C207418211
:100A4000C18312B05EAC1E20DA21B62593E71700F1
:100A50001EA01E20558FC207C18393F757BFD98FA1
:100A60001EA09A25DE25D98F1EA445616FF08FFA4E
:100A7000EA2131667D16631DC5020D46B386C602A6
:100A8000B3D7D702C207C1839396470199E293E790
:100A90001700A166D58F9306C0123307D7029306BD
:100AA000803E3347D7020507420741831AB059BF3A
:100AB0006546B386C602B3D7D7029166C207C18323
:100AC000D58FD9B71E2189C593E717001EA1828053
:100AD000C207C183F99BC207C183CDBF1E2189C54F
:100AE00093E707101EA18280C207C18393F7F7EF37
:100AF000C207C183C5BF1E2189C593E707201EA178
:100B00008280C207C18393F7F7DFC207C183C5BFE5
:100B10001E2189C593E707401EA18280C207C183B9
:100B200093F7F7BFC207C183C5BF0EA982800A2908
:100B30001375F50F828093F7E50F19C293E715003F
:100B4000C207C1831EA982805E290A2D42055D8DE0
:100B50006D8D220521810D8D133515008280411187
:100B600002C402C693D7C5012AC63EC4A247A20545
:100B7000A18199CBB247D1073EC6B2478843410114
:100B80006D8D3335A0008280B247C181E107EDB79A
:100B900093C5F5FFC205C1814EA9828023A8A18219
:100BA0008280371702405C439146B18B6385D70042
:100BB000A1466382D706B7177A00938707201CC126
:100BC000371602405C42370700201307C7019183A4
:100BD000BD8BBA9794231C41B3D7D7005CC1544254
:100BE000A1829D8ABA969422B3D6D70014C55442E6
:100BF000AD829D8A36971823B3D7E7005CC558426B
:100C00003983937637001387418036971823B3D7FB
:100C1000E7021CC982805C4354434167C983F98E53
:100C200037F7FF1F0327C770BD8B890713161701FE
:100C300063480600454601476392C702C94739A881
:100C400009476389E7023D476388E70241476388B4
:100C5000E702454601476393C700C14785E6B746AB
:100C6000024083A60680C18A8DC6B7167A00938695
:100C7000062025A00147D9B70547B547C5B70147A5
:100C8000BD47E9BFB7160240D4421396E600E35EC3
:100C900006FCB7163D0093860690B387D7021CC1A9
:100CA00005D31C41858321BF99C5371702405C4B92
:100CB0005D8D48CB8280B7170240D84B1345F5FFB6
:100CC000798DC8CB828099C5371702401C4F5D8D46
:100CD00008CF8280B7170240984F1345F5FF798DF2
:100CE00088CF828099C5371702405C4F5D8D48CF11
:100CF0008280B7170240D84F1345F5FF798DC8CFD2
:100D00008280B7170240D843B70640FFFD16758FA3
:100D1000D8C3D8435A05598DC8C382801E2189C5BE
:100D200093E717001EA18280C207C183F99BC20707
:100D3000C183CDBF0A3D82801E294A25ED8F420521
:100D4000418189C76D8D3335A00082800145828045
:100D500093C5F5FFC205C1810EA98280EFF24FC98C
:100D60001629F577FD17F58FF621DA257971D58FDC
:100D70001EA95625FD779387379FF58FD6212A84A4
:100D80002EC6D58F9625D58FB625D58F5EA55E2923
:100D9000C207C18393F7F7CFD98F5EA968081135D1
:100DA000B747014093870780B245631EF402A257FC
:100DB0006547B387E7029841930640060A07B3D711
:100DC000E70233D7D702B3F7D70212079207938708
:100DD0002703B3D7D702BD8BD98FC207C1831EA407
:100DE00045616FF02FC39257E1B791C55E25096742
:100DF000D98F5EA582805A25F977FD17F98FD5BF67
:100E000013F7F50F85471583B395B7006319F700FE
:100E10009307C500984301CED98D8CC38280894643
:100E200093074501E318D7FE93070501E5B793C57E
:100E3000F5FFF98DDDB793F5F51F4EA182804A21AC
:100E40001375F51F82800A216D8D3335A0008280D5
:100E500093C5F5FFC205C1810EA1828019C5184155
:100E600023A6E180584123A4E1808280EFF24FB8AD
:100E7000B707002003A70709B747950893870740DE
:100E800009456300F702B7E7B80593870780054572
:100E90006309F700B777DC02938707C06314F70094
:100EA000014585358545056501356FF0AFB6B70756
:100EB000005013070004D8A713078004D8B713877E
:100EC000818798CB1387818BD8CB1387818F98CF5D
:100ED00013878193D8CFA3890702A38D0702239A92
:100EE0000702239E070209472389E702238BE702B3
:100EF000238FE7029387818323800700A380070065
:100F000023810700A381070023820700A382070033
:100F100023830700A38307008280EFF26FAD3704BD
:100F2000005099471CA01DC52945EF0050559D470D
:100F3000230004003CA0930790021CA08D3F930760
:100F400010F81CB037070800B7E700E023A4E7104B
:100F50006FF04FAC2945EF009052B7E700E0230057
:100F600004003707080023A4E7180F100000CDB7CE
:100F7000011122CE26CC4ACA4EC852C656C43704E6
:100F8000005078207C301377F70F93762700638723
:100F9000065693F7F70F13F707039305000263094B
:100FA000B702930600036302D71861EB13F7F70348
:100FB0006308071289476312F70C8347B40393C78A
:100FC0004700A30DF402938781832381070075A056
:100FD00093F7F70393061002638ED70A9306300245
:100FE000638DD70C639BE708938741849E2393848A
:100FF0004184C207C18381E79147A309F40283C7F3
:10100000618493F70706B5EB83C70184154793F70F
:10101000F70F638BE70419476391E7069E201307D8
:10102000F003130400046365F7008220420441804A
:101030001389C184832909002286CE85138581877F
:10104000EF00B0549E20A29923203901818FC2075E
:10105000C1839EA0B707005082BB03C72703134775
:1010600047002389E70211A8370700503C3383C6A5
:10107000418393F70708D58F3CB3B7070050094762
:10108000F8A37244E2445249C249324AA24A056175
:10109000730020308347640393C74700230BF40297
:1010A0008347640393F7C70F93E72700230BF402EA
:1010B00093878183A3800700C9B78347E40393C75D
:1010C0004700230FF4028347E40393F7C70F93E726
:1010D0002700230FF40293878183A381070071BF48
:1010E0001A2493F70704D1DB83C761849386418474
:1010F00093F707068DC32390060083C70184639C82
:10110000F5001387818770230C435A23938701814D
:101110008CC3DAA3F0A39E22C207C183B9FFB7072D
:1011200000502398070211472DBF99472309F40265
:10113000A309F402938681879C22138661841CA2F2
:101140009C3203D86600138701841CA383D8260031
:101150009387418423900701138881842310180109
:1011600083D8460013882184231018010348060001
:1011700013894184938961841378080613868187D3
:1011800093878184938621846302080A83C70900B8
:101190009384C18493F70702BDCF1C231307100269
:1011A00093F7F70F6385E706636BF70401446384E5
:1011B000B7001304F00F835709001307F003130A55
:1011C00000046367F700035A0900420A135A0A0130
:1011D00083AA0400528613858187D685569AEF002C
:1011E000D03A23A044019307F00F6313F410B7071C
:1011F00000501D472389E702A389E702BDBD1307FD
:1012000030021304F00FE368F7FA01446DB79387D7
:1012100001819CC0DDBF03C4090019801344140080
:101220000588330480401374F40F71B71823AD455B
:101230001377F70FE3EDE5FA8D650A079385C51976
:101240002E97184302879A23894621839384C18469
:101250006306D7020D46630EC70285476316F7047F
:101260008D671387072983C7072998C0014403574F
:101270000900E3F2E7F42310F90035BF0D67130707
:10128000C7243C3398C03823A207BA97C207C1834A
:10129000F1BF9E23054693F7F70F6381C70289CB01
:1012A0006385D702638AE70281471304F00FC1B751
:1012B0001387018298C083C701824DBF8D67138752
:1012C000472A98C083C7472A55B78D671387472B8E
:1012D00098C083C7472B59BF8D671387C72C98C009
:1012E00083C7C72C61B79E2393F7F70F238AF18238
:1012F00083C70900E207E18763D8071E0357090087
:101300009307000463E6E70083570900C207C1831F
:10131000035709001D8F420741832310E900370757
:1013200000501EBB91472309F70281BB83C751833D
:101330001CA2035709008547E3FCE7FA2310F900D4
:1013400045BF9E2393F7F70FA38AF1820547238BAE
:10135000E18279BF03C709007D8B11EF9E2305470A
:1013600093F7F70FE396E7F8938771839823137742
:10137000E70F98A3B5BF03C7090009467D8BE318A3
:10138000C7E69E2393F7F70FE39307E69E229306A3
:10139000100893F7F70F638DD70093063008638E1C
:1013A000D700E396E7E4B7070050A38D070289B79B
:1013B000B7070050238BE70225BFB7070050238FE4
:1013C000E7023DB703C709007D8B05E79E2305476C
:1013D00093F7F70FE39DE7E08D6783C7372593F712
:1013E0000702E38607E0938771839823136717004A
:1013F00049B703C7090009467D8BE31AC7DE9E2360
:1014000093F7F70FE39507DE9E229306100893F7F4
:10141000F70F6381D702930630086386D702E398FB
:10142000E7DC370700508347B70393E73700A30D86
:10143000F7027DBD370700508347670393E7370006
:10144000230BF70275B5370700508347E70393E78F
:101450003700230FF70269BD23000600D9BD83C7FB
:10146000090023100600FD8B85E383C771830144C7
:10147000858B99C389471CA2035709008947E3F468
:10148000E7D62310F90085B303C709008947130481
:10149000F00F7D8BE312F7FE9E229306100893F760
:1014A000F70F6381D70293063008638AD702E3956A
:1014B000E7FCB707005083C7B7038D8B0D47639ECA
:1014C000E70011A8B707005083C767030D47014421
:1014D0008D8BE393E7FA85471CA2014471BFB707E0
:1014E000005083C7E703D1BF83570900C207C183F8
:1014F000E38707C2B70700501147FDB9937717007C
:1015000099CFA38A0182238A0182A38B0182238B34
:101510000182A3010400613A85477CA09DB69377C0
:10152000470095C791477CA02945EF00407558308A
:1015300093877183118B19C798231367270098A38A
:101540009C2381B698231377D70F98A31DBE78A04C
:101550000DBEEFE2FFC941119357850048876C002B
:10156000A9460D461305C004DC8623060100C921E7
:1015700041016FE03FCAB7F700E0D8437D56FD5602
:10158000799BD8C390CBD4CB984341111367070103
:1015900098C398431367170298C302C64D47B247D2
:1015A0006354F700410182800100B24785073EC6BF
:1015B000FDB7B7F700E098438146799B98C394C77D
:1015C0000147D8C78280EFE23FC037590040B709D2
:1015D0000001371A7A00AA8A2E8BB28B9304094035
:1015E00037040010FD19370C0020130A0A20D68595
:1015F0002685EFF06FD519C1014505A0930504407C
:101600002685EFF0CFD5854C631B95011305094066
:1016100093050440EFF0CFD775556FE07FBE93057B
:1016200004102685EFF0AFD3631A950193050410DB
:1016300013050940EFF0CFD57D55C5B793050420BC
:101640002685EFF0CFD16315950193050420CDB722
:10165000B7F700E09847DC4783270C099306803EE4
:1016600033773701B3D74703330767413377370100
:10167000B387D7023357F702E36B77F775BFEFE213
:10168000BFB4B75900402A892E8413850940854587
:10169000B68A3A8B328AEFF06FC4370503005A8658
:1016A000D68505050D37AA8431E193151900014649
:1016B00093F5E50F13850940EFF0EFC737090700F1
:1016C0005A86D68513052908FD3DAA8405E1B75938
:1016D0000040229A138C094013094908631E4401F3
:1016E0003755004085451305054021A085451385E4
:1016F0000940EFF04FC015A00C2062850504EFF003
:10170000CFC25A86D6854A857D3DAA8B61D985454B
:1017100013850940EFF02FBEDE8426856FE05FAEB3
:10172000EFE29FAA37090010B754004037040001C8
:10173000B7197A002A8AAE8A1309090493840440EF
:1017400037FB00E07D14B70B002093890920CA8580
:101750002685EFF0CFC001C501456FE07FAA0327C2
:101760008B008327CB0083A70B099306803E618FF4
:10177000B3D7370333074741618FB387D702335756
:10178000F702E36657FD7D55C9BFEFE2FFA337546B
:1017900000402A8AAE8C1305044085453A89BE89EB
:1017A000B28BB68A370B0300EFF04FB34E86CA8573
:1017B00013051B00093DAA841DE1060A137AFA0FDE
:1017C0000146D28513050440EFF0EFB6370C070051
:1017D0004E86CA8513052C08FD33AA8409C58545A4
:1017E0001305044005A0E68513050440EFF0EFB3B0
:1017F000CA854E8613054C08F933AA84854513051E
:10180000044091C4EFF02FAF26856FE07F9FEFF08B
:10181000EFAC4E86CA8513051B007533AA8461F1AF
:101820000546D28513050440EFF0EFB04E86CA8519
:1018300013052B00493BAA845DF18547638FFA02AB
:10184000014A138BFAFF13040440E30F5AFB631C95
:101850004B0581452285EFF0AFAB85452285EFF042
:101860008FA9CE854A856D3D21E52285EFF02FAC0D
:10187000B3874B0188A3050AC9BF814513050440FE
:10188000EFF00FA9854513050440EFF0CFA6CE85F4
:101890004A857935AA842DF913050440EFF02FA964
:1018A0002380AB0095B785452285EFF06FA655BF25
:1018B000AA8499BFEFE2DF93011185453705200027
:1018C00002C202C402C602C802CA02CC02CEEFF0B3
:1018D0006FC185452145EFF00FBF371401409307D5
:1018E000000471498D444C00130504C07C824AC633
:1018F00026C4EFE05FFD930700084C00130504C009
:101900007C824AC626C4EFE01FFCE1679387076A22
:101910003EC8B707FFBF375400403ECAB7070004B0
:101920003ECC0C08916713050440FC86EFF0AF89AC
:10193000854513050440EFF0EF9805616FE09F8D3A
:10194000EFE21F8B375500404111814513050540DB
:1019500002C202C402C6EFF0EF96371401409307AB
:1019600000048D44130504C07C824C00D1473EC660
:1019700026C4EFE05FF5930700087C82130504C0DE
:1019800091474C0026C43EC6A544EFE0DFF31304A4
:1019900004C00146930500042285EFE07FFF154552
:1019A000F92C0546930500042285EFE07FFE1545DE
:1019B000F924930500082285EFE0FFFC85472A897A
:1019C0006307F500FD1493F4F40FE1F40149930764
:1019D0000008371401407C82D1473EC64C008D4739
:1019E000130504C03EC4EFE01FEE01469305000856
:1019F000130504C0EFE0DFF91545512405469305B2
:101A00000004130504C0EFE0BFF815458D2C054612
:101A100093050008130504C0EFE09FF715458524E2
:101A2000513D795563030900014541016FE08FFE87
:101A3000EFE26FFA4111B289368AAA842E89B7FA89
:101A400000E0EFF05FB303A68A003704000183A62D
:101A5000CA007D14B376C40052874E86CA85268597
:101A600039392AC6EFF0FFB432451DC1D13DEFF040
:101A70009FB003A68A0083A6CA005287B376C4002B
:101A8000CA854E862685E53E2AC6EFF09FB23245CE
:101A900041016FE08FF7EFE20FF44111368ABA8A05
:101AA000AA842E89B28937FB00E0EFF0DFAC8326F1
:101AB0008B00370400010327CB007D143377D4005B
:101AC000D687D2864E86CA852685C1312AC6EFF0D2
:101AD0005FAE324505C5AD35EFF0FFA983268B001B
:101AE0000327CB00D6873377D4004E86D286CA85AB
:101AF000268561392AC6EFF0DFAB324541016FE040
:101B0000CFF0EFE2EFEE082141112E8429478946FC
:101B100070009945493711E51C869886A207D98F30
:101B20001EA041016FE00FEF1387C1851C430566BE
:101B3000B386A7006369D60037050020130585200A
:101B40003E9514C38280014582808280EFE24FEA95
:101B50007971854537050200EFF0CF98854511452D
:101B6000EFF06F96371401409147FC828D44E147B6
:101B70004C081305048026CC3ECEEFE0DFD4A1470D
:101B8000FC824C0891471305048026CC3ECEEFE042
:101B90009FD3F16793870720374400403ED0B707B3
:101BA0000C00938707600C10130504403ED402D24A
:101BB00023160102EFF08F9A0546130504409305A2
:101BC0005052EFF0EFA3854513050440EFF0EFA16D
:101BD000B7E700E00947238BE7423707400023A21D
:101BE000E710239101862393018623820186A38235
:101BF000018623800186B7270000938787B23EC6FF
:101C0000B72700009387A7B468003EC8EFF00FA580
:101C100037350000930500201305C51C712E3706CB
:101C20000020373500001306862085651305052141
:101C3000612645616FE00FDEEFE28FDBEFF00FA36F
:101C40000545EFF08FAD3735000013054523BD295D
:101C50006FE04FDCB707002083A7070937177A002A
:101C600013070720B3D7E70293F7F70F2386F18610
:101C70001307803EB387E7022395F1868280B7F78A
:101C800000E0D8438146799BD8C303C7C186330699
:101C9000A70290CBD4CB98431367070198C398430E
:101CA0001367170298C3D843058B75DF9843799B58
:101CB00098C38280EFE2CFD32A8411650111854554
:101CC0001105EFF04F80930700207C82371501400B
:101CD0008D473EC44C00E147130505803EC6EFE04A
:101CE0009FBE22C837440140B70708000C081305FF
:101CF00004803ECC02CA231E0100EFF02F868545EA
:101D000013050480EFF06F8E05616FE0AFD0EFE256
:101D10008FCCB7440140AE8932890144938404805A
:101D2000634524014A856FE04FCE93050004268564
:101D3000EFF06F917DD9B3878900838507002685F1
:101D40000504C205C181EFF00F8FD9BF13878181D0
:101D50001C43B71600209386C6403E95636BD500A2
:101D6000B78600209386068063E5A60008C33E85FB
:101D70008280FD57EDBF9387C181AA8588439DA2CC
:101D80009387C181AA85884355A8B3C7A5008D8BC9
:101D90003307C50081E78D4763EDC700AA87637EDF
:101DA000E508942185078505A38FD7FEE3EBE7FEC1
:101DB000828093763500AA8789CA94218507850594
:101DC000A38FD7FE93F63700C5BF9376C7FF138660
:101DD00006FE63F0C70683A3050083A2450083AF18
:101DE000850003AFC50083AE050103AE450103A323
:101DF000850183A8C5019385450223A0770003A828
:101E0000C5FF23A2570023A4F70123A6E70123A8B7
:101E1000D70123AAC70123AC670023AE170193871C
:101E2000470223AE07FF75B790419107910523AE96
:101E3000C7FEE3EBD7FEE3E6E7F68280DDC183A7CA
:101E4000C5FF411122C406C626C21384C5FF63D351
:101E500007003E94AA84EF001011938701879C43EA
:101E600081EF2322040023A881862244B2402685E4
:101E7000924441016F00500F637EF4001440330719
:101E8000D4006396E7009843DC43369718C05CC0E3
:101E9000D9BFBA87D84319C3E37DE4FE94433386A0
:101EA000D700631F86001040B29694C33386D700D4
:101EB000E31DC7FA10435843B29694C3D8C375B70D
:101EC0006375C400B1479CC04DB71040B306C40051
:101ED0006316D70014435843B29614C058C0C0C309
:101EE00069B78280011126CA93843500F19806CE25
:101EF00022CC4AC84EC6A104B14763F3F404B144EE
:101F000063E2B4042A89EF0010069387018798439F
:101F10003A8439E0938741879C4391E781454A851C
:101F20005D2A23AAA186A6854A857522FD596319D3
:101F30003507B1472320F9004A85EF00F00229A0B8
:101F4000E3D004FCB1471CC10145F2406244D244D5
:101F50004249B249056182801C40858F63CF0702E8
:101F6000AD4663F6F6001CC03E9404C031A05C4050
:101F70006313870223A8F1864A85EF00E07E1305EC
:101F8000B4009307440061993307F5405DDF3A944C
:101F9000898F1CC05DBF5CC3C5B72287404095BF19
:101FA000130435007198E30285FCB305A4404A850B
:101FB0001D22E31C35FBB5BF39713EDA2ED232D477
:101FC00036D63AD842DC46DE9387C18122CC8043A4
:101FD00026CA06CEAA8409C41C4C99E322850D2B7F
:101FE0000C4454102686228536C6EF00807EF240CF
:101FF0006244D24421618280011126CA4AC806CEB9
:1020000022CC4EC652C4AA842E8901C51C4D91E330
:1020100001239C4C804499E32685DD299717000015
:102020009387872E631BF402C0405E24A18BB1C747
:102030001C48A1C7FD59294A1C4483450900FD17C6
:10204000B1E91CC463DD07062286A94526856D28F3
:10205000FD576308F502294535A0971700009387BF
:10206000A72C6314F4008044C9B797170000938726
:10207000A727E31CF4FAC0444DBFA2852685992208
:1020800055D97D55F2406244D2444249B249224A70
:10209000056182801CC4050963D70700184C63CA18
:1020A000E700638845011C401387170018C08CA304
:1020B00061B7228626858928E31035F9D9B71C40F7
:1020C0001387170018C0294798A371B79387C18158
:1020D000AA85884315B7411122C42A842E8597F713
:1020E000FF1F23A5073206C6EFF05FC6FD57631931
:1020F000F50097F7FF1F938767319C4391C31CC07E
:10210000B240224441018280011122CC26CA4AC831
:1021100006CE4EC6AA842E89328401C51C4D91E399
:10212000C52E971700009387271E6317F406C0403B
:102130001C4C1CC45E24A18BC1C31C48B5CF1C48D9
:1021400008409379F90F1379F90F1D8D5C486346A8
:10215000F500A2852685792C25E51C440505FD178B
:102160001CC41C401387170018C0238037015C482B
:102170006388A7005E24858B81CBA9476316F9008D
:10218000A2852685852C0DEDF24062444A85D24415
:102190004249B24905618280971700009387C718AA
:1021A0006314F400804469B7971700009387C7133E
:1021B000E310F4F8C044ADBFA2852685212041D1AB
:1021C0007D59D9B741119387C18126C2844322C466
:1021D0004AC006C62A892E8489C49C4C99E3268568
:1021E000052E9717000093872712631BF402C04047
:1021F0000317C40093170701C18393F68700B5EA5C
:1022000093F6070195EEA5472320F900136707040D
:102210005AA47D55B2402244924402494101828031
:1022200097170000938747106314F4008044C9B7E0
:10223000971700009387470BE31CF4FAC0444DBF87
:10224000918B85C74C5891C9930744046385F50069
:102250004A85EFF0BFBE232A04025E242322040035
:1022600093F7B7FD5EA41C481CC05E2493E787006B
:102270005EA41C4899EB5E241307002093F70728FF
:102280006385E700A2854A85B1215E2413F7170014
:102290001DC35C4823240400B307F0401CCC1C4839
:1022A0000145ADFB8317C40013F7070825D793E753
:1022B00007045EA4B9BF898B014791E3584818C44D
:1022C000F9BFDE25011122CC26CA06CE4AC84EC669
:1022D00013F78700AA842E8461EFD841634DE00094
:1022E000B841634AE0000145F2406244D2444249A9
:1022F000B2490561828058547DD703A904009396A2
:10230000370123A0040063DC060670485E24918B2D
:1023100099C75C401D8E5C5899C33C401D8E5C542F
:102320000C50814626858297FD575A24631DF5007F
:102330009440F54763E9D706B70740208507B3D730
:10234000D700858BADC31C48232204001CC0931703
:10235000370163D80700FD576314F5009C4091E3F3
:1023600068C84C5823A02401BDDD9307440463854D
:10237000F5002685EFF09FAC232A0402ADB70C5080
:102380000146854626850297FD572A86E310F5F813
:102390009C40ADDF75476385E70059476393E704C9
:1023A00023A0240189B7136707045AA47D552DBFC4
:1023B00083A90501E38909F203A905008D8B23A0F8
:1023C000350133093941014791E3D84918C4E35C29
:1023D00020F11C540C50CA864E862685829763478E
:1023E000A0005E2493E707045EA4C9B7AA99330945
:1023F000A940F1BF9C49B9CF011122CC06CE2A8455
:1024000011C51C4D81E72EC62122B2459717000049
:10241000938787EF639BF5004C408397C50095C772
:1024200022856244F240056169BD971700009387D9
:10243000A7EF6394F5000C44CDB79717000093877E
:10244000A7EAE39CF5FC4C44C9BFF2406244014555
:102450000561828001458280411122C406C62A841A
:102460004EA572A523200500232205002324050084
:102470002322050623280500232A0500232C050016
:10248000214681451305C505EFD09FD99717000058
:102490009387A7975CD0971700009387C7991CD4A0
:1024A000971700009387A79D5CD497170000938728
:1024B00007A000D01CD8B240224441018280970579
:1024C0000000938565F3B1A2411126C21306800670
:1024D0009384F5FFB384C4024AC02E8922C406C681
:1024E00093854407EFF01FA02A8401CD2320050027
:1024F00023222501310508C4138684068145EFD0C7
:102500003FD22285B2402244924402494101828056
:102510001C4DADE3411106C622C497070000938706
:1025200047FA1CD5938741829C4323240504232624
:102530000504232805046314F50085471CCD2A846F
:102540001D2848C02285052808C422852D2048C49E
:10255000484001469145093708440546A545ED3DEB
:1025600048440946C945CD3D85471CCCB24022446C
:1025700041018280828041119387418226C2844337
:102580004AC006C69C4C22C42A8999E3268549374D
:10259000938484048044DC40FD1763D607009C408C
:1025A000B9CF8440C5BF0317C40039E7C177850799
:1025B00023220406232004002322040023240400F1
:1025C0005CC423280400232A0400232C0400214691
:1025D00081451305C405EFD0BFC4232A0402232C70
:1025E000040223240404232604042285B240224446
:1025F00092440249410182801304840671BF9145CF
:102600004A85D93588C051FDB1472320F9000144DE
:10261000E9BF797122D44AD052CC56CA5AC85EC694
:1026200006D626D24ECE2A8AAE8A130485040149E4
:10263000054BFD5B09ECB25022544A859254025975
:10264000F249624AD24A424BB24B4561828004440D
:1026500083294400FD1963D409000040E1BFDE2452
:10266000637BFB008397E40063877701A68552852F
:10267000829A3369A90093848406E9BF1971A6DAA6
:10268000AE848395E500A2DC86DE328463DB050040
:10269000DE2423A0060093F7070885E79307004090
:1026A0001DA0300836C6EF001007B246E34205FE13
:1026B0007247BD67F98F7977BA9793B717009CC2B5
:1026C000F1BF930700041CC0F6506654D654014570
:1026D00009618280DE25011122CC06CE26CA4AC8B5
:1026E000898B2E8489CF930774041CC01CC885472E
:1026F0005CC8F2406244D244424905618280740061
:102700003000AA84A53FA2452A892685EFF08FFDD7
:1027100019E98317C40013F7072061FFF19B93E7C2
:1027200027005EA4C9B797070000938787D99CD478
:102730005E2408C008C893E707085EA4A2475CC8E7
:10274000B24781CF8315E4002685EF00E07F11C5F5
:102750005E24F19B93E717005EA45E243369F900C1
:102760002316240179B7828082801C46FD171CC67F
:1027700063DA0700184E63C5E700A9476394F500C4
:102780006FF09F981C422E851387170018C28CA3E8
:102790008280011122CC26CA4AC84EC652C406CE37
:1027A0002A89AE893284B304D6007D5A631494001A
:1027B000014501A80C204E864A85453F0504E317D4
:1027C00045FFF2406244D2444249B249224A05617F
:1027D0008280357122CD26CB4AC94EC706CF52C55D
:1027E00056C35AC1DEDEE2DCE6DAAA89AE8432895B
:1027F000368409C51C4D99E3EFF09FD1971700006F
:10280000938787B06397F40C83A44900DE24A18BDF
:10281000FDC39C48EDC393070002A304F102930794
:10282000000302D22305F10222C6930B5002971A2D
:102830000000938A6AB1054C294B4A841C2099C335
:10284000639E770DB30C2441638D0C00E6864A86A7
:10285000A6854E853D3FFD57630FF51C9256E696C3
:1028600036D21C206389071CFD571309140002C8C7
:1028700002CE3ECA02CCA309010482D483450900DA
:1028800015465685252713041900C24751E913F749
:10289000070109C713070002A309E10413F7870022
:1028A00009C71307B002A309E1048346090013070F
:1028B000A002638FE606F2474A8481462546182027
:1028C00093051400130707FD6377E60AB5CA3ECEE9
:1028D00085A897170000938727A56395F40083A424
:1028E00089002DB797170000938707A0E390F4F2B3
:1028F00083A4C90021BFA6854E85EFF0BF8C01DD02
:102900007D55FA406A44DA444A49BA492A4A9A4A01
:102910000A4BF65B665CD65C0D618280050439BFAC
:10292000330555413315AC00C98F3EC82289B9B76C
:10293000324793064700184336C6634707023ACE2C
:1029400018209307E002631DF70418309307A002D4
:10295000631BF702B2470904138747009C433AC63A
:1029600063C107023ECA2DA83307E04093E7270062
:102970003ACE3EC8F1B7B387670385462E84BA972F
:102980003DBFFD57C5B7050402CA814681472546AC
:10299000182093051400130707FD6374E606F9F287
:1029A0000C200D46171500001305859A012511CD41
:1029B000971700009387C7991D8D93070004B3975D
:1029C000A700424505045D8D2AC80C20194617153D
:1029D000000013052598130914002304B102F923FC
:1029E00035C197D7FFFF9387E76195E74247B24725
:1029F0001377071009CF91073EC69257D2973ED260
:102A00002DBDB387670385462E84BA9751B79D07BE
:102A1000E19BA107D5B77800970600009386A6D75B
:102A200026860C084E8597000000E7000000FD5741
:102A30002A8AE314F5FCDE2493F70704E39207ECFB
:102A40001255C1B57800970600009386C6D4268635
:102A50000C084E85012AE1BF797156CA9C49BA8A91
:102A6000984522D426D24ECE52CC06D64AD05AC849
:102A70005EC6AA892E84B284368A63D3E700BA87F9
:102A80009CC00347340419C385079CC01C4093F7BE
:102A9000070281C79C4089079CC003290400137961
:102AA0006900631A0900130B9401FD5B5C449840B4
:102AB000998F634CF9041C408346340493F7070252
:102AC000B336D000A5EB13063404D2854E85829A26
:102AD000FD576303F5041C4011469840998B5444FC
:102AE00081446397C700B384E64063D30400814404
:102AF0001C4418486354F700998FBE940149690437
:102B00007D5B63982405014509A885465A86D285D0
:102B10004E85829A631E75017D55B250225492549F
:102B20000259F249624AD24A424BB24B4561828015
:102B30000509ADBF3307D40013060003A301C70482
:102B40000347540493871600A2978906A381E704DC
:102B50009DBF85462286D2854E85829AE30E65FB0F
:102B6000050945B7797122D426D24AD04ECE06D671
:102B700052CC56CA5AC8B689942D9307900632890A
:102B8000AA842E8413863504638DF60263E2D70689
:102B9000930780056386F61863EDD700638E0620E1
:102BA00093073004638EF60A930A24042301D404A5
:102BB000C9A0930730066385F60A93074006E3959C
:102BC000F6FE1C40084393F6070893054500C5C66A
:102BD0001C410CC363D807001307D002B307F040B1
:102BE000A301E4049706000093864677294765A869
:102BF000930700076382F61663E5D7029307E006A2
:102C00006389F6189307F006E390F6FA0C401C432C
:102C100013F80508138547006307080608C39C439B
:102C200085A893075007E383F6FE9307800763891F
:102C3000F61293073007E399F6F61C43D04181451D
:102C40009386470014C383AA07005685852601C5CD
:102C50003305554148C05C401CC8A301040461A869
:102C60001C43930A2404938647009C4314C3230106
:102C7000F4048547D5B793F607041C410CC3B9DAB1
:102C8000C207C18781BF93F5050408C3C9D99E2334
:102C90001307F0066387E60E970600009386066C1E
:102CA0002947A30104044C400CC463C50500084037
:102CB0006D9908C099E3B28A89CDB28AB3F5E7026B
:102CC000FD1AB6958C212380BA00B3D5E70263F0D4
:102CD000E70CA147631EF7001C40858B91CB584041
:102CE0001C4863C7E70093070003A38FFAFEFD1A91
:102CF0003306564110C84E87CA867000A2852685C5
:102D0000EFF09FD57D5A631D450B7D55B25022547F
:102D100092540259F249624AD24A424B456182803A
:102D2000A382D50497060000938646630C400843AF
:102D300013F805081C411105630D080208C313F7B9
:102D4000150001C793E505020CC04147B9FB0C40D3
:102D500093F5F5FD0CC0B1B79C4193E707029CC108
:102D600093078007A302F404970600009386466049
:102D700075BF13F8050408C3E30308FCC207C18349
:102D80007DBF970600009386665D214719BFAE8719
:102D900035B794411C43CC4913F806081385470006
:102DA0006306080008C39C438CC339A008C393F68C
:102DB00006049C43F5DA8EA323280400B28A25BFBB
:102DC00014485686CA8526858299E30045F51C403D
:102DD000898B8DE7B2474844E35AF5F23E853DB70B
:102DE00085465686CA8526858299E30065F3050ADD
:102DF0005C443247998FE345FAFEE9BF014A930AE2
:102E000094017D5BF5B7411122C42E848395E500C2
:102E100006C64D2A634905007C48AA977CC8B24083
:102E20002244410182805E247D777D17F98F5EA464
:102E3000FDB7DE25011122CC26CA4AC84EC606CEF1
:102E400093F70710AA842E843289B68991C7839597
:102E5000E500894601460D225E247D777D17F98FB6
:102E60005EA48315E4006244F240CE864A86B249ED
:102E700042492685D244056125A8411122C42E84E9
:102E80008395E50006C6CD28FD575A24631AF50040
:102E9000FD77FD17F98F5EA4B24022444101828084
:102EA0008567D98F5EA468C8C5BF8395E50025A84E
:102EB000411122C42A842E85B285368697E7FF1FEA
:102EC00023A6075406C6EFE09FE4FD576319F500FB
:102ED00097E7FF1F938787539C4391C31CC0B24061
:102EE000224441018280411122C42A842E8597E721
:102EF000FF1F23AD075006C60122FD576319F500D9
:102F000097E7FF1F938787509C4391C31CC0B24033
:102F1000224441018280411122C42A842E85B28537
:102F200097E7FF1F23A4074E06C6F928FD5763192C
:102F3000F50097E7FF1F9387674D9C4391C31CC023
:102F4000B240224441018280411122C42A842E854C
:102F500097E7FF1F23AC074A06C67D28FD57631974
:102F6000F50097E7FF1F9387674A9C4391C31CC0F6
:102F7000B240224441018280411122C42A842E851C
:102F8000B285368697E7FF1F23A2074806C6692841
:102F9000FD576319F50097E7FF1F938727479C4369
:102FA00091C31CC0B24022444101828093F5F50FC9
:102FB0002A966314C500014582801C21E38EB7FE6A
:102FC0000505C5BF411122C42A842E85B2853686E7
:102FD00097E7FF1F23AC074206C6B928FD576319C0
:102FE000F50097E7FF1F938767429C4391C31CC07E
:102FF000B2402244410182809307800517E7FF1FFA
:103000002326F7407D5582809307800517E7FF1F31
:10301000232EF73E7D5582809307800517E7FF1F1B
:103020002326F73E014582809307800517E7FF1F9F
:10303000232EF73C7D5582809307800517E7FF1FFD
:103040002326F73C7D5582805B4641554C545D20DC
:103050006D61736B3D307825303458206461633D79
:10306000257520616464723D3078253032582D30EA
:1030700078253032582D3078253032582D3078254B
:103080003032580D0A00000053797374656D436C3B
:103090006B3A25640D0A00004368697049443A257B
:1030A0003038780D0A0000005068617365203031B7
:1030B0003A20486172647761726520466F756E646C
:1030C0006174696F6E0D0000496E697469616C69A5
:1030D0007A696E6720493243312061742031303083
:1030E0006B487A2E2E2E0D004932433120696E69CD
:1030F0007469616C697A65640D000000496E6974D9
:1031000069616C697A696E6720256420494E413295
:10311000323620646576696365732E2E2E0D0A00A3
:103120004558544934206F6E2050413420636F6EEF
:10313000666967757265642028494E4132323620CF
:10314000414C41524D20696E707574290D0000008C
:10315000496E697469616C697A696E67205553427A
:103160002D4344432E2E2E0D000000005553422DBA
:1031700043444320726561647920636F6E6E6563BA
:10318000742055534220666F72207669727475619F
:103190006C20434F4D20706F72740D005E14000060
:1031A00054130000EE110000C4130000EE110000E3
:1031B000E612000046120000EE1100002C13000081
:1031C0004213000058140000F012000050726F7497
:1031D0006F636F6C20696E69743A20555341525485
:1031E000322031313532303020384E312B6F64642B
:1031F000207061726974792C2072696E6720627523
:10320000666665722025642062797465730D0A0014
:10321000634A534F4E206172656E613A20256420E7
:103220006279746573206174203078253038580DC8
:103230000A0000005553422D43444320696E6974CF
:1032400069616C697A65640D000000000902430041
:10325000020100803209040000010202010005247D
:1032600000100105240100010424020205240600C7
:10327000010705810340000109040100020A000062
:10328000000705020240000007058302400000001D
:103290001201100102000040861A0CFE010001021A
:1032A000000100000E037700630068002E00630039
:1032B0006E0000001603550053004200200053002A
:1032C00065007200690061006C00000016033000A8
:1032D000310032003300340035003600370038004A
:1032E00039000000000000000000000000000000A5
:1032F00000000000000000000000000000000000CE
:1033000000000000000000000000000000000000BD
:1033100000000000000000000000000000000000AD
:10332000000000000000000000000000000000009D
:10333000000000000000000000000000000000008D
:1033400000000000232D302B20000000686C4C0092
:1033500065666745464700003031323334353637CD
:103360003839414243444546000000003031323391
:1033700034353637383961626364656600000000B1
:1033800040004101420243034404000000000000E9
:103390000000000001020304060708090000000005
:1033A00001020304010203040607080900000000EB
:1033B0000433000024330000E43200000000000069
:1033C00000000000000000000000000000000000FD
:1033D00000000000000000000000000000000000ED
:1033E00000000000000000000000000000000000DD
:1033F00000000000000000000000000000000000CD
:1034000000000000000000000000000000000000BC
:1034100000D8B80502040608801D0000761D0000D3
:1034200000C20100000008000C1400202C00002045
:08343000040309042C00002034
:00000001FF
