:040000006F00101A63
:100004000000000000000000C8020000CA02000056
:10001400000000009E090000000000000000000035
:100024009E0900009E09000000000000000000007E
:100034009E090000000000009E090000000000006E
:100044009E0900009E0900009E0900009E09000010
:100054009E0900009E0900009E0900009E09000000
:100064009E0900009E0900009E0900009E090000F0
:100074009E0900009E0900009E090000000800007F
:100084009E0900009E0900009E0900009E090000D0
:100094009E0900009E0900009E0900009E090000C0
:1000A4009E0900009E0900009E0900009E090000B0
:1000B4009E090000DA0200009E0900009E0900006B
:1000C4009E0900009E0900009E0900009E09000090
:1000D4009E090000700700009E0900009E090000B0
:1000E4009E0900009E090000000000009E09000017
:1000F4009E0900009E0900009E0900009E09000060
:10010400000000009E0900009E0900009E090000F6
:100114009E0900009E0900009E0900009E0900003F
:100124009E0900009E0900009E0900009E0900002F
:100134009E09000000000000000000000000000014
:100144000000000000000000000000005E16000037
:100154000000000000000000000000009E090000F4
:100164009E0900009E0900009E0900009E090000EF
:100174009E0900009E0900009E0900009E090000DF
:100184009E0900009E0900009E0900009E090000CF
:100194009E0900009E0900009E0900009E090000BF
:1001A400000000000000000000000000000000004B
:0C01B4000000000000000000000000003F
:1001C000397101436EC619A0397141536AC866CAB4
:1001D00062CC5ECE19A0397101535AD056D252D496
:1001E0004ED64AD826DA22DC06DE3301614082820E
:1001F00041114AC026C222C406C68282B24D4101C4
:10020000024D924C224CB24B4101024B924A224A7F
:10021000B2494101024992442244B24041018280E4
:100220003D432A876373C3029377F700BDEFADE5C3
:10023000937606FF3D8ABA960CC34CC30CC74CC7D5
:100240004107E36BD7FE11E28280B306C3408A0602
:100250009702000096966780A6002307B700A306C2
:10026000B7002306B700A305B7002305B700A30412
:10027000B7002304B700A303B7002303B700A3020A
:10028000B7002302B700A301B7002301B700A30002
:10029000B7002300B700828093F5F50F9396850091
:1002A000D58D93960501D58D61B79396270097025A
:1002B000000096968682E78086FA9680C1171D8F89
:1002C0003E96E374C3F8A5B701A0B707EFBE37E7C2
:1002D00000E0938707083CC701A0411122C63704FC
:1002E000004091451305044026C4EF10E00F05C9F6
:1002F00013050440EF10000FAA8491451305044034
:10030000EF10001083A74185B387F44023ACF1843C
:1003100023AA91840547238FE184239E01843244DC
:10032000A2444101730020301971094586DEA2DC28
:10033000A6DACAD8CED6D2D4D6D2DAD0E2CEE6CC9D
:10034000EACAEEC8EF00304CE123EF20C0437165EC
:1003500013050520EF20404CEF20E019EF20202D61
:1003600085452145EF009062C147371401402312B3
:10037000F104C147130504C0BEC6CC008D47BEC4FE
:10038000EF00100D0546C145130504C0EF003019FC
:100390003755000013050505EF20F050EF10706A87
:1003A000375500003704002013050506130904091A
:1003B000EF20704F814413040409375A0000B75AE4
:1003C000000091494A85EF20200BAA8603460900C8
:1003D000A685631105381385CA06EF20F04785040A
:1003E0000909E39134FF082010089305E00F3759FD
:1003F000000002C8EF10F048AA851305490AEF2053
:10040000B045C245B75400001385040BEF20D0441B
:10041000082010089545EF10D046AA851305490A13
:10042000EF209043C2451385040BEF20F042EF10FC
:1004300050011305803EEF101009AA8537550000C2
:100440001305850BEF205041EF2000323755000097
:100450001305C50CEF20304583A58180375500007A
:100460001305450FEF20503FD923AA8537550000CB
:1004700013054510EF20503E9304501FCA8983C7CF
:10048000A18393F7F70F81E7FD14639A042C83C7C8
:10049000A18393F7F70F6388072C375500001305E6
:1004A0004511EF205040B165375B0000B75A00009E
:1004B000130620039385F5B713053006EF103003BC
:1004C000032C0B02832C4B0203AD8A0283ADCA02BC
:1004D000375A0000B7590000082050088945EF102E
:1004E000503A082030088545EF10B03908207008D0
:1004F0009145EF101039282010108945EF10703801
:10050000282050108545EF10D03728203010914515
:10051000EF103037482070108945EF109036482092
:1005200010188545EF10F035482050189145EF1010
:100530005035682030188945EF10B03468207018A5
:100540008545EF101034682090009145EF1070330E
:100550009387018398431305400637590000050728
:1005600098C3EF2000287245B7540000EF40E04FD9
:100570006286E686EF3030102AC462452EC6EF4010
:10058000C04E6A86EE86EF30100FB757000003A604
:10059000070383A64703EF30100E2AC052452EC230
:1005A000EF40A04CB757000003A6870383A6C703FC
:1005B000EF30700C0326090483264904EF30B00B9A
:1005C00003A6840483A6C404EF3040242248B24822
:1005D000024792472A8637550000AE8613058514D8
:1005E000EF2090272255EF40404803260B02832638
:1005F0004B02EF3050082AC412552EC6EF40E04699
:1006000003A68A0283A6CA02EF30F00603260A0375
:1006100083264A03EF3030062AC002552EC2EF402F
:10062000C04403A6890383A6C903EF30D004032680
:10063000090483264904EF30100403A6840483A62A
:10064000C404EF30A01C2248B248024792472A86D1
:1006500037550000AE8613050519EF20F01F5255DF
:10066000EF40A04003260B0283264B02EF30B00080
:100670002AC442552EC6EF40403F03A68A0283A6F5
:10068000CA02EF30407F03260A0383264A03EF3075
:10069000807E2AC032552EC2EF40203D03A689033A
:1006A00083A6C903EF30207D03260904832649046D
:1006B000EF30607C03A6840483A6C404EF300015E9
:1006C0002248B248024792472A8637550000AE8634
:1006D0001305851DEF2050180645EF40003903260D
:1006E0000B0283264B02EF3000792AC472552EC6C6
:1006F000EF40A03703A68A0283A6CA02EF30A07794
:1007000003260A0383264A03EF30E0762AC06255A7
:100710002EC2EF40803503A6890383A6C903EF30BC
:1007200080750326090483264904EF30C07403A6AC
:10073000840483A6C404EF30600D2248B248024707
:1007400092472A8637550000AE8613050522EF2012
:10075000B01059B313054A08EF20101049B12945CC
:10076000EF20200829BB375500001305851215BB63
:1007700001114EC8B74901409305404213850980D5
:1007800022CE26CC4ACA52C6EF00B05835C137092E
:100790000240032AC90503C401971309890581454D
:1007A0001374F40F933714004A852388F1963D2182
:1007B000930500084A85B12183C701979384019767
:1007C00085459E078507A6972326F9004A85392186
:1007D00013850980EF00D05293050008B385454189
:1007E000131574000505C205C1812695EF10D06D63
:1007F0007244E2445249C249324A056173002030D2
:10080000411126C422C603C401974AC237090240D7
:100810001374F40F93371400130589058145238859
:10082000F1966D2E1305890593050008D92E83C70F
:10083000019793840197130589059E078507A6975D
:100840005CC58545612E1315740005052695930535
:100850000008EF10706737050200E12E3244A24411
:100860001249410173002030B71702409843B70680
:10087000FFF01367170098C3D843758FD8C3984308
:10088000B706F7FEFD16758F98C39843B706FCFFB1
:10089000FD16758F98C3D843B70601FFFD16758FF7
:1008A000D8C337079F0098C7B746024003A7068002
:1008B0001367070123A0E680D843B706C1FFFD16E2
:1008C000D8C3D843D8C3D84313670740D8C3D84345
:1008D000758FD8C3D843B7062800558FD8C398431F
:1008E000B7060001558F98C3984393166700E3DD60
:1008F00006FED843B7160240719BD8C3D84313678E
:100900002700D8C32147DC42B18BE39EE7FE8280FB
:10091000B7160240DC421146B18B13878180638594
:10092000C70021466388C702B7177A00938707205C
:100930001CC3B7170240DC43918393F6F700B70757
:10094000002093870700B69794231C43B3D7D700A2
:100950001CC38280DC42D4424166C983BD8BF18EC8
:10096000890745466393C700C94781EEB7460240F1
:1009700083A60680C18A89CEB7167A0093860620A0
:1009800021A8B7160240D4421396E600E35606FEAD
:10099000B7163D0093860690B387D70251BF01A0DA
:1009A00097010020938101EF1771002013018165E9
:1009B00017550000130585DB97F5FF1F93858564A8
:1009C0001386018363FAC5008322050023A0550026
:1009D00011059105E3EAC5FE1385018397150020F3
:1009E000938585D36377B500232005001105E36D5A
:1009F000B5FEFD42739002BCAD4273904280B76277
:100A00000000938282087390023097F2FFFF938276
:100A1000A25F93E2320073905230EFF0FFE497024E
:100A200000009382A2907390123473002030B7F7C5
:100A3000FF1F03A5477082801C4141677917F98F1A
:100A40001CC1232005002322050023240500B7072D
:100A5000024023260500138787006317E500D8436B
:100A60001367F700D8C382801387C7016316E500B8
:100A7000D8431367070FFDB7138707036318E50013
:100A8000D8438566938606F0558FE9BF13874704E0
:100A90006315E500D843BD66C5BF13878705631698
:100AA000E500D843B7060F00C5B71387C70663161E
:100AB000E500D843B706F000C1BF138707086316E7
:100AC000E500D843B706000FC1B713878740631905
:100AD000E50003A747401367F70023A2E7408280A1
:100AE0001387C7416317E50003A747401367070F44
:100AF000EDB793870743631BF500B707024003A7D1
:100B000047408566938606F0558FC1BFB707024000
:100B1000138747446316E50003A74740BD66EDB75A
:100B2000138787456317E50003A74740B7060F0003
:100B3000E1BF1387C7466317E50003A74740B70621
:100B4000F000D9B7138707486317E50003A74740AC
:100B5000B706000F55BF138707496319E50003A7C0
:100B6000474D1367F70023AAE74C82801387074A93
:100B70006317E50003A7474D1367070FEDB713870A
:100B8000074B6319E50003A7474D8566938606F07A
:100B9000558FD1BF1387074CE319E5FC03A7474DD9
:100BA000BD66FDB71C4161773D0794517D8F9C4523
:100BB000D58F9449D58FD449D58F944DD58FD44DA9
:100BC000D58FD451D58F9455D58FD98F1CC1DC4585
:100BD0005CC19C411CC5DC415CC582801C4189C54F
:100BE00093E717001CC1828041677917F98FDDBF39
:100BF0001C4101C6DD8D0CC1828093C5F5FFFD8DC2
:100C0000DDBF4CC182809317350063D70700B7075B
:100C1000024023A2A74082809317250063D70700D4
:100C2000B707024023AAA74C8280B7070240C8C377
:100C30008280EFF2EFDBC13F6FF0CFDDEFF24FDBF1
:100C400085450545512381450545BD2B6FF08FDC5A
:100C50009C4513F7070113F8F70001C7D841336823
:100C6000E8008E2113F7F50F39C318418146854EF0
:100C70003D4F930F800293028004214E3396DE0095
:100C8000B3F8C500631116039398260033131F01B0
:100C90001343F3FF3377E300B318180133E7E80099
:100CA000639FF70550C98506E39AC6FD18C113076F
:100CB000F00F6375B70454412146854E3D4F930FA5
:100CC000800293028004414EB398CE0033F71501A1
:100CD0006392E8021317260001173313EF00134342
:100CE000F3FFB376D3003317E800D98E639DF70185
:100CF000232A15010506E319C6FD54C18280E39439
:100D000057FA10C94DB7E39757FE23281501DDB7F1
:100D100008456D8D3335A00082800CC9828019C2D0
:100D20000CC982804CC98280B7070140635A050410
:100D3000DC4F93560501131805013707300013F6F1
:100D4000F60013580801B376E50063500506639B6F
:100D5000E602930606010D46B316D60093C6F6FFCB
:100D6000F58F99C9135755011377F73F12073317BA
:100D7000E800D98F63570504370701405CCF8280B4
:100D8000DC4345BF1317B500635607008D46B39685
:100D9000C600E9B7135755011377F73F120733170A
:100DA000E8001347F7FFF98F6DBF6390E60237063F
:100DB00001405442370700F17D17F98F758F58C2F3
:100DC000D5F1370701405CC382801317B500635C1F
:100DD00007008D46B396C60093C6F6FFFD8EB70793
:100DE000000FD58FF1BF1357550112073317E800D5
:100DF0001347F7FF7D8FB707000FD98FD1B7EFF2F9
:100E00002FBFB7570040938707408545631BF50008
:100E100037052000C92E814537052000E9266FF0EF
:100E20006FBF37054000C126814537054000FDB73B
:100E3000EFF20FBC797146212A8468082EC62D2452
:100E4000925737470F001307072433D7E702C2042E
:100E5000C18093F404FCC2049306C003C180B24570
:100E600063F4E6001307C003131607014182D18C17
:100E700046A0162061651305056AC206C182F99A6B
:100E8000C206C18216A094416369D5048606B3D711
:100E9000D7029146139707014183BA876373D7003E
:100EA000914705064206C2074182C18312B05EAC7B
:100EB0001E20DA21B62593E717001EA01E20558FAD
:100EC000C207C18393F757BFD98F1EA09A25DE258D
:100ED000D98F1EA445616FF0EFB3EA2131667D160C
:100EE000631DC5020D46B386C602B3D7D702C2073B
:100EF000C1839396470199E293E71700A166D58FC6
:100F00009306C0123307D7029306803E3347D702B9
:100F10000507420741831AB059BF6546B386C6022A
:100F2000B3D7D7029166C207C183D58FD9B71E2127
:100F300089C593E717001EA18280C207C183F99B70
:100F4000C207C183CDBF1E2189C593E707101EA12B
:100F50008280C207C18393F7F7EFC207C183C5BF81
:100F60001E2189C593E707201EA18280C207C18385
:100F700093F7F7DFC207C183C5BF1E2189C593E779
:100F800007401EA18280C207C18393F7F7BFC20743
:100F9000C183C5BF0EA982800A291375F50F82800F
:100FA00093F7E50F19C293E71500C207C1831EA985
:100FB00082805E290A2D42055D8D6D8D220521817D
:100FC0000D8D133515008280411102C402C693D7DE
:100FD000C5012AC63EC4A247A205A18199CBB2474A
:100FE000D1073EC6B247884341016D8D3335A0001D
:100FF0008280B247C181E107EDB793C5F5FFC20515
:10100000C1814EA9828023AAA182828003A7418345
:10101000894710216311F70214318D4763EDD70022
:101020003C219A0637E700E09607D58F93F7F70F34
:1010300032972300F7405441054793575600331722
:10104000C70089CA938707048A07B7E600E0B69706
:1010500098C3828093870706B7E600E08A07B697B1
:1010600098C30F1000008280371702405C439146FE
:10107000B18B6385D700A1466382D706B7177A0084
:10108000938707201CC1371602405C4237070020B7
:10109000130707019183BD8BBA9794231C41B3D7E3
:1010A000D7005CC15442A1829D8ABA969422B3D6DD
:1010B000D70014C55442AD829D8A36971823B3D702
:1010C000E7005CC558423983937637001387C180A7
:1010D00036971823B3D7E7021CC982805C43544378
:1010E0004167C983F98E37F7FF1F0327C770BD8B90
:1010F00089071316170163480600454601476392A6
:10110000C702C94739A809476389E7023D47638891
:10111000E70241476388E702454601476393C700FA
:10112000C14785E6B746024083A60680C18A8DC6C0
:10113000B7167A009386062025A00147D9B7054740
:10114000B547C5B70147BD47E9BFB7160240D4420E
:101150001396E600E35E06FCB7163D009386069004
:10116000B387D7021CC105D31C41858321BF99C514
:10117000371702405C4B5D8D48CB8280B717024029
:10118000D84B1345F5FF798DC8CB828099C53717A9
:1011900002401C4F5D8D08CF8280B7170240984FE8
:1011A0001345F5FF798D88CF828099C537170240A6
:1011B0005C4F5D8D48CF8280B7170240D84F1345F2
:1011C000F5FF798DC8CF828099C5371702405C47FB
:1011D0005D8D48C78280B7170240D8471345F5FF99
:1011E000798DC8C7828099C5371702401C4B5D8D29
:1011F00008CB8280B7170240984B1345F5FF798DD5
:1012000088CB8280B7170240D843B70640FFFD164F
:10121000758FD8C3D8435A05598DC8C3828037F714
:10122000FF1F032747701E21914611833D8BC20784
:101230007117C18363E6E60237370140930607C0A2
:10124000630ED50013070740630AE50037570140D6
:10125000930607C06304D500631AE5000967D98FB8
:1012600037370140130707C06302E5043707004022
:10127000630EE50213070740630AE50237170040D3
:10128000930607806304D502130707C06300E502D5
:101290003737014013070740630AE500375701401D
:1012A000930607C06304D5006318E50093F7F7F8C9
:1012B000BA21C207C183D98F37170040630CE500FC
:1012C000130707406308E50093F7F7CFFA21C20739
:1012D000C183D98F1EA1DE215EB59E211EB5B73711
:1012E0000140138707C0630EE50093870740630A38
:1012F000F500B7570140138707C06304E500631486
:10130000F5009C251EB985475EA982801E31922179
:1013100003D82500C207C183F99BC207C1831EB150
:101320001E3156211A2DC207C1834207418313770C
:10133000C7F8518F9225F59BC20633660601D18FFF
:1013400037360140130806C0C182630E050113063B
:101350000640630AC50037560140130806C06304FF
:1013600005016310C502B225DD9B03D8E500D18FCE
:10137000D221ED9B93F6F6CFD18FD22533660601AD
:10138000D18E56A11AADFA215AB91EB182801E2102
:1013900089C593E717001EA18280C207C183F99B0C
:1013A000C207C183CDBF8357450491C52167D98F3B
:1013B0002312F5048280C607C583DDBF1E2189C5BF
:1013C00093E707081EA18280C207C18393F7F7F74E
:1013D000C207C183C5BF1E2DC207C183DD9BDD8D42
:1013E0000EAD82800A3D82801E294A25ED8F42057E
:1013F000418189C76D8D3335A0008280014582808F
:1014000093C5F5FFC205C1810EA98280EFE25FDEC0
:101410001629F577FD17F58FF621DA257971D58F25
:101420001EA95625FD779387379FF58FD6212A84ED
:101430002EC6D58F9625D58FB625D58F5EA55E296C
:10144000C207C18393F7F7CFD98F5EA968082939FE
:10145000B747014093870780B245631EF402A25745
:101460006547B387E7029841930640060A07B3D75A
:10147000E70233D7D702B3F7D70212079207938751
:101480002703B3D7D702BD8BD98FC207C1831EA450
:1014900045616FE03FD89257E1B791C55E25096776
:1014A000D98F5EA582805A25F977FD17F98FD5BFB0
:1014B00013F7F50F85471583B395B7006319F70048
:1014C0009307C500984301CED98D8CC3828089468D
:1014D00093074501E318D7FE93070501E5B793C5C8
:1014E000F5FFF98DDDB75E2901C6DD8D4EA982803D
:1014F00093C5F5FFFD8DDDBF93F5F51F4EA18280ED
:101500004A211375F51F82800A216D8D3335A000A5
:10151000828013F7F50F85461583B397B6006311E4
:10152000D7025A25F98F1A2101454207418381CB01
:101530000545A181B315B5006D8F3335E00082807C
:1015400089466314D7001A29F1BF5A29E1BF19C58A
:10155000184123AAE180584123A8E1808280EFE26C
:101560003FC903A78180B74795089387074009457E
:101570006300F702B7E7B80593870780054563095D
:10158000F700B777DC02938707C06314F7000145C3
:10159000953985450565E13E6FE0DFC7B707005027
:1015A00013070004D8A713078004D8B7138701874F
:1015B00098CB1387018BD8CB1387018F98CF1387D4
:1015C0000193D8CFA3890702A38D0702239A0702AC
:1015D000239E070209472389E702238BE702238F13
:1015E000E7029387C18323800700A380070023813C
:1015F0000700A381070023820700A382070023833B
:101600000700A38307008280EFE29FBE37040050EB
:1016100099471CA01DC52945EF1040199D4723007F
:1016200004003CA0930790021CA08D3F930710F884
:101630001CB037070800B7E700E023A4E7106FE00D
:101640007FBD2945EF108016B7E700E023000400B6
:101650003707080023A4E7180F100000CDB70111C9
:1016600022CE26CC4ACA4EC852C656C437040050B1
:1016700078207C301377F70F937627006387065620
:1016800093F7F70F13F70703930500026309B702F7
:10169000930600036302D71861EB13F7F70363089F
:1016A000071289476312F70C8347B40393C74700B7
:1016B000A30DF4029387C1832381070075A093F7DC
:1016C000F70393061002638ED70A93063002638DE8
:1016D000D70C639BE708938781849E23938481843E
:1016E000C207C18381E79147A309F40283C7A1849C
:1016F00093F70706B5EB83C74184154793F7F70FB8
:10170000638BE70419476391E7069E201307F003F4
:10171000130400046365F7008220420441801389AA
:101720000185832909002286CE8513850187EF3044
:1017300020699E20A29923203901818FC207C1838D
:101740009EA0B707005082BB03C72703134747007B
:101750002389E70211A8370700503C3383C68183F1
:1017600093F70708D58F3CB3B70700500947F8A394
:101770007244E2445249C249324AA24A05617300A6
:1017800020308347640393C74700230BF402834749
:10179000640393F7C70F93E72700230BF4029387A3
:1017A000C183A3800700C9B78347E40393C74700F9
:1017B000230FF4028347E40393F7C70F93E727004F
:1017C000230FF4029387C183A381070071BF1A24FA
:1017D00093F70704D1DB83C7A1849386818493F7B1
:1017E00007068DC32390060083C74184639CF500E0
:1017F0001387018770230C435A23938781818CC3FD
:10180000DAA3F0A39E22C207C183B9FFB707005035
:101810002398070211472DBF99472309F402A30912
:10182000F402938601879C221386A1841CA29C3219
:1018300003D86600138741841CA383D826009387AE
:101840008184239007011388C1842310180183D851
:101850004600138861842310180103480600138989
:1018600081849389A184137808061386018793875E
:10187000C184938661846302080A83C70900938444
:10188000018593F70702BDCF1C231307100293F7BE
:10189000F70F6385E706636BF70401446384B700C1
:1018A0001304F00F835709001307F003130A000411
:1018B0006367F700035A0900420A135A0A0183AA10
:1018C0000400528613850187D685569AEF30404F23
:1018D00023A044019307F00F6313F410B7070050DF
:1018E0001D472389E702A389E702BDBD1307300224
:1018F0001304F00FE368F7FA01446DB79387818111
:101900009CC0DDBF03C4090019801344140005887E
:10191000330480401374F40F71B71823AD45137767
:10192000F70FE3EDE5FA95650A07938585262E976F
:10193000184302879A23894621839384018563068D
:10194000D7020D46630EC70285476316F7049567F5
:101950001387C75883C7C75898C001440357090065
:10196000E3F2E7F42310F90035BF15671307875436
:101970003C3398C03823A207BA97C207C183F1BF8E
:101980009E23054693F7F70F6381C70289CB6385D2
:10199000D702638AE70281471304F00FC1B71387A8
:1019A000818298C083C781824DBF95671387075A8C
:1019B00098C083C7075A55B795671387075B98C0C8
:1019C00083C7075B59BF95671387875C98C083C738
:1019D000875C61B79E2393F7F70F238CF18283C74F
:1019E0000900E207E18763D8071E03570900930740
:1019F000000463E6E70083570900C207C183035769
:101A000009001D8F420741832310E900370700506A
:101A10001EBB91472309F70281BB83C791831CA298
:101A2000035709008547E3FCE7FA2310F90045BF97
:101A30009E2393F7F70FA38CF1820547238DE18254
:101A400079BF03C709007D8B11EF9E23054793F7EC
:101A5000F70FE396E7F89387B18398231377E70F9F
:101A600098A3B5BF03C7090009467D8BE318C7E6F5
:101A70009E2393F7F70FE39307E69E229306100841
:101A800093F7F70F638DD70093063008638ED70066
:101A9000E396E7E4B7070050A38D070289B7B707BD
:101AA0000050238BE70225BFB7070050238FE702C2
:101AB0003DB703C709007D8B05E79E23054793F7D4
:101AC000F70FE39DE7E0956783C7F75493F70702A5
:101AD000E38607E09387B18398231367170049B71C
:101AE00003C7090009467D8BE31AC7DE9E2393F7DF
:101AF000F70FE39507DE9E229306100893F7F70F82
:101B00006381D702930630086386D702E398E7DC47
:101B1000370700508347B70393E73700A30DF70259
:101B20007DBD370700508347670393E73700230BDA
:101B3000F70275B5370700508347E70393E737008F
:101B4000230FF70269BD23000600D9BD83C7090032
:101B500023100600FD8B85E383C7B1830144858B89
:101B600099C389471CA2035709008947E3F4E7D6C4
:101B70002310F90085B303C7090089471304F00F48
:101B80007D8BE312F7FE9E229306100893F7F70F62
:101B90006381D70293063008638AD702E395E7FC96
:101BA000B707005083C7B7038D8B0D47639EE700CF
:101BB00011A8B707005083C767030D4701448D8BF9
:101BC000E393E7FA85471CA2014471BFB7070050B1
:101BD00083C7E703D1BF83570900C207C183E387E7
:101BE00007C2B70700501147FDB99377170085C3A7
:101BF000A38C0182238C0182A38D0182238D01821B
:101C0000A3010400EFF09F9985477CA095B69377D8
:101C1000470095C791477CA02945EF0030395830DF
:101C20009387B183118B19C798231367270098A353
:101C30009C233DBE98231377D70F98A315BE78A099
:101C400005BEEFE2EFDAB757004013840740522891
:101C5000162C03D707405E200358C40137550000F7
:101C600041119305C00413058529EF10E03EB71715
:101C70000240CC4F904F83A681803755000013055A
:101C8000452FEF10603DC1479306803E0D466C0026
:101C90001305C0047C8623070100EF00007711E9DB
:101CA000375500001305C532EF10E03F41016FE0EA
:101CB0006FD65228162CAA85375500001305053417
:101CC000EF108039E5B7EFE2AFD24111C1475C8632
:101CD0004887935785006C009306803E0D46130598
:101CE000C004DC86EF00607241016FE0AFD2EFE22A
:101CF0002FD03971AA842E840545854532C602D27B
:101D000002D402D602D802DA02DC02DE02CC02CE13
:101D100023100102EFF08FC737151A008545130510
:101D20000580EFF06F8085452145EFF02FC6854592
:101D30000945EFF08FC7930700022312F102371510
:101D40000140E1473ED64C108D47130505803ED437
:101D5000EFE01FF0E084370400402C081305044036
:101D6000E486231F0100231D0100EFF04FCB324614
:101D7000C167938707060C18130504403ED8231B40
:101D8000C102231C0102EFF06FD813050440854502
:101D9000EFF06FE1130504408145EFF0CFE3130549
:101DA00004408545EFF08FE1854513050440EFF0D1
:101DB0000FDE21616FE00FC6B7F700E0D8437D5614
:101DC000FD56799BD8C390CBD4CB98434111136770
:101DD000070198C398431367170298C302C64D477B
:101DE000B2476354F700410182800100B247850782
:101DF0003EC6FDB7EFE24FBD37540040B7090001C2
:101E0000B71A7A002A8BAE8B328C368A13090440BB
:101E1000B7040010FD19938A0A20DA854A85EFF08D
:101E20004F9919C1014505A0938504404A85EFF0FB
:101E3000AF99054D631BA50113050440938504402C
:101E4000EFF0AF9B75556FE0AFBB938504104A85EB
:101E5000EFF08F976311A5039385041013050440D9
:101E6000EFF0AF9937550000D28513058538EF1094
:101E7000A01E7D55C9BF938504204A85EFF0CF94FD
:101E8000631EA5019385042013050440EFF0EF962F
:101E900037550000D2851305053AD1BFB7F700E0EA
:101EA0009847DC4783A781809306803E33773701CC
:101EB000B3D757033307774133773701B387D70257
:101EC0003357F702E36B87F5035644418356844149
:101ED00037550000D2851305853B13040440EF10ED
:101EE000A01741BFEFE24FAEB754004037040001E6
:101EF000371B7A000111AA89AE8A328A3A89938BFC
:101F000004407D1437FC00E0130B0B20130D803EC2
:101F1000B70502005E8536C6EFF00F8BB2463DE195
:101F2000B7F700E09847DC4783D70440798C130764
:101F3000300693E707102390F44002CEF247635334
:101F4000F708B757004083D5074013870740C205FD
:101F5000C18193F7051081CB522B37550000130533
:101F60000541EF10600F3705030085464A86A285BC
:101F700005054935AA8421CD37550040854513050F
:101F80000540E9A003278C008327CC0083A781802C
:101F9000618F158FB3D76703618FB387A70333575B
:101FA000F702E36727F783D5444103D684413755C9
:101FB00000001305453EEF10200AFD5426850561FB
:101FC0006FE00FA40100F24785073ECE85BF9395D1
:101FD0001900B7590040014693F5E50F13850940F4
:101FE000EFE01FFC2945EF00C07FB70B07008946D3
:101FF0004A86A28513852B08F53BAA8429E5B70CF0
:102000000010375B00408149938C0C08130D0B4086
:10201000938B4B0813FCF90FE3003AF7E6856A85CA
:10202000EFE09FFA1DE503564B4137550000CE8582
:102030001305C544EF104002130B0B4085455A852C
:10204000EFE01FF29DBF854513850940EFE05FF18A
:10205000B5B7B3873A018C236A858509EFE09FF312
:1020600093063C0093F6F60F4A86A2855E855933A7
:102070002A8C4DD1854513050B40EFE07FEEE284BD
:1020800035BFEFE24F951314150041110504B75900
:1020900000402E8A32891374F40F23160100930432
:1020A0005006938A0940B70502005685EFE0DFF13C
:1020B000631E0512138509408545B7040300B7590F
:1020C0000040EFE05FE88504938A0940A6855685C5
:1020D000EFE03FEE65DD138509400146A285896486
:1020E000B7090700B75A0040EFE09FEB93841471E3
:1020F00093892908138B0A40CE855A85EFE07FEB40
:10210000630D05109375FA0F13850A408964B709AA
:102110000700375A0040EFE0FFE79384147193897A
:102120004908930A0A40CE855685EFE09FE8630D83
:10213000050E13050A408545B7040300B759004052
:10214000EFE07FE08504138A0940A6855285EFE021
:102150005FE665DDA285138509400546B7040300E7
:1021600037540040EFE0DFE393095006890413047D
:102170000440A6852285EFE0DFE34DCD3704001053
:10218000B75400401304040493890440A2854E858B
:10219000EFE09FE365DD13850440EFE0FFDFB70468
:1021A0000300375400404886938404049309044094
:1021B000A6854E85EFE0FFDF65DD13050440EFE007
:1021C000BFDDC886854513050440EFE01FDB85456C
:1021D00013050440EFE0DFD81C8698860545A2076A
:1021E000D98F2320F900F52B01452DA013054006BA
:1021F000FD146D2BE39904EA3755000013054537AC
:10220000EF00706A37550040130505408545EFE043
:102210003FD5054541016FD05FFF13054006FD1412
:102220007123E39B04ECC9BF2945FD144123E39CC2
:1022300004EED9B713054006FD198D2BE39B09F277
:1022400065BFEFD25FF9011185453705200002C255
:1022500002C402C602C802CA02CC02CEEFE0FFF4FA
:1022600085452545EFE09FF237540040EFE01F9D84
:1022700013050440EFE0BFB8B71401409305000C0C
:10228000138504C0EFE07FA993070004F1490D49CD
:102290004C00138504C07C824EC64AC4EFE05F9BAD
:1022A000930700084C00138504C07C824EC64AC4C4
:1022B000EFE01F9A835704402167D98F2310F44021
:1022C00002C01307300682476354F70437570040B3
:1022D00083570740130407400C08C607C583231023
:1022E000F740B7270600938707A83EC8B707004006
:1022F0003ECAB70700043ECC22859167FC86EFE01A
:102300003FB385452285EFE09FC205616FD0FFEFA7
:102310000100824785073EC07DB7EFD27FED37557C
:102320000040411181451305054002C202C402C6A6
:10233000EFE0FFBF37140140930700048D441305FD
:1023400004C07C824C00D1473EC626C4EFE05F90BB
:10235000930700087C82130504C091474C0026C4F3
:102360003EC6A544EFE0DF8E130404C0014693058A
:1023700000042285EFE0BF9A15450D290546930517
:1023800000042285EFE0BF9915450D219305000853
:102390002285EFE0FF9785472A896307F500FD1442
:1023A00093F4F40FE1F40149930700083714014056
:1023B0007C82D1473EC64C008D47130504C03EC405
:1023C000EFE01F89014693050008130504C0EFE004
:1023D0001F951545E12E054693050004130504C01D
:1023E000EFE0FF931545D926054693050008130530
:1023F00004C0EFE0DF921545552EA13579556303F2
:102400000900014541016FD0FFE0EFD2FFDB37F457
:1024100000E0328AB68A2A89AE89EFF0FF9910442B
:10242000B70400015444FD14B3F6C4005687528625
:10243000CE854A85EFF01FAB1C40014B814BF99BC9
:102440001CC023246401232674010DC5F935EFF067
:10245000BF96104454445687B3F6C400CE855286C6
:102460004A85EFF03FA81C40F99B1CC0232464015F
:10247000232674016FD0DFD8EFD29FD7AA8408211A
:10248000411195477C866C009307F0069306803EC9
:102490000D465C879D3F2A84375500009305F00662
:1024A0001305C547EF00503B19EC916788209387CF
:1024B00007107C869306803E930770020D466C00E1
:1024C0005C87A1372A84228541016FD0BFD49386CF
:1024D0000186984293077500E19BBA970566636988
:1024E000F60037050020130585303A959CC282809E
:1024F000014582808280EFD2BFCF11657971854519
:10250000310502CA02CC02CE02D002D202D402D6D7
:1025100002C202C4EFE09FC73714014093070020B6
:102520008D4413050480FC824C08E14726CC3ECE46
:10253000EFE00FF29307004013050480FC824C0883
:10254000914726CC3ECEEFE0AFF0F1673744014033
:1025500093870720130504803ED00C10B7070C00AA
:102560003ED402D223160102EFE05FEA054693054E
:10257000404213050480EFE0BFF3930750137C82C1
:1025800085475C83480085473EC4EFE03FA81305BC
:1025900004808545B7540000EFE03FF09384C448C1
:1025A000130404800389040063150906B72700009B
:1025B0009387E74C3EC6B72700009387474F6800D4
:1025C0003EC8EFE0DFF8EFE08FC637040020375653
:1025D0000000AA861306064BA54513050402EF006A
:1025E000F02937550000930500201305854BEF00B7
:1025F000B026370600203755000093060402130664
:102600008630856513050550EF00102545616FD0B4
:102610007FC0930500042285EFE01FEF7DD993155D
:102620000901C1812285EFE03FED8504A5BFEFD20E
:102630003FBC39711306C00281454808EFD05FBE28
:10264000854505453704024002C602C8EFE03FB2A7
:1026500013058405EFE04FBEB74401408D673EDCB3
:10266000938744803ECA13070008938711974C084C
:10267000130584053AD43AD03ECC02D202D602D811
:1026800002DA02DE02CEEFE0EFD1054689451305FE
:102690008405EFE0EFD59307F0117C8685475C87D2
:1026A000680085473EC8EFE07F96130584058545A1
:1026B000EFE0CFD205469305000413850480EFE0D8
:1026C0009FE221616FD01FB5EFD2FFB0371A002013
:1026D00093078A3003D7474093070040AA8A998F0F
:1026E0003E84C207C18313098A3063F3F5002E8448
:1026F00083540940930900404204C204C180B38955
:102700009940C209418093D9090163E989020355BF
:1027100009402286D6854A95EF20806A8357094072
:10272000A297C207C1832310F940835749403E94C2
:1027300042044180231289406FD03FAD03550940C8
:10274000938404C0A2944E86D685C2044A95EF2095
:102750002067C1802686B3853A0113058A30EF20B1
:10276000206623109940D1B7EFD29FA8EFE03FDF5A
:102770000545EFE07FE93755000013050553EF00ED
:1027800090126FD03FA983A7818037177A00130773
:102790000720B3D7E70293F7F70F2383F1861307D8
:1027A000803EB387E7022392F1868280B7F700E08C
:1027B000D8438146799BD8C303C761863306A702F5
:1027C00090CBD4CB98431367070198C39843136702
:1027D000170298C3D843058B75DF9843799B98C33C
:1027E0008280B7F700E0D8438146799BD8C303D7EE
:1027F00041863306A70290CBD4CB984313670701D9
:1028000098C398431367170298C3D843058B75DFA5
:102810009843799B98C38280EFD29F9D2A8411654B
:10282000011185451105EFE07F96930700207C821A
:10283000371501408D473EC44C00E1471305058024
:102840003EC6EFE0EFC022C837440140B70708009A
:102850000C08130504803ECC02CA231E0100EFE0E1
:10286000FFBA854513050480EFE03FC305616FD0D3
:102870007F9AEFD25F96B7440140AE893289014416
:1028800093840480634524014A856FD01F98930583
:1028900000042685EFE05FC77DD9B3878900838573
:1028A000070026850504C205C181EFE0FFC4D9BF3A
:1028B000138701821C43B7160020938646713E950C
:1028C000636BD500B78600209386068063E5A6007B
:1028D00008C33E858280FD57EDBF011106CE2EC68E
:1028E0000DCD1841AA8705C358417D5511CB8546AA
:1028F000631BD70098472300070023A20700054564
:10290000F240056182809847B24614A398470507B4
:1029100098C7D8437D17D8C3DDB705466C00913FF3
:10292000F9BF797122D426D24ECE52CC56CA06D6E1
:102930004AD05AC82A8AAE8A328481449309000256
:1029400063440602B3879A00838707009DE363D63A
:10295000840263D2E402198C93F7260093090002E3
:1029600081C719E393090003858A01499DE62289FD
:1029700029A88504C1BF058CC5B70144F1BFCE8528
:1029800052853AC6993F32477D19E34A20FF228992
:102990006353040001493304244163CBE402CA8435
:1029A000B3872441D697838507009DED2289634133
:1029B000200563530400014433059400B2502254AF
:1029C00092540259F249624AD24A424B456182808E
:1029D000B3049740268B9305000352857D1BF53D7C
:1029E000E31B0BFE269965BF5285C53D85044DBF8F
:1029F000CE855285DD357D195DBF5D71A6C252DC85
:102A000086C6A2C4CAC04EDE56DABA843E8A95E1B2
:102A1000930700030147D28626862C08FC841137D1
:102A2000B640264496440649F259625AD25A616128
:102A300082802A893684C68A91CAA94701446317CD
:102A4000F60063D50500B305B0400544A3070102B5
:102A50009307F102A546130568FC33F7C50263D35B
:102A6000E6002A9713070703A38FE7FE9389F7FF72
:102A700033D7C50263F7C50401CCB9C413772A0064
:102A800021C79305D0024A8542C6813D3248FD14D4
:102A900093774A0099CF93071006930500034A8560
:102AA000631CF8021D3D930580074A853D350904E6
:102AB000F9145687D2862686CE854A859D3522957D
:102AC00085B7BA85CE8751BF1307D002A38FE9FE21
:102AD00001449389E7FF6DBFEFF03FE09305800568
:102AE000E9B71D71CAC8CEC6D6C2DAC03A8986CE49
:102AF000A2CCA6CAD2C45EDE62DC66DA6AD86ED622
:102B000033E7C500BE89AA8A428B8347010631E3B9
:102B10008DCF8D679387D7027C8423050100014701
:102B2000DA864E862C005685EFF0BFDFF64066440D
:102B3000D6444649B649264A964A064BF25B625C41
:102B4000D25C425DB25D25618280930700037C8484
:102B5000F9B7368AAE84328463000902A947014975
:102B6000639CF600635A0600B304B040B33790008C
:102B70003304C0401D8C0549A30F0100130DF10162
:102B8000935DFA41A54C138C68FC5286EE8626852F
:102B9000A285EF00100F63D3AC0062951305050307
:102BA000A30FADFE5286EE862685A285930BFDFF10
:102BB00081236366B401639A8D0263F84403630D55
:102BC00009006388090293772B0085C79305D0021B
:102BD0005685EFF09FD0FD190147DA864E86DE85D7
:102BE0005685EFF01FD44A9591B7AA842E845E8D46
:102BF00069BF9307D002A38FFBFE0149930BEDFF42
:102C0000E1BF5D71A6C2CAC0AA842E892E85B28595
:102C100086C63ACE42CCA2C44EDE52DCB289368A97
:102C200056DA5AD8BE8A5ED662D466D2468C6AD04C
:102C3000EF10106A2A8BAE8B01468146CE854A85FD
:102C4000EF100018724762487D81BA872AC0054795
:102C5000E288D286DA855E86268561352A8D9305DF
:102C6000E0022685EFF07FC7050D8147854C0144C2
:102C7000294763CE57075A85DE85EF1030712A86C3
:102C8000AE864A85CE85EF10806A2A89AE89668530
:102C9000A285EF10B06F2A86AE864A85CE85EF10EA
:102CA000801DEF10F06213D6F541318DB347B600A9
:102CB000B305C5403335B5003386C74002C0E2884E
:102CC000D687D286098E094826850547EFF07FE131
:102CD000B64026446A9596440649F259625AD25A39
:102CE000425BB25B225C925C025D61618280B306F2
:102CF0008702850733349703B30C9703369495BF47
:102D00005D715AD8375B0000A2C4A6C2CAC04EDEAD
:102D100052DC56DA5ED662D486C666D2AA892E897D
:102D20003284014A8144930B5002930AB002294C29
:102D3000130B0B5E830509008DE563860900814551
:102D40004E85EFF09FB9B640264426850649964445
:102D5000F259625AD25A425BB25B225C925C616168
:102D60008280638875014E85EFF03FB785040509C1
:102D7000D1B783071900930C1900639A7701930563
:102D800050024E85EFF07FB585046689CDB7D5D763
:102D90006387570563C8FA00130730026384E704AA
:102DA000814705A01307D002638AE70013070003D9
:102DB000E398E7FE930C2900894721A0930C290092
:102DC000854703870C006303570563C1EA02930636
:102DD0003002630BD70266890145A54535A8930CDF
:102DE00029007DBF930C29009147E1BF9306D002D3
:102DF0006309D70093060003E31FD7FC93E727007E
:102E000031A0850C8547C1BF93E74700850CE1B72A
:102E1000330585030509369503070900930607FD69
:102E200013F6F60FE3F6C5FE1306E0029946631E9D
:102E3000C70005098146254603070900130707FD5A
:102E40009375F70F6375B602368A030709001306F8
:102E5000A0066309C70A6341E6021306C0046303C0
:102E6000C70A130680066308C70801461DA8B38673
:102E700086030509BA96C9B7130640076304C70855
:102E80001306A0076300C7089305C0060146631A2E
:102E9000B700830519000D466394E5000509114646
:102EA000050903070900930500061308100663C40B
:102EB000E500130810049305700663C2E506930548
:102EC00050066359B7169305700463CFE5021306E5
:102ED00050046351C71693063004E31AD7E818402C
:102EE000930C4400A30E0100230EE100BE860147AF
:102EF0002A866C0871A0830519000146E393E5FA60
:102F0000090945B7050995B793063006E309D7FCCB
:102F100063CEE606930680056303D70289BD930658
:102F200030076306D70463CDE6029306F006630B11
:102F3000D70C9306000793E74700E31AD7E211473F
:102F4000631BE60A1D04137784FF0C4350431304EC
:102F50008700C28802C03E880147AA87C146B9A03F
:102F6000930650076303D7069306800775B718408A
:102F7000930C4400DA8511C3BA855287BE862A862F
:102F80004E85EFF01F9AAA946684D5B31147631457
:102F9000E6021D04137784FF0C435043130487009B
:102FA000C28802C03E880547AA87A9464E85EFF031
:102FB0005FB3AA946DBB0C40D28811042A87854662
:102FC00029464E85EFF07FA3EDB71147631FE6005A
:102FD0001D04137784FF0C43504313048700C288F9
:102FE00002C03E880147AA87C9B70C40D2881104A5
:102FF0002A878146F1B70C40D28811042A8781467E
:103000004146C1B711476310E6021D04137784FFE0
:103010000C43504313048700C28802C03E88014716
:10302000AA87A14661B70C40D28811042A8781463D
:10303000214641BF1D04137684FF130486000C4211
:1030400050423307D540C2887D173E884E85B687EB
:10305000A946EFF01FBBB1BF39712ED232D4AA8579
:103060005010014506CE36D63AD83EDA42DC46DE6E
:1030700032C6EFF0FFC8F24021618280397132839D
:103080003EDA2EC42AC67010854748009A8506CEBF
:1030900036D63AD842DC46DE3EC232C0EFF05FC6DA
:1030A000F24021618280011122CC26CA06CE1C2169
:1030B000AA840144DC878307F100050499EFA9473E
:1030C0009305F10005460145DC87EFF08FFA228574
:1030D000F2406244D2440561828005469305F100C6
:1030E0000145EFF00FF9B38784009C23DC87E1B73B
:1030F000B687B2882A832E88639B061463F8C50AB4
:103100004167636BE61AB70700016360F6349356B4
:103110008601E14717270000130747553697182304
:10312000BA97130700021D8F19CB3398E500B357E8
:10313000F500B318E60033E807013313E50013D6B2
:1031400008013355C80293960801C18293570301C1
:103150003377C802B385A60242073368F700637A63
:10316000B80046989307F5FF636418016365B830AB
:103170003E853308B8403357C80242031353030156
:103180003378C802B386E602420833686800637B7E
:10319000D80046989307F7FF6365180179176363B2
:1031A000D8003E874205598D8145828001E605475A
:1031B000B358C702416763E8E80EB707000163EA46
:1031C000F82893D68801E147172700001307074A1C
:1031D00036971423BE9693070002958FFDE7939EC2
:1031E00008013387154113DF080193DE0E01854581
:1031F000935703013355E7033377E703B306D5034A
:103200004207D98F63FAD700C6971307F5FF63E427
:10321000170163E5D7263A85958F33D7E703420335
:1032200013530301B3F7E703B30ED703C207B3E7A2
:10323000670063FBD701C6979306F7FF63E51701A5
:10324000791763E3D70136874205598D828063E1A0
:10325000D504C16763E1F604B707000163E3F61E16
:1032600013D7860161489727000093872740BA97B4
:103270009823130E00024297330EEE40631A0E0C91
:1032800063EDB61C3335C5001345150081458280BA
:103290008145014582809307F00F63F3D71C13D754
:1032A00086002148C9B71307F00FC686E37E17F1E1
:1032B00093D68800A14709BF1307F00FB286E37BBE
:1032C000C7E493568600A147B1B5B398F80033D64A
:1032D000D50013DF0801335EE6033397F500B356DC
:1032E000D500558F939E080193DE0E013313F50030
:1032F00093550701B376E603B387CE03C206CD8E9E
:1033000063FBF600C6961306FEFF63E4161763F22E
:10331000F616791EC6969D8E33D6E60393170701DF
:10332000C183B3F6E6033385CE02139706015D8FA2
:10333000637BA70046979307F6FF636817136376CE
:10334000A7127916469793150E01098FD18D4DB5A9
:10335000B357E600B396C601DD8E33D3E50013DF25
:103360000601B357E303939E060193DE0E013398E3
:10337000C5013357E5003368070193580801331638
:10338000C6013373E303B385FE024203B36813013E
:1033900063FBB800B6981387F7FF63EAD80C63F8AD
:1033A000B80CF917B698B388B84033D7E803420889
:1033B00013580801B3F8E8033383EE02C208B3E5FB
:1033C000080163FB6500B6951308F7FF63EDD508A8
:1033D00063FB65087917B695C207416FD98F13074C
:1033E000FFFFB3F6E70093D80701718F4182B38ED8
:1033F000E602B3856540B386C60213D80E01338753
:10340000E802BA96C2963386C80263F3E6007A965B
:1034100093D80601469663E2C5026385C5003E85E2
:103420008145828041677D17F98EC206B3FEEE00AA
:103430003315C501F696E374D5FE1385F7FF814574
:10344000828013D70601414839BD93560601C14712
:10345000D1B193D60801C14785BB8145054582801E
:103460003687014809B5428785BF3E86E9BDBA87E0
:103470001DBF328E4DB579154698E5B97915C697B9
:1034800061BBB68732882A832E872E8E63910614FD
:1034900063F0C50A41676376E61A1307F00FB28638
:1034A0006375C70093568600A147172700001307CE
:1034B000E71B3697182393080002BA97B388F840A1
:1034C000638C0800B3951501B357F5003318160146
:1034D00033EEB7003313150113560801B357CE026C
:1034E00013150801418193560301337ECE02B307C1
:1034F000F502420E3367DE006378F700429763659A
:1035000007016373F70042971D8FB356C7029317E5
:103510000301C1833377C7023305D5024207D98F30
:1035200063EBA7083385A740335515018145828099
:1035300001E605473358C7024167636BE80EB707DA
:1035400000016364F82A93568801E14717270000B9
:103550001307C7113697182393080002BA97B38848
:10356000F840639A081E131E0801B38505411356DF
:103570000801135E0E0113570301B3D6C502B3F55C
:10358000C502B386C603C2054D8F6377D700429745
:1035900063640701636AD726158F3355C702420358
:1035A000135303013377C7023305C5034207B367DB
:1035B000670063F8A700C29763E5070163F3A700FC
:1035C000C2973385A74033551501814582802A88EB
:1035D000E3EFD5F4C16763E5F604B707000163E2E2
:1035E000F62013D38601E148972700009387070848
:1035F0009A9703CE070013030002469E3303C3418C
:103600006319030463E4B6006369C5003308C54069
:10361000958D333705013387E5404285BA85828031
:103620009307F00F63FBD71C13D38600A1486DBF2F
:103630001307F00FC286E37B07F193568800A1477A
:1036400031B7B70700016366F61A93568601E14762
:10365000A9BDB357C601B3966600DD8EB3D8C501C8
:1036600013D70601B3DEE802139F0601B357C50165
:10367000135F0F01B3956500DD8D13D80501331677
:10368000660033156500B3F8E802B307DF03C2082C
:1036900033E80801637BF80036989388FEFF636384
:1036A000D8166371F816F91E36983308F840B357E8
:1036B000E802C205C1813378E802330FFF02131715
:1036C00008014D8F637BE70136979385F7FF6369A8
:1036D000D7126377E713F9173697C20EC162B3EEBC
:1036E000FE001388F2FFB3F80E019355060193DE36
:1036F0000E0133780601B38F08033307E74133889F
:103700000E0393D70F01B388B802C298C697B38E41
:10371000BE0263F30701969E41687D1893D50701A9
:10372000B3F70701C207B3FF0F01F695FE97636277
:10373000B70A630EB708B307F5403335F500B30594
:10374000B740898D339EC50133D567003365AE0020
:10375000B3D5650082803318180133D7F5001356AE
:103760000801B356C702131E0801B357F500135ED4
:103770000E01B3951501DD8D93DE0501331315019F
:103780003377C702B307DE0293160701B3E6D6010B
:1037900063F8F600C29663E5060163F3F600C2968D
:1037A0009D8E33D7C60293970501C183B3F6C60237
:1037B0003307EE0293950601DD8D63F8E500C295AF
:1037C00063E5050163F3E500C295998D6DB3E3747C
:1037D000F5F63386C740B3B7C700B6979D8DB2875D
:1037E00099BF13D30601C14801B593560801C147DB
:1037F000B1BB93560601C1474DB936838148EDB33D
:10380000AE87E1BDC68E55B5429779B3397193D76E
:10381000450122DC4AD856D22A891394C50006DE17
:1038200026DA4ED652D45AD05ECE13F5F77F3180C9
:1038300093DAF501630B05109307F07F630BF51422
:10384000135AD9010E0433648A00370A8000336AA0
:103850004401131B3900930415C00144814B13D854
:1038600046011399C6001378F87FB2881359C9002E
:1038700093D9F601630E08089307F07F6300F804FC
:103880001357D6010E0933692701130818C0B7076B
:1038900080003367F90093183600B38404418145F2
:1038A000BD4733C83A0163E4871A9727000093871E
:1038B000E7D30A043E9410403E9602863367C9005F
:1038C000938414806312071013642400814889458F
:1038D000C1BF1306F07F81470147B207F25062541F
:1038E0005206B1837E08D18FB3E70701D254425903
:1038F000B259225A925A025BF24B3A85BE85216137
:10390000828001481306F07FB70708000147F1B72E
:103910003367C9004DC7630809304A8532C4EF10C8
:1039200000422246130755FFF547930685FF998FFE
:103930003319D900B357F60033E72701B318D6007F
:1039400026959304353F8145A1BF336A2401630363
:103950000A0636C632C46306042A2285EF10203ECA
:103960002246B246AA84130755FF754A138B84FF7B
:10397000330AEA4033146401335A4901336A8A0036
:10398000331B69011305D0C0B30495400144814B3A
:10399000F9B5336A240163180A002144014B9304EA
:1039A000F07F894B6DBD228A4A8B31449304F07FAE
:1039B0008D4B75B51144014B8144854B4DB5136456
:1039C000140081488545E9BD136434004A878D455C
:1039D000C1BD630A052E8547898F9306800363DD89
:1039E000F632014681470147CDBDCE868947638DBA
:1039F000F53A8D47E387F5F085473688E383F5FE92
:103A00001385F43FE357A0FC93F7780063960728EB
:103A100093D638009317770063D80700B70700FFE5
:103A2000FD177D8F138504409307E07FE3C3A7EA6A
:103A30001316D70193179700B1833367D600137617
:103A4000F57F61BDD6865287DA88DE8545B763612A
:103A50004723630DEA20DA86FD145284014B931745
:103A6000870013D388013363F300935E0301B357D8
:103A7000D403131F0301135F0F0193D50601139E97
:103A800088003374D4033307FF024204C18D63FB03
:103A9000E5009A951386F7FF63EE652663FCE5263D
:103AA000F9179A95998D33D7D503C206C182B3F51C
:103AB000D5033306EF02C205D58D63FBC5009A9589
:103AC0009306F7FF63E6652463F4C52479179A9596
:103AD000C20741645D8F9307F4FF3375F700935875
:103AE0000701935F0E01B377FE00B302F502B386C0
:103AF000C540B383F80293D502013386AF021E9608
:103B00002E963385F803637376002295C168FD18FD
:103B100093550601337616014206B3F81201AA95B1
:103B2000469663E6B6126382B6123306CB408D8E9C
:103B3000333BCB00338B66411385F43F630C631733
:103B4000B358DB0393550601337BDB03B3061F0336
:103B5000420B33EB6501637BDB001A9B9385F8FF17
:103B6000636D6B20637BDB20F9181A9B330BDB4002
:103B7000B356DB0342064182337BDB03330FDF02A4
:103B8000420B33666601637BE6011A969385F6FF66
:103B90006367661E6375E61FF9161A96C208B3E8D6
:103BA000D8009395080193D20801C181B38EF50224
:103BB0003306E641B385BF0293D60E01B387F20206
:103BC000BE95AE96B38F5F0263F4F600C167BE9FE9
:103BD000C165FD1593D70601ED8EC206B3FEBE008A
:103BE000BE9FF696637FF6091A969387F8FF63697E
:103BF000661A6368F619630FF61BBE8893E818000F
:103C000011B54A85EF10A01313075501F145930430
:103C100005022246B246E3DAE5D4130485FF331ADF
:103C20008900014B85B3328532C4EF104011130770
:103C30005501F146AA87224613050502E3D6E6CED2
:103C4000E1173317F6008148E5B9E370CBEE729BBC
:103C50003335CB011A95AA961305F7FF6378D30283
:103C600063E6B6106382D5102A87C1B5E3651BDF12
:103C700093551B009316FA0113541A00CD8E7E0B38
:103C8000F9BBE31DF6F7E38F06D6B9BFE31ED3FCFD
:103C9000E378CBFD2A8751BD93F7F8009146E3897D
:103CA000D7D693B7C8FF9386480093C717008D8275
:103CB0003E978DB381468547E34CA0FEFD58E31C3B
:103CC00005D0930410C085471385E441B316A700BF
:103CD00033D6F8003395A800D18E3335A000C98EB5
:103CE00013F676003357F70001CE93F7F60011462E
:103CF0006388C70093874600B3B6D7003697BE8661
:103D00009317870063D80704054681470147F1B63A
:103D100036877DBBB28779B3FD46E3D7F6FA055601
:103D2000098E930600023356C7006388D700938735
:103D3000E443B317F700B3E8F800B3361001D18EAF
:103D400013F67600814701CE93F7F600114601473E
:103D5000E392C7FA931797001316D701B18313D7CD
:103D60003600518F014695BEE370CBF0729B333520
:103D7000CB011A957917AA964DBBAE88C5BBAE8606
:103D800031BD93171E0033BEC70172931A96F918FE
:103D90003E8EE315F6E7E307DEC693E818009DB113
:103DA000BE88E30AF6FF99BD36881306F07F814787
:103DB000014725B6E367DEFCBE88E310DEFE99B15D
:103DC00013D74501B7071000FD1713D84601137725
:103DD000F77F9308F07F33FEB700AA8EF58FFD8141
:103DE000328F1378F87FFD82630E1703630D18017D
:103DF00029E3B368AE00631F08005D8E01EE014346
:103E0000638C080421A8B3E8C7000943639608043B
:103E10006DD305A0638408046385D50205438DCD69
:103E20007D531DA8B368AE00094363970802630A77
:103E3000E802631408005D8E75D2E391D5FEE34F6E
:103E4000E8FC63490701E3EBC7FD630FFE00014394
:103E50006374FE00F1D505431A858280EDFE7D5323
:103E6000E5BF5D8E79DACDBFE36ADFFB0143E3F5A1
:103E7000EEFFF5F175B739714AD813D945014ED621
:103E800052D456D29399C50006DE22DC26DA5AD0E7
:103E90005ECE1379F97F2A8A93D9C90093DAF501A6
:103EA000630D090E9307F07F6306F9181354D501CB
:103EB0008E09B36934013704800033E48900931418
:103EC0003500130919C08149814B13D74601139A54
:103ED000C6001377F77FB285135ACA0013DBF601C9
:103EE000630B07109307F07F6303F7049357D60122
:103EF0000E0A33EA4701130717C0B7078000B367FC
:103F0000FA00931536003A99814833C76A01BD46D5
:103F10003A851308190063E83617171600001306D0
:103F2000E6708A09B29983A60900B2968286B367C1
:103F3000CA001309F97F6399071293E929008145A3
:103F40008948E1B701479307F07F370408008144AF
:103F50003204D20731807E075D8C598CA285F250E5
:103F6000625426854259D254B259225A925A025B5F
:103F7000F24B216182805A853E84AE84C68B89478C
:103F8000638DFB0E8D47E38FFBFA85472A87639E7F
:103F9000FB3881470144814465BF33E4A90061C017
:103FA00036C632C4638C092A4E85EF00505922462A
:103FB000B246AA87130755FF7544938487FF198C6F
:103FC000B399990033548A0033643401B3149A00CE
:103FD00013D746011309D0C0139AC6001377F77F91
:103FE0003309F9408149814BB285135ACA0013DB6A
:103FF000F601E31907EEB367CA00B1C7630F0A22DF
:10400000528532C4EF00B05322462A87930655FFEB
:10401000F547930587FF958F331ABA00B357F6001B
:10402000B3E74701B315B6003309E9401309D9C016
:104030008148E1BD33E4A90001ECA14981441309A1
:10404000F07F894B59B593E919008145854875BDC5
:104050004E84AA84B1491309F07F8D4BBDB59149B7
:1040600081440149854B95B593E93900D2878D4844
:1040700069BD89475685E397FBF02A879307F07F50
:1040800001448144F1B5C16E1386FEFF93D604014D
:1040900013DE0501F18CF18D338695023383B60270
:1040A0009358060133059E021A95AA98B382C60357
:1040B00063F36800F692C16F1383FFFF33F5670067
:1040C00093D30701B3F76800C207337366003E93CA
:1040D0003306950293D80801B387A602135F060141
:1040E000B3849302BE94FA94B38E760263F3F40021
:1040F000FE9E416A9307FAFF935F0401B376F400D2
:10410000B3F9F4007D8EC1803384D502C209338FA8
:10411000D401B299CE98B307DE02935E0401B38551
:10412000BF02AE97BE9E330EFE0363F3BE00529EE7
:10413000C1679385F7FF33F6BE006D8C4206229669
:1041400093DE0E01B305D502769E3385AF0213D4FC
:104150000501B386D302AA96A296B38FF30363F345
:10416000A600BE9F41657D15B3F7A600C2076D8D01
:10417000AA97B3855800B3B93501FA97B29533843D
:10418000370133B6C500B30EC4013385CE003334D6
:104190003401B3B7E701C18F33BECE0113D406019A
:1041A0003336C5003E943366CE0093949500329426
:1041B0007E94B3E46400260493567501B3349000F2
:1041C000DD8193179500CD8C558CDD8C9317740091
:1041D00063DB070093D7140085889316F401DD8C08
:1041E000D58C058042899307F93F6359F00893F60F
:1041F000740081CE93F6F40011466388C60093865E
:104200004400B3B496002694B6849316740063D821
:104210000600B70700FFFD177D8C93070940930642
:10422000E07F63CFF60E93D634009314D4012604B6
:10423000D58C318093F7F77F21BB328532C4EF00F4
:10424000103093065501F147130705022246E3D1CA
:10425000D7DC6115B317A6008145F9B3EF00302E06
:1042600013075501F145930705022246B246E3D5EF
:10427000E5D461153314AA00814499BB85469D8E0F
:10428000B1E71309E941B3972401B3D4D40033193A
:104290002401B337F000B3649900DD8C93F7740008
:1042A000B356D40081CF93F7F40011466388C7005A
:1042B00093874400B3B49700A696BE849397860074
:1042C00063D8070485470144814459B1130680032C
:1042D000E341D6CC7D46E356D6FA0556B307F64001
:1042E000930500023356F4006387B6001309E943CF
:1042F000B3172401DD8CB3349000D18C93F6740095
:10430000014499CA93F7F40011468146E392C7FA33
:10431000139496003180F6068D80D58C81470DB9B7
:104320009307F07F0144814425B142896DBD370771
:1043300010007D1701113373B70093D84601758FB4
:10434000935ED60122CC26CA0E0393D4450193571F
:10435000D5010E0706CE4AC84EC693F8F87F130E55
:10436000F07F33E7EE0093F4F47F13D4F50133E3E9
:104370006700131F3500FD82931E36006380C81945
:1043800093C61600B38514416305D4126351B01867
:10439000638B081AB70780005D8F6380C459930749
:1043A000800363C3B734FD4763C4B7489307000273
:1043B0008D8FB3D9BE003318F700B39EFE0033686B
:1043C00038013357B700B339D001336838013303AC
:1043D000E340B3090F41B3373F013306F34093176E
:1043E000860063D30724370980007D1933792601BD
:1043F000630F092C4A85EF009014130785FF93077C
:104400000002998FB3D7F9003316E900D18FB39921
:10441000E9006344972A058F13061700FD4663C41D
:10442000C63A13070002118FB3D6C9003398E900CA
:104430003397E700558F33380001B369070133D64E
:10444000C700814493F7790081CF93F6F900914733
:104450006388F6009386490033B836014296B689E0
:104460009317860063D6071C138714009307F07F09
:1044700005886306F720B70780FFFD17F18F1398B3
:10448000D70193D93900A60733683801B183137770
:10449000F77F9396C7005207B1827E04D98EC18EF2
:1044A000F2406244D2444249B2494285B685056130
:1044B00082806356B00A638A0812B70780005D8F56
:1044C0006386C42D9307800363C7B718FD4763D184
:1044D000B73C138805FE93070002B3590701638AAE
:1044E000F50093070004B385B7403317B700B3EE68
:1044F000EE003338D0013368380195A2B367D70195
:104500009385148099E393C61600630AD404D1E11D
:104510009387140093F7E77F6398071EB367E3015F
:104520003368D701639204166381073C6315084220
:10453000131835009316D3011358380033E80601D9
:104540009357330019A2B367D7016384071A93877F
:10455000F5FF638A073A638BC523BE8589B56398E7
:10456000051C9386140093F7E67FC1EFB367E30160
:10457000639F0434638C0744B367D7016393074692
:104580000E051318D3010D813368A800935733002B
:104590006DA8B385984063960420B367E301638CEC
:1045A00007309387F5FF638807401305F07F638228
:1045B000A520BE859307800363C1B72AFD4763C763
:1045C000B73C930700028D8F3318F3003356BF00BA
:1045D000B317FF003368C800B339F0003353B3009A
:1045E0003368380133076740ADACB367D7016382E6
:1045F00007109387F5FF638E071E638FC52DBE8559
:10460000D1B59307F07F638BF606FA9E33B6EE01C1
:10461000B307E300B2971398F70193DE1E00B36966
:10462000D80113D61700B68493F77900E39F07E00B
:104630009317D60113D839003368F800A68593572D
:1046400036001307F07F6380E506B207B18313F7E6
:10465000F57F05883DBD3367D7013338E000B309E6
:10466000E801B3B7E9013386670093178600E3DDFD
:1046700007FA85049307F07F639BF41805881307F6
:10468000F07F8147014831B5639007106300083C13
:10469000131836009317D701135838003368F80001
:1046A000368493573700B367F800E9DB01441307FA
:1046B000F07FB70708000148E9BB370680FF7D1689
:1046C0007D8E93F77900998CE39107D895B74E8545
:1046D000BD2513078501FD47E3D3E7D2130685FF08
:1046E000B397C900814935B33368D7013338000126
:1046F000CDB1131835009317D30113583800336820
:10470000F8009357330035BFB309DF413309E34065
:1047100033363F013309C9409317890063CA072024
:1047200033E82901E31608CC8147014439BFB3853A
:10473000984063810414B70680009307F07F3363C9
:10474000D3006381F8209307800363CCB722FD4731
:1047500063C9B72C930700028D8F3318F300B3564B
:10476000BF00B317FF003368D800B339F0003353EC
:10477000B300336838011A97B309D801B3B7D90128
:104780003386E700C684D5B5E31208F21318350066
:104790009317D301135838003368F8009357330048
:1047A00019B7370580009307F07F3363A300E393C5
:1047B000F8E00E061318D7010D823368C80093572E
:1047C00037003684CDB505179306000233D7E700CE
:1047D000630AD600930600043386C6403396C700AA
:1047E000B3E9C90033383001B369E80001468144B8
:1047F00025BDB309DF01B307E30033BFE901338609
:10480000E701931786008544E3D007E28944B707A0
:1048100080FFFD17F18F13D7190013F819003368C3
:1048200007019399F701B3E9090113D6170019B9E4
:10483000138805FE93070002B3590701638AF50048
:1048400093070004B385B7403317B700B3EEEE000B
:104850003338D00133683801ADBE3363E3013338F8
:104860006000B3890E41B3B73E013306F740C684FA
:104870003684B5B6B367E301638707189387F5FFFE
:10488000638C071C9306F07F638ED50ABE8565BDD9
:10489000930700028D8FB3D9BE003318F700B39E83
:1048A000FE00336838013357B700B339D00133689D
:1048B00038013A936DB3131836009317D701135884
:1048C000380033E807013684935737009DBBBDCBD2
:1048D0003367D701E31C07DC0E051318D3010D81E4
:1048E0003368A800935733007DBBE30F08E2131829
:1048F00036009317D701135838003368F800368410
:104900009357370099B3B309DF41B307E340333F0F
:104910003F013386E7418544D9B413183500931617
:10492000D3011358380033E8060193573300A5BB71
:10493000B389EE413306674033B93E01330926415E
:1049400036847DB40E061318D7010D823368C80073
:104950009357370089BBB309DF41B307E3403336D0
:104960003F013386C7409317860063D7070AB38990
:10497000EE41B3076740B3BE3E013386D74136846C
:10498000D1B43363E30133386000FDB3138805FE0F
:1049900093070002B3590301638AF50093070004EB
:1049A000B385B7403313B300336F6F003338E00182
:1049B000336838017DB5B389EE41B3076740B3BEB4
:1049C0003E013386D7413684854411BC1318360026
:1049D0009317D701135838003368F80093573700FE
:1049E000ADB1B309DF01B307E30033BFE90133869B
:1049F000E70193178600E3D907C2B70780FFFD17C9
:104A00007D8E854415B10E061318D7010D823368CB
:104A1000C8009357370035B133E8C900E30608D022
:104A200021B1138805FE93070002B3590301638A7D
:104A3000F50093070004B385B7403313B300336F19
:104A40006F003338E001336838013DB30144130788
:104A5000F07FB707080035BCB309DF01B307E300F7
:104A6000B3BED9013386D70169BB15CD411122C42C
:104A700006C62A84E9249306E041898EA94793F665
:104A8000F67F63DCA7025515B317A400B207B18304
:104A90000147B2402244B207D206B183D58F3A858E
:104AA000BE854101828081478146B207D206B1832B
:104AB0000147D58F3A85BE8582802D47098FB35730
:104AC000E400B207130755013317E400B183D1B7EF
:104AD0003707100093D745019306F7FF93F7F77F49
:104AE0001308E03FED8E13D6F5016353F8029305EA
:104AF000D04363D2F5028545918D3305B04013D67E
:104B0000F541B7050080B337A000918D9D8D82805F
:104B100001458145828013082043B3E5E6006354D4
:104B2000F8021387D7BA9387D7BC63450704B31538
:104B3000E500014565D23305A040B337A000B305B9
:104B4000B0409D8D8280930630439D8E7D47634C9F
:104B5000D7001387D7BE3397E5003355D500598D5D
:104B6000B3D5D500C1BF130530411D8D33D5A50088
:104B70008145C9B7FD46135715009D8E3357D700A1
:104B8000B395F500D98D3315F5006DB7011106CE3B
:104B900022CC26CA4AC84EC6B367B50095CFAE84AC
:104BA000AA8913D9F50163CD05042684A5C42685F9
:104BB00079229306E043898E9307304363C9D7086F
:104BC0009397C4002D464E8793F6F67FB1836359C1
:104BD000A600130655FFB1A8014981468147014748
:104BE000B207F2406244D206B1837E09D58FB3E7A3
:104BF0002701D2444249B2493A85BE850561828087
:104C00003305A040B336A000B304B040958CAA8908
:104C10002684D1FC4E8525222A869306E04313057F
:104C20000502898E9307A00293F6F67F63C7A70C4F
:104C300055061307B002098FB397C40033D7E900B4
:104C40005D8F9317C700B1833397C90051BF930796
:104C5000604363DBD7022147098F930507FE63C2D8
:104C6000050CB3D5B40001471306850193078503EE
:104C7000634C06083396C9008149B3E9C90033364D
:104C80003001B3E9C5003A84A1474E8663C9A70441
:104C9000B70780FFFD17937576003377F40085C55D
:104CA0009375F6001148638005039305460033B6FB
:104CB000C500329713168700635106089306F04328
:104CC0007D8F898E2E861355360093179700131605
:104CD000D7013367A600B18393F6F67F11B7930728
:104CE0008002930585FF898FB3D7F9003317B4008D
:104CF00033E4E7003396B90061BF5516B397C90096
:104D0000B207B1830147E9BD7D4613D819001D8E56
:104D10003358C8003396F4003366C800B399F900DD
:104D2000A9BF7D46198E93971400B3D5E900B397B8
:104D3000C700DD8D33D7E40005BF2E8669B7C16794
:104D4000637CF5029307F00F1307000263EBA700E3
:104D50009717000093878791AA9788233305A74068
:104D6000828021819717000093874790AA97882314
:104D700061473305A7408280B7070001636DF500E6
:104D80006181971700009387678EAA978823214730
:104D90003305A74082804181971700009387078DD4
:104DA000AA97882341473305A74082809387418291
:104DB000AA8588438DA293874182AA85884355A8F6
:104DC000B3C7A5008D8B3307C50081E78D4763ED21
:104DD000C700AA87637EE508942185078505A38F10
:104DE000D7FEE3EBE7FE828093763500AA8789CA77
:104DF000942185078505A38FD7FE93F63700C5BF9D
:104E00009376C7FF138606FE63F0C70683A30500EB
:104E100083A2450083AF850003AFC50083AE0501C3
:104E200003AE450103A3850183A8C501938545020F
:104E300023A0770003A8C5FF23A2570023A4F701EE
:104E400023A6E70123A8D70123AAC70123AC670043
:104E500023AE17019387470223AE07FF75B7904132
:104E60009107910523AEC7FEE3EBD7FEE3E6E7F635
:104E70008280CDC183A7C5FF411122C406C626C2C8
:104E80001384C5FF63D307003E94AA8469229387E5
:104E900081869C4399EB2322040023A4818622442B
:104EA000B24026859244410185AA637EF4001440F5
:104EB0003307D4006396E7009843DC43369718C065
:104EC0005CC0E1BFBA87D84319C3E37DE4FE9443D5
:104ED0003386D700631F86001040B29694C3338692
:104EE000D700E31EC7FA10435843B29694C3D8C301
:104EF0007DB76375C400B1479CC055B71040B30679
:104F0000C4006316D70014435843B29614C058C067
:104F1000C0C371B78280011126CA93843500F1980D
:104F200006CE22CC4AC84EC6A104B14763F1F404B0
:104F3000B14463E0B4042A89F928938781869843B1
:104F40003A8431E09387C1869C4391E781454A8545
:104F5000512823A6A186A6854A856920FD59631795
:104F60003507B1472320F9004A857D2029A0E3D2E7
:104F700004FCB1471CC10145F2406244D24442499D
:104F8000B249056182801C40858F63CE0702AD4621
:104F900063F6F6001CC03E9404C031A05C4063126E
:104FA000870223A4F1864A8585281305B400930758
:104FB000440061993307F54061D33A94898F1CC04E
:104FC00065BF5CC3CDB722874040A5BF1304350041
:104FD0007198E30385FCB305A4404A852120E31DB5
:104FE00035FB41B7411122C42A842E8597C7FF1F84
:104FF00023A2077206C6EFD0BF8BFD576319F500D9
:1050000097C7FF1F938707719C4391C31CC0B24091
:1050100022444101828082808280000000000000E2
:1050200085EB51B81E85D33F00000000000004400E
:10503000FCA9F1D24D62503F000000000000264064
:10504000000000000000F43F0000000000408F401E
:105050004932433120696E69742E2E2E0D000000F6
:10506000493243312072656164790D00494E413205
:1050700032365B25645D20307825303258204F4B26
:105080000D0A0000494E413232365B25645D203006
:105090007825303258204641494C282564290D0A8C
:1050A00000000000696E613232365B305D2773208C
:1050B0002564200D0A000000646163206F75747020
:1050C00075742069732025640D0A00000D0A3D3DAA
:1050D0003D20456C656374726F6E6963204C6F612F
:1050E0006420436F6E74726F6C6C6572203D3D3D41
:1050F0000D00000053797374656D436C6B3A256441
:105100000D0A00004368697049443A253038780D2B
:105110000A0000005553422D43444320656E756DCF
:105120006572617465640D005553422D43444320FC
:1051300074696D656F75742C20636F6E74696E751C
:10514000696E670D00000000696E613232365B30B7
:105150005D2773206275735F7620697320252E3278
:105160006656202C207368756E745F7620697320F4
:10517000252E32666D562C2063757272656E742012
:10518000697320252E31666D41200D0A0000000054
:10519000696E613232365B315D2773206275735FF1
:1051A0007620697320252E326656202C2073687570
:1051B0006E745F7620697320252E32666D562C2022
:1051C00063757272656E7420697320252E31666D69
:1051D00041200D0A00000000696E613232365B32F8
:1051E0005D2773206275735F7620697320252E32E8
:1051F0006656202C207368756E745F762069732064
:10520000252E32666D562C2063757272656E742081
:10521000697320252E31666D41200D0A00000000C3
:10522000696E613232365B335D2773206275735F5E
:105230007620697320252E326656202C20736875DF
:105240006E745F7620697320252E32666D562C2091
:1052500063757272656E7420697320252E31666DD8
:1052600041200D0A000000004C1B0000421A000003
:10527000DC180000B21A0000DC180000D41900008D
:1052800034190000DC1800001A1A0000301A00005F
:10529000461B0000DE1900004441433835373120F9
:1052A000696E69743A20616464723D3078253032E9
:1052B000582C205352313D307825303458205352E9
:1052C000323D3078253034582043544C52313D30F3
:1052D00078253034582043544C52323D30782530B4
:1052E000345820434B434647523D3078253034589C
:1052F0000D0A00004441433835373120696E697426
:105300003A205243435F415042313D307825303896
:105310005820415042323D3078253038582053795A
:1053200073436C6B3D25640D0A0000004441433813
:1053300035373120696E69743A204F4B0D000000FB
:105340004441433835373120696E69743A2046410B
:10535000494C20282564292C205352313D30782592
:10536000303458205352323D3078253034580D0AAD
:10537000000000004932433120726561642065728B
:10538000726F720D000000004932433A20424552CC
:105390005220617420737465702025640D0A00002A
:1053A0004932433A2041524C4F2061742073746556
:1053B000702025640D0A00004932433A20542F4FD3
:1053C00020737465702025642C205352313D307851
:1053D00025303458205352323D3078253034580D22
:1053E0000A0000004932433A204255535920737451
:1053F00075636B2C205352313D3078253034582062
:105400005352323D3078253034580D0A00000000E8
:105410004932433A205354415254207374696C6C9E
:10542000207365742061667465722064656C6179AF
:105430002C2043544C52313D307825303458205381
:1054400052313D3078253034580D0A004932433A04
:1054500020545845206E6F74207365742062656611
:105460006F726520646174615B25645D2C2053520A
:10547000313D3078253034580D0A000063616C5698
:10548000616C75653A2564200D0A00000D0A3D3DEA
:105490003D20555341525431204F4B202831313556
:1054A0003230302C384E3129203D3D3D0D0A000070
:1054B0002530386C5800000050726F746F636F6C49
:1054C00020696E69743A205553415254312031316C
:1054D0003532303020384E3120286E6F20706172A6
:1054E000697479292C2072696E6720627566666519
:1054F000722025642062797465730D0A0000000033
:10550000634A534F4E206172656E613A20256420D4
:105510006279746573206174203078253038582C96
:1055200020636869702049443A2025730D0A000001
:105530005553422D43444320696E697469616C6917
:105540007A65640D0000000009024300020100803A
:1055500032090400000102020100052400100105C7
:10556000240100010424020205240600010705812C
:105570000340000109040100020A000000070502BF
:1055800002400000070583024000000012011001E4
:1055900002000040861A0CFE01000102000100001A
:1055A0000E037700630068002E0063006E000000A9
:1055B000160355005300420020005300650072009E
:1055C000690061006C0000001603300031003200F9
:1055D0003300340035003600370038003900000051
:1055E000286E756C6C29000066E4FFFFEAE2FFFF9D
:1055F000FAE3FFFF02E4FFFFFAE3FFFF1AE3FFFF16
:10560000FAE3FFFF02E4FFFFEAE2FFFFEAE2FFFF47
:105610001AE3FFFF02E4FFFF5CE4FFFF5CE4FFFF2F
:105620005CE4FFFF1AE3FFFF5EEAFFFF50E9FFFFC4
:1056300050E9FFFF4EE9FFFF56E9FFFF56E9FFFF84
:105640001CE9FFFF4EE9FFFF56E9FFFF1CE9FFFFE2
:1056500056E9FFFF4EE9FFFF4AEAFFFF4AEAFFFF74
:105660004AEAFFFF1CE9FFFF0001020203030303F4
:1056700004040404040404040505050505050505E2
:1056800005050505050505050606060606060606C2
:1056900006060606060606060606060606060606AA
:1056A0000606060606060606070707070707070792
:1056B000070707070707070707070707070707077A
:1056C000070707070707070707070707070707076A
:1056D000070707070707070707070707070707075A
:1056E0000707070707070707080808080808080842
:1056F000080808080808080808080808080808082A
:105700000808080808080808080808080808080819
:105710000808080808080808080808080808080809
:1057200008080808080808080808080808080808F9
:1057300008080808080808080808080808080808E9
:1057400008080808080808080808080808080808D9
:1057500008080808080808080808080808080808C9
:08576000080808080808080801
:105768000000000000000000010203040607080909
:1057780000000000010203040102030406070809EF
:105788003030303030303030000000000000000091
:105798000000000000000000000000000000000001
:1057A80000000000000000000000000000000000F1
:1057B80000000000000000000000000000000000E1
:1057C80000000000000000000000000000000000D1
:1057D80000000000000000000000000000000000C1
:1057E80000000000000000000000000000000000B1
:1057F800400041014202430300D8B80502040608EC
:10580800B64D0000AC4D000000C2010000000800C9
:10581800141700202C0000200403090400000000D5
:00000001FF
