:040000006F0070011C
:100004000000000000000000C8020000CA02000056
:1000140000000000140800000000000000000000C0
:100024001408000014080000000000000000000094
:100034001408000000000000140800000000000084
:10004400140800001408000014080000140800003C
:10005400140800001408000014080000140800002C
:100064001408000014080000DA020000140800005C
:1000740014080000140800001408000050040000D4
:1000840014080000140800001408000014080000FC
:1000940014080000140800001408000014080000EC
:1000A40014080000140800001408000014080000DC
:1000B400140800007C040000140800001408000068
:1000C40014080000140800001408000014080000BC
:1000D400140800001408000088030000140800003D
:1000E40014080000140800000000000014080000B8
:1000F400140800001408000014080000140800008C
:100104000000000014080000140800001408000097
:10011400140800001408000014080000140800006B
:10012400140800001408000014080000140800005B
:10013400140800000000000000000000000000009F
:100144000000000000000000000000003C1100005E
:10015400000000000000000000000000140800007F
:10016400140800001408000014080000140800001B
:10017400140800001408000014080000140800000B
:1001840014080000140800001408000014080000FB
:1001940014080000140800001408000014080000EB
:1001A400000000000000000000000000000000004B
:0C01B4000000000000000000000000003F
:1001C000397101436EC619A0397141536AC866CAB4
:1001D00062CC5ECE19A0397101535AD056D252D496
:1001E0004ED64AD826DA22DC06DE3301614082820E
:1001F00041114AC026C222C406C68282B24D4101C4
:10020000024D924C224CB24B4101024B924A224A7F
:10021000B2494101024992442244B24041018280E4
:100220003D432A876373C3029377F700BDEFADE5C3
:10023000937606FF3D8ABA960CC34CC30CC74CC7D5
:100240004107E36BD7FE11E28280B306C3408A0602
:100250009702000096966780A6002307B700A306C2
:10026000B7002306B700A305B7002305B700A30412
:10027000B7002304B700A303B7002303B700A3020A
:10028000B7002302B700A301B7002301B700A30002
:10029000B7002300B700828093F5F50F9396850091
:1002A000D58D93960501D58D61B79396270097025A
:1002B000000096968682E78086FA9680C1171D8F89
:1002C0003E96E374C3F8A5B701A0B707EFBE37E7C2
:1002D00000E0938707083CC701A0797122D64AD273
:1002E0003709002026D44ED052CE56CC9387818237
:1002F0009304090023900700138A840013848182E9
:1003000093090900854A9305E1002685231701001A
:10031000EF10101C09ED8317E10063DA07009C3031
:100320001A20B397FA00D98FC207C1831EA089048F
:10033000E39B44FD9304800873B004800F10000019
:100340000145EF10E03D73A0048005472385E1825D
:100350000E2003C8690003D6C18203C7290083C7E2
:100360004900834609003735000013050572EF1078
:10037000906B41452D253254A25412598259724A2C
:10038000E24A456173002030411122C637440040E3
:100390009305000213050440EF0010390DC1130549
:1003A0000440EF00F03783D7E18603D7A1868507A5
:1003B00093F7F71F6391E70805472386E1863744E3
:1003C0000040854513050440EF00103609CD83C772
:1003D000D186854513050440850793F7F70FA3865B
:1003E000F186EF001035374400408945130504407D
:1003F000EF00903309CD83C78186894513050440FA
:10040000850793F7F70F2384F186EF009032374486
:100410000040A14513050440EF00103109C905470C
:10042000A145130504402386E186EF009030324455
:1004300041017300203003D6E186371700201307EF
:1004400007211375F50F329708A32397F18685BF0F
:1004500037050200F1210DC137050200F9213705EA
:1004600002408145130585059921814537050040E6
:10047000EF00F0182388018673002030411122C656
:100480003704004091451305044026C4EF00F018DE
:1004900005C913050440EF001018AA8491451305FF
:1004A0000440EF00101983A78185B387F44023AE81
:1004B000F18423AC918405472381E1862390018652
:1004C0003244A244410173002030EFF2FFCF01110A
:1004D0000945EF00C07A7524EF10501B71651305B4
:1004E0000520EF101024B704002083A50409373439
:1004F000000013050476EF1010536D26AA853735DA
:10050000000013050577EF10105237350000130572
:100510000578EF109062373500001305057AEF106B
:10052000D061EF100056373500001305057CEF1041
:10053000D0603735000095451305457DEF10B04E6E
:10054000C1477C8237150140930780043EC64C00AA
:100550008D47130505803EC42313010002C802CA5B
:1005600002CC02CE912191450145092BC147054995
:100570003EC80808B1473ECC4ACE02CA652EB7E74E
:1005800000E0238D2741370700043735000023A002
:10059000E7101305857FEF10505A3745000013050B
:1005A0008582EF109059EF101006374500001305B3
:1005B0004584EF1090589309501F528983C7E183F7
:1005C00093F7F70F81E7FD19639F090A83C7E1835A
:1005D00093F7F70FCDCF3745000013050587EF10D0
:1005E000D055EF10807383A5040913050476EF102E
:1005F0005003AA85374500001305458CEF10B04223
:10060000374500001305458FEF10B001AA85374527
:10061000000013054590EF10104193870184AC331F
:1006200003C6E1833745000013050593EF10B03F83
:1006300013840184254AB74A0000374B0000138712
:10064000418383A501831C43938B0183B387F540CA
:100650006371FA021385CA950CC3EF10807CAA85DA
:1006600063590500303083C6E18313058B97EF1083
:10067000903B13054006EF10700783A70B0085071A
:1006800023A0FB006DBF2945EF10500605BF37457D
:1006900000001305C588A1B7B71702409843B706F5
:1006A000FFF041111367170098C3D84337060200C3
:1006B000758FD8C39843B706F7FEFD16758F98C39C
:1006C0009843B706FCFFFD16758F98C3D843B7064D
:1006D00001FFFD16758FD8C337079F0098C702C466
:1006E00002C69843C166558F98C3B7160240056786
:1006F0009C42F18F3EC6A24785073EC4B24781E7C0
:10070000A247E397E7FEB71702409C431397E70021
:100710006357070685473EC632478547631FF70480
:10072000B7170240D843B706C1FFFD16D8C3D84358
:10073000D8C3D84313670740D8C3D843758FD8C3ED
:10074000D843B7062900558FD8C39843B706000190
:10075000558F98C3984393166700E3DD06FED84390
:10076000B7160240719BD8C3D84313672700D8C37C
:100770002147DC42B18BE39EE7FE4101828002C645
:1007800061BFB7160240DC42370700201146B18B2B
:10079000130707096385C70021466388C702B71797
:1007A0007A00938707201CC3B7170240DC4391836C
:1007B00093F6F700B70700209387C700B6979423F6
:1007C0001C43B3D7D7001CC38280DC42D4424166AD
:1007D000C983BD8BF18E890745466393C700C9471E
:1007E00081EEB746024083A60680C18A89CEB7163D
:1007F0007A009386062021A8B7160240D4421396A9
:10080000E600E35606FEB7163D0093860690B387D2
:10081000D70251BF01A0970100209381A107177152
:1008200000201301217E173500001305653797F569
:10083000FF1F9385257D1386818263FAC50083227D
:10084000050023A0550011059105E3EAC5FE1385B7
:10085000818297150020938525BC6377B5002320FE
:1008600005001105E36DB5FEFD42739002BCAD427B
:1008700073904280B76200009382820873900230C6
:1008800097F2FFFF9382427893E2320073905230E6
:10089000EFF09FE097020000938262C373901234DE
:1008A00073002030B7F7FF1F03A5477082801C41FB
:1008B00089C593E717001CC1828041677917F98FBA
:1008C000DDBF9317350063DA0700B707024083A73F
:1008D00007407D8D3335A00082809317250063D7B4
:1008E0000700B707024083A7074DE5B7B7070240E7
:1008F0009C43C5B79317350063D70700B70702407D
:1009000023A2A74082809317250063D70700B7076B
:10091000024023AAA74C8280B7070240C8C3828046
:10092000EFF21F8D793F6FF0FF8EEFF27F8CD9379A
:100930006FF05F8E5841032805004C453706014093
:10094000930706403E979346F8FFB1C583250640BE
:10095000F58D2320B640D043F18ED4C31443B3E6C3
:10096000060114C3184190479346F7FF758E90C750
:10097000D047F18ED4C7144541466399C6009447C9
:10098000D98E94C7D447558FD8C78280B6979443E1
:10099000558F98C382801C43F58F1CC38280B70794
:1009A000014023AAA74082809C4513F7070113F852
:1009B000F70001C7D8413368E8008E2113F7F50F1F
:1009C00039C318418146854E3D4F930F80029302F3
:1009D0008004214E3396DE00B3F8C5006311160380
:1009E0009398260033131F011343F3FF3377E3007B
:1009F000B318180133E7E800639FF70550C985066F
:100A0000E39AC6FD18C11307F00F6375B70454418C
:100A10002146854E3D4F930F800293028004414E44
:100A2000B398CE0033F715016392E802131726003E
:100A300001173313EF001343F3FFB376D3003317DB
:100A4000E800D98E639DF701232A15010506E319F5
:100A5000C6FD54C18280E39457FA10C94DB7E3979D
:100A600057FE23281501DDB708456D8D3335A000ED
:100A7000828019C20CC982804CC9828013F7C50FCD
:100A800093F73500B7050140BA9594458A073D476D
:100A90003317F7001347F7FF758F98C5984533153F
:100AA000F500598D88C58280EFF28FF47971462167
:100AB0002A8468082EC6F922925737470F00130779
:100AC000072433D7E702C204C18093F404FCC204B4
:100AD0009306C003C180B24563F4E6001307C00368
:100AE000131607014182D18C46A0162061651305BB
:100AF000056AC206C182F99AC206C18216A0944153
:100B00006369D5048606B3D7D702914613970701C8
:100B10004183BA876373D700914705064206C2072F
:100B20004182C18312B05EAC1E20DA21B62593E764
:100B300017001EA01E20558FC207C18393F757BF11
:100B4000D98F1EA09A25DE25D98F1EA445616FF08E
:100B50006FECEA2131667D16631DC5020D46B38632
:100B6000C602B3D7D702C207C1839396470199E261
:100B700093E71700A166D58F9306C0123307D702FB
:100B80009306803E3347D7020507420741831AB0D8
:100B900059BF6546B386C602B3D7D7029166C2076E
:100BA000C183D58FD9B71E2189C593E717001EA130
:100BB0008280C207C183F99BC207C183CDBF1E21BA
:100BC00089C593E707101EA18280C207C18393F7EE
:100BD000F7EFC207C183C5BF1E2189C593E7072070
:100BE0001EA18280C207C18393F7F7DFC207C183CA
:100BF000C5BF1E2189C593E707401EA18280C20799
:100C0000C18393F7F7BFC207C183C5BF0EA9828016
:100C10000A291375F50F828093F7E50F19C293E740
:100C20001500C207C1831EA982805E290A2D4205D4
:100C30005D8D6D8D220521810D8D1335150082800E
:100C4000411102C402C693D7C5012AC63EC4A247B9
:100C5000A205A18199CBB247D1073EC6B2478843CE
:100C600041016D8D3335A0008280B247C181E1071B
:100C7000EDB793C5F5FFC205C1814EA9828023ACB3
:100C8000A1828280371702405C439146B18B638515
:100C9000D700A1466382D706B7177A00938707204B
:100CA0001CC1371602405C42370700201307C701FA
:100CB0009183BD8BBA9794231C41B3D7D7005CC1F5
:100CC0005442A1829D8ABA969422B3D6D70014C505
:100CD0005442AD829D8A36971823B3D7E7005CC58E
:100CE000584239839376370013874180369718230B
:100CF000B3D7E7021CC982805C4354434167C98370
:100D0000F98E37F7FF1F0327C770BD8B89071316AE
:100D1000170163480600454601476392C702C94769
:100D200039A809476389E7023D476388E7024147DD
:100D30006388E702454601476393C700C14785E6DC
:100D4000B746024083A60680C18A8DC6B7167A00D0
:100D50009386062025A00147D9B70547B547C5B7F3
:100D60000147BD47E9BFB7160240D4421396E600DB
:100D7000E35E06FCB7163D0093860690B387D70264
:100D80001CC105D31C41858321BF99C5371702407B
:100D90005C4B5D8D48CB8280B7170240D84B134522
:100DA000F5FF798DC8CB828099C5371702401C4F5B
:100DB0005D8D08CF8280B7170240984F1345F5FF2D
:100DC000798D88CF828099C5371702405C4F5D8D41
:100DD00048CF8280B7170240D84F1345F5FF798D71
:100DE000C8CF8280B7170240D843B70640FFFD1630
:100DF000758FD8C3D8435A05598DC8C382801E2128
:100E000089C593E717001EA18280C207C183F99BA1
:100E1000C207C183CDBF0A3D82801E294A25ED8FBE
:100E20004205418189C76D8D3335A000828001451F
:100E3000828093C5F5FFC205C1810EA98280EFF2C1
:100E40002FBB1629F577FD17F58FF621DA25797175
:100E5000D58F1EA95625FD779387379FF58FD6210D
:100E60002A842EC6D58F9625D58FB625D58F5EA51B
:100E70005E29C207C18393F7F7CFD98F5EA96808AF
:100E80001135B747014093870780B245631EF402CE
:100E9000A2576547B387E7029841930640060A07C1
:100EA000B3D7E70233D7D702B3F7D70212079207B7
:100EB00093872703B3D7D702BD8BD98FC207C183CE
:100EC0001EA445616FF00FB59257E1B791C55E253D
:100ED0000967D98F5EA582805A25F977FD17F98FAA
:100EE000D5BF13F7F50F85471583B395B700631981
:100EF000F7009307C500984301CED98D8CC382803B
:100F0000894693074501E318D7FE93070501E5B726
:100F100093C5F5FFF98DDDB793F5F51F4EA18280DE
:100F20004A211375F51F82800A216D8D3335A0008B
:100F3000828093C5F5FFC205C1810EA1828019C5CB
:100F4000184123A6E180584123A4E1808280EFF27A
:100F50002FAAB707002003A70709B747950893876B
:100F6000074009456300F702B7E7B8059387078094
:100F700005456309F700B777DC02938707C0631460
:100F8000F700014585358545056501356FF08FA86A
:100F9000B707005013070004D8A713078004D8B779
:100FA0001387018898CB1387018CD8CB13870190C6
:100FB00098CF13870194D8CFA3890702A38D070286
:100FC000239A0702239E070209472389E702238BFE
:100FD000E702238FE7029387018423800700A38021
:100FE000070023810700A381070023820700A38253
:100FF000070023830700A38307008280EFF24F9F3F
:101000003704005099471CA01DC52945EF00B06A60
:101010009D47230004003CA0930790021CA08D3F35
:10102000930710F81CB037070800B7E700E023A4C7
:10103000E7106FF02F9E2945EF00F067B7E700E05B
:10104000230004003707080023A4E7180F1000004E
:10105000CDB79307F5FF93F7F70F1948636DF80CB9
:10106000EFF26F9793870184AA979C23938401845E
:10107000054793F7F70FCDEB85476305F50011475B
:10108000631CE500B7070050DC27054793F7F70F0F
:10109000631EE50291831DA81307E5FF1377F70F81
:1010A00063E9E700B7070050DC370D4793F7F70F08
:1010B000C5B71307B5FF1377F70F63E0E704B7076A
:1010C0000050FC2793F7F70FE30605FD13F84700E0
:1010D0000147630B08043704001411042A94A18B00
:1010E000B2892A890A0485C30840B707002093877C
:1010F00007043E95EF00507019A8B7070050FC3761
:1011000093F7F70FE1B785E6C205C1810CC08547AB
:10111000338524011CA12310340383472402014793
:1011200093F7C70F2301F4023A856FF00F8E084042
:10113000B70700207DBF05473A858280011122CE86
:1011400026CC4ACA4EC852C656C43704005078202E
:101150007C301377F70F937627006387065693F753
:10116000F70F13F70703930500026309B70293060D
:1011700000036302D71861EB13F7F7036308071244
:1011800089476312F70C8347B40393C74700A30D45
:10119000F402938701842381070075A093F7F70376
:1011A00093061002638ED70A93063002638DD70C24
:1011B000639BE7089387C1849E239384C184C207FD
:1011C000C18381E79147A309F40283C7E18493F7C0
:1011D0000706B5EB83C78184154793F7F70F638B39
:1011E000E70419476391E7069E201307F0031304F1
:1011F00000046365F7008220420441801389418521
:10120000832909002286CE8513850188EF00D05EF0
:101210009E20A29923203901818FC207C1839EA0FD
:10122000B707005082BB03C7270313474700238932
:10123000E70211A8370700503C3383C6C18393F7F8
:101240000708D58F3CB3B70700500947F8A372448D
:10125000E2445249C249324AA24A05617300203031
:101260008347640393C74700230BF4028347640357
:1012700093F7C70F93E72700230BF40293870184AA
:10128000A3800700C9B78347E40393C74700230F30
:10129000F4028347E40393F7C70F93E72700230F74
:1012A000F40293870184A381070071BF1A2493F786
:1012B0000704D1DB83C7E1849386C18493F70706D3
:1012C0008DC32390060083C78184639CF500138738
:1012D000018870230C435A23938701818CC3DAA3BE
:1012E000F0A39E22C207C183B9FFB707005023981D
:1012F000070211472DBF99472309F402A309F402FD
:10130000938601889C221386E1841CA29C3203D818
:101310006600138781841CA383D826009387C18429
:1013200023900701138801852310180183D84600F4
:101330001388A18423101801034806001389C1846F
:101340009389E184137808061386018893870185C1
:101350009386A1846302080A83C7090093844185A8
:1013600093F70702BDCF1C231307100293F7F70F63
:101370006385E706636BF70401446384B7001304D5
:10138000F00F835709001307F003130A0004636783
:10139000F700035A0900420A135A0A0183AA0400FB
:1013A000528613850188D685569AEF00F04423A013
:1013B00044019307F00F6313F410B70700501D4763
:1013C0002389E702A389E702BDBD13073002130496
:1013D000F00FE368F7FA01446DB7938701819CC071
:1013E000DDBF03C4090019801344140005883304C9
:1013F00080401374F40F71B71823AD451377F70FBE
:10140000E3EDE5FA91650A079385859B2E971843CE
:1014100002879A2389462183938441856306D702F4
:101420000D46630EC70285476316F704916713875D
:10143000C7AA83C7C7AA98C0014403570900E3F2AB
:10144000E7F42310F90035BF1167130787A63C3373
:1014500098C03823A207BA97C207C183F1BF9E2361
:10146000054693F7F70F6381C70289CB6385D702DF
:10147000638AE70281471304F00FC1B71387018223
:1014800098C083C701824DBF9167138707AC98C08E
:1014900083C707AC55B79167138707AD98C083C75B
:1014A00007AD59BF9167138787AE98C083C787AED2
:1014B00061B79E2393F7F70F238EF18283C709004C
:1014C000E207E18763D8071E03570900930700046A
:1014D00063E6E70083570900C207C1830357090089
:1014E0001D8F420741832310E900370700501EBBC0
:1014F00091472309F70281BB83C7D1831CA20357FD
:1015000009008547E3FCE7FA2310F90045BF9E2355
:1015100093F7F70FA38EF1820547238FE18279BFFE
:1015200003C709007D8B11EF9E23054793F7F70F43
:10153000E396E7F89387F18398231377E70F98A34F
:10154000B5BF03C7090009467D8BE318C7E69E2394
:1015500093F7F70FE39307E69E229306100893F79D
:10156000F70F638DD70093063008638ED700E3969C
:10157000E7E4B7070050A38D070289B7B70700500B
:10158000238BE70225BFB7070050238FE7023DB743
:1015900003C709007D8B05E79E23054793F7F70FE7
:1015A000E39DE7E0916783C7F7A693F70702E38619
:1015B00007E09387F18398231367170049B703C7A0
:1015C000090009467D8BE31AC7DE9E2393F7F70FC8
:1015D000E39507DE9E229306100893F7F70F6381C9
:1015E000D702930630086386D702E398E7DC370713
:1015F00000508347B70393E73700A30DF7027DBD83
:10160000370700508347670393E73700230BF70240
:1016100075B5370700508347E70393E73700230F7B
:10162000F70269BD23000600D9BD83C70900231056
:101630000600FD8B85E383C7F1830144858B99C345
:1016400089471CA2035709008947E3F4E7D6231012
:10165000F90085B303C7090089471304F00F7D8B98
:10166000E312F7FE9E229306100893F7F70F6381AB
:10167000D70293063008638AD702E395E7FCB707E1
:10168000005083C7B7038D8B0D47639EE70011A8F9
:10169000B707005083C767030D4701448D8BE39361
:1016A000E7FA85471CA2014471BFB707005083C702
:1016B000E703D1BF83570900C207C183E38707C28D
:1016C000B70700501147FDB99377170085C3A38E64
:1016D0000182238E0182A38F0182238F0182A301C5
:1016E0000400EFF0FF8A85477CA095B6937747000A
:1016F00095C791477CA02945EF00E07B5830938740
:10170000F183118B19C798231367270098A39C2393
:101710003DBE98231377D70F98A315BE78A005BEBA
:10172000EFE21FAD41119357850048876C00A94631
:101730000D461305C004DC8623060100C9214101C2
:101740006FE05FADB7F700E0D8437D56FD56799B5B
:10175000D8C390CBD4CB984341111367070198C3EA
:1017600098431367170298C302C64D47B2476354A4
:10177000F700410182800100B24785073EC6FDB7F0
:10178000B7F700E098438146799B98C394C7014717
:10179000D8C78280EFE25FA337590040B709000144
:1017A000371A7A00AA8A2E8BB28B93040940370429
:1017B0000010FD19370C0020130A0A20D685268553
:1017C000EFF0AFC619C1014505A093050440268579
:1017D000EFF00FC7854C631B950113050940930576
:1017E0000440EFF00FC975556FE09FA193050410F9
:1017F0002685EFF0EFC4631A9501930504101305D5
:101800000940EFF00FC77D55C5B793050420268525
:10181000EFF00FC36315950193050420CDB7B7F71B
:1018200000E09847DC4783270C099306803E337716
:101830003701B3D747033307674133773701B3879E
:10184000D7023357F702E36B77F775BFEFE2DF9705
:10185000B75900402A892E84138509408545B68AE8
:101860003A8B328AEFF0AFB5370503005A86D6853A
:1018700005050D37AA8431E193151900014693F54A
:10188000E50F13850940EFF02FB9370907005A8695
:10189000D68513052908FD3DAA8405E1B759004006
:1018A000229A138C094013094908631E44013755D5
:1018B000004085451305054021A085451385094055
:1018C000EFF08FB115A00C2062850504EFF00FB486
:1018D0005A86D6854A857D3DAA8B61D98545138573
:1018E0000940EFF06FAFDE8426856FE07F91EFE275
:1018F000BF8D37090010B754004037040001B719F5
:101900007A002A8AAE8A130909049384044037FBBB
:1019100000E07D14B70B002093890920CA85268535
:10192000EFF00FB201C501456FE09F8D03278B00DB
:101930008327CB0083A70B099306803E618FB3D723
:10194000370333074741618FB387D7023357F70215
:10195000E36657FD7D55C9BFEFE21F87375400404E
:101960002A8AAE8C1305044085453A89BE89B28B1C
:10197000B68A370B0300EFF08FA44E86CA85130595
:101980001B00093DAA841DE1060A137AFA0F0146DD
:10199000D28513050440EFF02FA8370C07004E86C0
:1019A000CA8513052C08FD33AA8409C5854513058E
:1019B000044005A0E68513050440EFF02FA5CA8575
:1019C0004E8613054C08F933AA8485451305044057
:1019D00091C4EFF06FA026856FE09F82EFF02F9EFD
:1019E0004E86CA8513051B007533AA8461F105462E
:1019F000D28513050440EFF02FA24E86CA85130549
:101A00002B00493BAA845DF18547638FFA02014AA6
:101A1000138BFAFF13040440E30F5AFB631C4B05BE
:101A200081452285EFF0EF9C85452285EFF0CF9A26
:101A3000CE854A856D3D21E52285EFF06F9DB38708
:101A40004B0188A3050AC9BF814513050440EFF087
:101A50004F9A854513050440EFF00F98CE854A85CF
:101A60007935AA842DF913050440EFF06F9A23808D
:101A7000AB0095B785452285EFF0AF9755BFAA8497
:101A800099BFEFE2EFF6011185453705200002C24C
:101A900002C402C602C802CA02CC02CEEFF0AFB244
:101AA00085452145EFF04FB03714014093070004FE
:101AB00071498D444C00130504C07C824AC626C47B
:101AC000EFE09FEE930700084C00130504C07C82F2
:101AD0004AC626C4EFE05FEDE1679387076A3EC818
:101AE000B707FFBF375400403ECAB70700043ECCDB
:101AF0000C08916713050440FC86EFE0FFFA85456A
:101B000013050440EFF02F8A05616FE0AFF0EFE2BC
:101B10002FEE37550040411181451305054002C2A3
:101B200002C402C6EFF02F88371401409307000467
:101B30008D44130504C07C824C00D1473EC626C4A8
:101B4000EFE09FE6930700087C82130504C09147ED
:101B50004C0026C43EC6A544EFE01FE5130404C0B4
:101B60000146930500042285EFE0BFF01545A1264C
:101B70000546930500042285EFE0BFEF1545252EAD
:101B8000930500082285EFE03FEE85472A89630729
:101B9000F500FD1493F4F40FE1F4014993070008F4
:101BA000371401407C82D1473EC64C008D47130557
:101BB00004C03EC4EFE05FDF014693050008130553
:101BC00004C0EFE01FEB1545FD2405469305000416
:101BD000130504C0EFE0FFE91545F12C0546930518
:101BE0000008130504C0EFE0DFE81545E924513D86
:101BF000795563030900014541016FE0AFE1EFE270
:101C00008FDD4111B289368AAA842E89B7FA00E0A5
:101C1000EFF05FB303A68A003704000183A6CA0071
:101C20007D14B376C40052874E86CA85268539391D
:101C30002AC6EFF0FFB432451DC1D13DEFF09FB091
:101C400003A68A0083A6CA005287B376C400CA8559
:101C50004E862685E53E2AC6EFF09FB23245410109
:101C60006FE0AFDAEFE22FD74111368ABA8AAA8441
:101C70002E89B28937FB00E0EFF0DFAC83268B00C2
:101C8000370400010327CB007D143377D400D687B7
:101C9000D2864E86CA852685C1312AC6EFF05FAE50
:101CA000324505C5AD35EFF0FFA983268B0003272C
:101CB000CB00D6873377D4004E86D286CA85268558
:101CC00061392AC6EFF0DFAB324541016FE0EFD357
:101CD000EFE20FD2082141112E8429478946700076
:101CE0009945493711E51C869886A207D98F1EA011
:101CF00041016FE02FD2138741861C430566B386EE
:101D0000A7006369D60037050020130505213E951D
:101D100014C38280014582808280EFE26FCD7971A9
:101D2000854537050200EFF00F8A85451145EFF034
:101D3000AF87371401409147FC828D44E1474C083E
:101D40001305048026CC3ECEEFE01FC6A147FC82DF
:101D50004C0891471305048026CC3ECEEFE0DFC44B
:101D6000F16793870720374400403ED0B7070C0047
:101D7000938707600C10130504403ED402D223164B
:101D80000102EFF0CF8B0546130504409305505236
:101D9000EFF02F95854513050440EFF02F93B7E73B
:101DA00000E00947238BE7423707400023A2E710F2
:101DB000239501862397018623860186A3860186C3
:101DC00023840186B7270000938767CF3EC6B727D5
:101DD0000000938787D168003EC8EFF04F963745E3
:101DE0000000930500201305859E35293706002045
:101DF000374500001306062185651305C5A2252178
:101E000045616FE02FC1EFE2AFBEEFF04F940545A3
:101E1000EFF0CF9E37450000130505A5392B6FE085
:101E20006FBF31712ED332D536D72A865411930520
:101E30000008080806CF22CD3AD93EDB42DD46DF56
:101E400036C6412B635EA002138701843C332A848B
:101E500093F7F70F89CFB706005083C7E60393F7D0
:101E6000C70F93E72700238FF602A301070013167D
:101E70000401854641820C080D45EFF08F9D11C18C
:101E80007D542285FA406A4429618280B707002088
:101E900083A7070937177A0013070720B3D7E7028C
:101EA00093F7F70F238AF1861307803EB387E70283
:101EB0002399F1868280B7F700E0D8438146799B69
:101EC000D8C303C741873306A70290CBD4CB98432E
:101ED0001367070198C398431367170298C3D84341
:101EE000058B75DF9843799B98C38280B7F700E034
:101EF000D8438146799BD8C303D721873306A702ED
:101F000090CBD4CB98431367070198C398431367CA
:101F1000170298C3D843058B75DF9843799B98C304
:101F20008280EFE2EFAC2A8411650111854511052D
:101F3000EFE09FE7930700207C82371501408D4733
:101F40003EC44C00E147130505803EC6EFE0DFA527
:101F500022C837440140B70708000C081305048065
:101F60003ECC02CA231E0100EFE07FED854513053C
:101F70000480EFE0BFF505616FE0CFA9EFE2AFA508
:101F8000B7440140AE89328901449384048063459B
:101F900024014A856FE06FA7930500042685EFE0D2
:101FA000BFF87DD9B387890083850700268505049E
:101FB000C205C181EFE05FF6D9BF138781811C4361
:101FC000B7160020938646413E95636BD500B786D1
:101FD00000209386068063E5A60008C33E858280C4
:101FE000FD57EDBF9387C181AA8588439DA2938742
:101FF000C181AA85884355A8B3C7A5008D8B330737
:10200000C50081E78D4763EDC700AA87637EE508B9
:10201000942185078505A38FD7FEE3EBE7FE828039
:1020200093763500AA8789CA942185078505A38FF1
:10203000D7FE93F63700C5BF9376C7FF138606FE1B
:1020400063F0C70683A3050083A2450083AF850024
:1020500003AFC50083AE050103AE450103A38501AF
:1020600083A8C5019385450223A0770003A8C5FF77
:1020700023A2570023A4F70123A6E70123A8D70131
:1020800023AAC70123AC670023AE17019387470239
:1020900023AE07FF75B790419107910523AEC7FEA8
:1020A000E3EBD7FEE3E6E7F68280DDC183A7C5FF59
:1020B000411122C406C626C21384C5FF63D307009C
:1020C0003E94AA84EF00D017938781879C4381EFC9
:1020D0002322040023AC81862244B2402685924408
:1020E00041016F001016637EF40014403307D400E2
:1020F0006396E7009843DC43369718C05CC0D9BFAD
:10210000BA87D84319C3E37DE4FE94433386D700EE
:10211000631F86001040B29694C33386D700E31D38
:10212000C7FA10435843B29694C3D8C375B76375C2
:10213000C400B1479CC04DB71040B306C40063163D
:10214000D70014435843B29614C058C0C0C369B7EF
:102150008280011126CA93843500F19806CE22CCE4
:102160004AC84EC6A104B14763F3F404B14463E224
:10217000B4042A89EF00D00C9387818798433A846E
:1021800039E09387C1879C4391E781454A855D2A61
:1021900023AEA186A6854A857522FD5963193507A8
:1021A000B1472320F9004A85EF00B00929A0E3D008
:1021B00004FCB1471CC10145F2406244D24442498B
:1021C000B249056182801C40858F63CF0702AD460E
:1021D00063F6F6001CC03E9404C031A05C4063135B
:1021E000870223ACF1864A85EF00B0051305B400E1
:1021F0009307440061993307F5405DDF3A94898F76
:102200001CC05DBF5CC3C5B72287404095BF1304A7
:1022100035007198E30285FCB305A4404A851D2270
:10222000E31C35FBB5BF39713EDA2ED232D436D637
:102230003AD842DC46DE9387C18122CC804326CA4D
:1022400006CEAA8409C41C4C99E32285792B0C4440
:1022500054102686228536C6EF00103AF2406244BA
:10226000D24421618280011126CA4AC806CE22CCFE
:102270004EC652C4AA842E8901C51C4D91E3B523D4
:102280009C4C804499E326858D23972700009387F3
:102290006789631BF402C0405E24A18BB1C71C4850
:1022A000A1C7FD59294A1C4483450900FD17B1E91E
:1022B0001CC463DD07062286A94526851D22FD571D
:1022C0006308F502294535A0972700009387878783
:1022D0006314F4008044C9B797270000938787826E
:1022E000E31CF4FAC0444DBFA28526854D2A55D97A
:1022F0007D55F2406244D2444249B249224A0561C6
:1023000082801CC4050963D70700184C63CAE70024
:10231000638845011C401387170018C08CA361B760
:10232000228626857D28E31035F9D9B71C4013870E
:10233000170018C0294798A371B79387C181AA8550
:10234000884315B7411122C42A842E8597F7FF1FB1
:1023500023A2070C06C6EFF05FC6FD576319F50010
:1023600097F7FF1F9387070B9C4391C31CC0B24094
:102370002244410182801971A2DC86DEA6DA328411
:10238000635B06009307B0081CC17D55F650665488
:10239000D654096182803686930680202EC42ECCC6
:1023A000F482814519C09305F4FFFD572EC82ECE47
:1023B000BA862C00FC83AA84EF000077FD57635592
:1023C000F5009307B0089CC071D0A2472380070096
:1023D00075BF9387C1813687B2862E86AA858843CA
:1023E00059BF011122CC26CA4AC806CE4EC6AA84BD
:1023F0002E89328401C51C4D91E3C52E971700002C
:10240000938747726317F406C0401C4C1CC45E24BB
:10241000A18BC1C31C48B5CF1C4808409379F90F64
:102420001379F90F1D8D5C486346F500A28526855A
:10243000792C25E51C440505FD171CC41C40138799
:10244000170018C0238037015C486388A7005E240A
:10245000858B81CBA9476316F900A2852685852C3B
:102460000DEDF24062444A85D2444249B2490561C9
:102470008280971700009387E76C6314F400804410
:1024800069B7971700009387E767E310F4F8C04433
:10249000ADBFA2852685212041D17D59D9B74111F3
:1024A0009387C18126C2844322C44AC006C62A89B2
:1024B0002E8489C49C4C99E32685052E971700002D
:1024C00093874766631BF402C0400317C400931749
:1024D0000701C18393F68700B5EA93F6070195EEED
:1024E000A5472320F900136707045AA47D55B2407D
:1024F0002244924402494101828097170000938749
:1025000067646314F4008044C9B797170000938789
:10251000675FE31CF4FAC0444DBF918B85C74C58EC
:1025200091C9930744046385F5004A85EFF0FFB72E
:10253000232A04025E242322040093F7B7FD5EA43D
:102540001C481CC05E2493E787005EA41C4899EBDE
:102550005E241307002093F707286385E700A28510
:102560004A85B1215E2413F717001DC35C4823245C
:102570000400B307F0401CCC1C480145ADFB831799
:10258000C40013F7070825D793E707045EA4B9BF73
:10259000898B014791E3584818C4F9BFDE25011122
:1025A00022CC26CA06CE4AC84EC613F78700AA8494
:1025B0002E8461EFD841634DE000B841634AE000EA
:1025C0000145F2406244D2444249B24905618280E9
:1025D00058547DD703A904009396370123A0040023
:1025E00063DC060670485E24918B99C75C401D8EA3
:1025F0005C5899C33C401D8E5C540C508146268526
:102600008297FD575A24631DF5009440F54763E90E
:10261000D706B70740208507B3D7D700858BADC352
:102620001C48232204001CC09317370163D80700FD
:10263000FD576314F5009C4091E368C84C5823A0F3
:102640002401BDDD930744046385F5002685EFF082
:10265000DFA5232A0402ADB70C5001468546268526
:102660000297FD572A86E310F5F89C40ADDF7547C9
:102670006385E70059476393E70423A0240189B7E2
:10268000136707045AA47D552DBF83A90501E3896B
:1026900009F203A905008D8B23A0350133093941C7
:1026A000014791E3D84918C4E35C20F11C540C5055
:1026B000CA864E86268582976347A0005E2493E7EC
:1026C00007045EA4C9B7AA993309A940F1BF9C4980
:1026D000B9CF011122CC06CE2A8411C51C4D81E749
:1026E0002EC62122B245971700009387A743639B0C
:1026F000F5004C408397C50095C722856244F2409F
:10270000056169BD971700009387C7436394F5007F
:102710000C44CDB7971700009387C73EE39CF5FCA8
:102720004C44C9BFF24062440145056182800145C5
:102730008280411122C406C62A844EA572A5232098
:102740000500232205002324050023220506232853
:102750000500232A0500232C050021468145130589
:10276000C505EFD0FFAB97170000938767CC5CD00F
:1027700097170000938787CE1CD497170000938784
:1027800067D25CD4971700009387C7D400D01CD8B9
:10279000B24022444101828097050000938565F391
:1027A000B1A2411126C2130680069384F5FFB384BB
:1027B000C4024AC02E8922C406C693854407EFF09E
:1027C0005F992A8401CD23200500232225013105AC
:1027D00008C4138684068145EFD09FA42285B240A9
:1027E000224492440249410182801C4DADE34111D3
:1027F00006C622C497070000938747FA1CD5938723
:1028000041829C4323240504232605042328050430
:102810006314F50085471CCD2A841D2848C02285F5
:10282000052808C422852D2048C44840014691450A
:10283000093708440546A545ED3D48440946C945C4
:10284000CD3D85471CCCB24022444101828082802C
:1028500041119387418226C284434AC006C69C4CDC
:1028600022C42A8999E326854937938484048044C5
:10287000DC40FD1763D607009C40B9CF8440C5BF3C
:102880000317C40039E7C1778507232204062320F4
:10289000040023220400232404005CC42328040031
:1028A000232A0400232C0400214681451305C40576
:1028B000EFD01F97232A0402232C040223240404AC
:1028C000232604042285B240224492440249410155
:1028D00082801304840671BF91454A85D93588C02A
:1028E00051FDB1472320F9000144E9BF797122D499
:1028F0004AD052CC56CA5AC85EC606D626D24ECE4A
:102900002A8AAE8A130485040149054BFD5B09EC54
:10291000B25022544A8592540259F249624AD24A2C
:10292000424BB24B45618280044483294400FD1927
:1029300063D409000040E1BFDE24637BFB00839782
:10294000E40063877701A6855285829A3369A900DE
:1029500093848406E9BF1971A6DAAE848395E500F5
:10296000A2DC86DE328463DB0500DE2423A00600C1
:1029700093F7070885E7930700401DA0300836C687
:10298000EF00D03BB246E34205FE7247BD67F98FC8
:102990007977BA9793B717009CC2F1BF93070004E9
:1029A0001CC0F6506654D654014509618280DE256C
:1029B000011122CC06CE26CA4AC8898B2E8489CF23
:1029C000930774041CC01CC885475CC8F24062446D
:1029D000D24442490561828074003000AA84A53F38
:1029E000A2452A892685EFF0CFF619E98317C4009E
:1029F00013F7072061FFF19B93E727005EA4C9B797
:102A000097070000938787D99CD45E2408C008C824
:102A100093E707085EA4A2475CC8B24781CF83153D
:102A2000E4002685EF00B03411C55E24F19B93E7E6
:102A300017005EA45E243369F9002316240179B7D8
:102A40008280828001114AC803A9850022CC52C429
:102A50005AC006CE26CA4EC656C22E84328B368A3D
:102A600063E92609DE2513F7074851C304408C4962
:102A70005848AA8AB389B4408D44B384E402094714
:102A8000B3C4E402138716004E9763F3E400BA84DC
:102A900093F70740BDCFA6855685EFF08FEB2A89C7
:102AA0001DE1B14723A0FA005E247D5593E707049A
:102AB0005EA4F2406244D2444249B249224A924A58
:102AC000024B056182800C484E86EFF0EFD25E2407
:102AD00093F7F7B793E707085EA42328240144C8B7
:102AE0004E99B38434412320240104C45289637372
:102AF0002A01528908404A86DA85EF00102F1C44CB
:102B00000145B38727411CC41C403E992320240162
:102B10004DB726865685EF00B0312A895DFD0C48F9
:102B20005685EFF08FD8B5BFDE25717126D34AD117
:102B30004ECF06D722D552CD56CB5AC95EC762C5F5
:102B400066C393F70708AA892E89B284B9C39C4942
:102B5000A9E39305000436C6EFF0AFDF2320A900F8
:102B60002328A900B24615E1B14723A0F9007D55FD
:102B7000BA502A549A540A59FA496A4ADA4A4A4BCC
:102B8000BA4B2A4C9A4C4D61828093070004232A49
:102B9000F90093070002A30CF1029307000302DA85
:102BA000230DF10236CE930B5002971A0000938A40
:102BB0006AFB054C294B26841C2099C3639877092E
:102BC000B30C9440638D0C00E6862686CA854E853C
:102BD000953DFD57630BF518D256E69636DA1C2064
:102BE00063850718FD579304140002D002D63ED225
:102BF00002D4A301010682DC8C2015465685EF0025
:102C0000501D13841400825721E513F7070109C7EB
:102C100013070002A301E10613F7870009C7130792
:102C2000B002A301E10694201307A002638AE60222
:102C3000B2572684814625461820930514001307B1
:102C400007FD6372E6068DC63ED61DA00504ADB72E
:102C5000330555413315AC00C98F3ED0A28469BFFE
:102C6000724793064700184336CE634707023AD6A9
:102C700018209307E002631DF70418309307A002A1
:102C8000631BF702F2470904138747009C433ACEBF
:102C900063C107023ED22DA83307E04093E7270027
:102CA0003AD63ED0F1B7B387670385462E84BA97EC
:102CB00061B7FD57C5B7050402D281468147254655
:102CC000182093051400130707FD6376E606F9F252
:102CD0000C200D4617150000130545E9EF00700F95
:102CE00011CD97170000938767E81D8D93070004A7
:102CF000B397A700025505045D8D2AD00C20194614
:102D0000171500001305C5E693041400230CB10247
:102D1000EF00300C25C597D7FFFF9387A72E95E7C7
:102D20000257F2471377071009CF91073ECED257CB
:102D3000D2973EDA49B5B387670385462E84BA97A2
:102D400041B79D07E19BA107D5B77808970600001A
:102D5000938686CF4A860C104E8597000000E700C8
:102D60000000FD572A8AE314F5FC8357C9007D55FE
:102D700093F70704E39E07DE5255DDBB78089706FC
:102D80000000938666CC4A860C104E85FD2ED1BF7E
:102D90001C46FD171CC663DA0700184E63C5E70022
:102DA000A9476394F5006FF0CFE31C422E8513878B
:102DB000170018C28CA38280011122CC26CA4AC8EF
:102DC0004EC652C406CE2A89AE893284B304D600D8
:102DD0007D5A63149400014501A80C204E864A8553
:102DE000453F0504E31745FFF2406244D24442499F
:102DF000B249224A05618280357122CD26CB4AC96B
:102E00004EC706CF52C556C35AC1DEDEE2DCE6DA53
:102E1000AA89AE843289368409C51C4D99E3EFF046
:102E2000DF9C971700009387E7CF6397F40C83A488
:102E30004900DE24A18BFDC39C48EDC3930700022B
:102E4000A304F1029307000302D22305F10222C674
:102E5000930B5002971A0000938ACAD0054C294B55
:102E60004A841C2099C3639E770DB30C2441638D63
:102E70000C00E6864A86A6854E853D3FFD57630FCA
:102E8000F51C9256E69636D21C206389071CFD5726
:102E90001309140002C802CE3ECA02CCA3090104E1
:102EA00082D4834509001546568525271304190049
:102EB000C24751E913F7070109C713070002A30925
:102EC000E10413F7870009C71307B002A309E1045F
:102ED000834609001307A002638FE606F2474A847F
:102EE00081462546182093051400130707FD6377D4
:102EF000E60AB5CA3ECE85A897170000938787C417
:102F00006395F40083A489002DB797170000938779
:102F100067BFE390F4F283A4C90021BFA6854E8564
:102F2000EFF0EFD701DD7D55FA406A44DA444A49B3
:102F3000BA492A4A9A4A0A4BF65B665CD65C0D612E
:102F40008280050439BF330555413315AC00C98F64
:102F50003EC82289B9B7324793064700184336C6A0
:102F6000634707023ACE18209307E002631DF70477
:102F700018309307A002631BF702B24709041387B6
:102F800047009C433AC663C107023ECA2DA83307D7
:102F9000E04093E727003ACE3EC8F1B7B387670316
:102FA00085462E84BA973DBFFD57C5B7050402CAB2
:102FB000814681472546182093051400130707FD15
:102FC0006374E606F9F20C200D4617150000130590
:102FD000E5B9012511CD97170000938727B91D8DFD
:102FE00093070004B397A700424505045D8D2AC8E6
:102FF0000C20194617150000130585B71309140096
:103000002304B102F92335C197D7FFFF938787FFC8
:1030100095E74247B2471377071009CF91073EC69D
:103020009257D2973ED22DBDB387670385462E8433
:10303000BA9751B79D07E19BA107D5B778009706CE
:1030400000009386A6D726860C084E8597000000C0
:10305000E7000000FD572A8AE314F5FCDE2493F70D
:103060000704E39207EC1255C1B5780097060000FB
:103070009386C6D426860C084E85012AE1BF797155
:1030800056CA9C49BA8A984522D426D24ECE52CCF2
:1030900006D64AD05AC85EC6AA892E84B284368A19
:1030A00063D3E700BA879CC00347340419C385077C
:1030B0009CC01C4093F7070281C79C4089079CC0B5
:1030C0000329040013796900631A0900130B9401A2
:1030D000FD5B5C449840998F634CF9041C40834627
:1030E000340493F70702B336D000A5EB130634047B
:1030F000D2854E85829AFD576303F5041C40114624
:103100009840998B544481446397C700B384E64048
:1031100063D3040081441C4418486354F700998F1A
:10312000BE94014969047D5B63982405014509A8A3
:1031300085465A86D2854E85829A631E75017D55D5
:10314000B250225492540259F249624AD24A424B36
:10315000B24B456182800509ADBF3307D400130629
:103160000003A301C7040347540493871600A297E2
:103170008906A381E7049DBF85462286D2854E85B8
:10318000829AE30E65FB050945B7797122D426D2F0
:103190004AD04ECE06D652CC56CA5AC8B689942DBD
:1031A000930790063289AA842E8413863504638D92
:1031B000F60263E2D706930780056386F61863ED8F
:1031C000D700638E062093073004638EF60A930AB5
:1031D00024042301D404C9A0930730066385F60AAA
:1031E00093074006E395F6FE1C40084393F6070854
:1031F00093054500C5C61C410CC363D807001307DF
:10320000D002B307F040A301E404971600009386B0
:10321000A696294765A8930700076382F61663E51B
:10322000D7029307E0066389F6189307F006E39048
:10323000F6FA0C401C4313F8050813854700630792
:10324000080608C39C4385A893075007E383F6FE4E
:10325000930780076389F61293073007E399F6F620
:103260001C43D04181459386470014C383AA0700BD
:103270005685852601C53305554148C05C401CC8AC
:10328000A301040461A81C43930A24049386470005
:103290009C4314C32301F4048547D5B793F6070470
:1032A0001C410CC3B9DAC207C18781BF93F505047D
:1032B00008C3C9D99E231307F0066387E60E971645
:1032C00000009386668B2947A30104044C400CC47C
:1032D00063C5050008406D9908C099E3B28A89CD9D
:1032E000B28AB3F5E702FD1AB6958C212380BA00A5
:1032F000B3D5E70263F0E70CA147631EF7001C405B
:10330000858B91CB58401C4863C7E70093070003A7
:10331000A38FFAFEFD1A3306564110C84E87CA869F
:103320007000A2852685EFF09FD57D5A631D450B61
:103330007D55B250225492540259F249624AD24AFF
:10334000424B45618280A382D50497160000938684
:10335000A6820C40084313F805081C411105630DB3
:10336000080208C313F7150001C793E505020CC056
:103370004147B9FB0C4093F5F5FD0CC0B1B79C413A
:1033800093E707029CC193078007A302F404970602
:1033900000009386A67F75BF13F8050408C3E303F6
:1033A00008FCC207C1837DBF970600009386C67CD8
:1033B000214719BFAE8735B794411C43CC4913F858
:1033C0000608138547006306080008C39C438CC3A6
:1033D00039A008C393F606049C43F5DA8EA323288C
:1033E0000400B28A25BF14485686CA85268582996C
:1033F000E30045F51C40898B8DE7B2474844E35A0A
:10340000F5F23E853DB785465686CA852685829962
:10341000E30065F3050A5C443247998FE345FAFE01
:10342000E9BF014A930A94017D5BF5B7411122C4BB
:103430002E848395E50006C6812C634905007C48EF
:10344000AA977CC8B2402244410182805E247D77E5
:103450007D17F98F5EA4FDB7DE25011122CC26CAA7
:103460004AC84EC606CE93F70710AA842E84328926
:10347000B68991C78395E500894601460D225E24F1
:103480007D777D17F98F5EA48315E4006244F240D6
:10349000CE864A86B24942492685D244056125A88E
:1034A000411122C42E848395E50006C6CD28FD5720
:1034B0005A24631AF500FD77FD17F98F5EA4B24018
:1034C0002244410182808567D98F5EA468C8C5BF48
:1034D0008395E50025A8411122C42A842E85B28552
:1034E000368697E7FF1F23A707F206C6EFE01FA95E
:1034F000FD576319F50097E7FF1F9387A7F19C43DA
:1035000091C31CC0B240224441018280411122C4B7
:103510002A842E8597E7FF1F23AE07EE06C64D2AA5
:10352000FD576319F50097E7FF1F9387A7EE9C43AC
:1035300091C31CC0B240224441018280411122C487
:103540002A842E85B28597E7FF1F23A507EC06C6C0
:10355000412AFD576319F50097E7FF1F938787EB13
:103560009C4391C31CC0B24022444101828041115E
:1035700022C42A842E8597E7FF1F23AD07E806C6DD
:10358000852AFD576319F50097E7FF1F938787E8A2
:103590009C4391C31CC0B24022444101828041112E
:1035A00022C42A842E85B285368697E7FF1F23A37F
:1035B00007E606C6B122FD576319F50097E7FF1F1E
:1035C000938747E59C4391C31CC0B240224441010C
:1035D000828093F5F50F2A966314C5000145828019
:1035E0001C21E38EB7FE0505C5BF63F1A504B386B4
:1035F000C500637DD5029345F6FF8147FD176393B0
:10360000F50082803387F600034807003387C70040
:103610002A9723000701DDB73387F500142333070A
:10362000F500850714A3E319F6FE82808147E5BF04
:1036300081E5B2856FE0FFB1011122CC06CE26CA2A
:103640004AC84EC6328401EEEFE03FA60149F2407F
:1036500062444A85D2444249B24905618280AE84BF
:10366000AA89A9282689E37485FEA2854E85EFE004
:103670005FAE2A8969DDA6852286EFE0FF97A685E1
:103680004E85EFE09FA2E1B7411122C42A842E8526
:10369000B285368697E7FF1F23AE07D606C68D286C
:1036A000FD576319F50097E7FF1F9387A7D69C4343
:1036B00091C31CC0B24022444101828083A7C5FF50
:1036C0001385C7FF63D50700AA959C413E9582806C
:1036D0009307800517E7FF1F232EF7D27D558280C1
:1036E0009307800517E7FF1F2326F7D27D558280B9
:1036F0009307800517E7FF1F232EF7D0014582802F
:103700009307800517E7FF1F2326F7D07D5582809A
:103710009307800517E7FF1F232EF7CE7D55828084
:103720005B4641554C545D206D61736B3D3078258F
:10373000303458206461633D257520616464723DB6
:103740003078253032582D3078253032582D307869
:10375000253032582D3078253032580D0A000000BF
:1037600053797374656D436C6B3A25640D0A0000E0
:103770004368697049443A253038780D0A000000E2
:1037800050686173652030313A2048617264776116
:10379000726520466F756E646174696F6E0D00000E
:1037A000496E697469616C697A696E672049324350
:1037B00031206174203130306B487A2E2E2E0D006E
:1037C0004932433120696E697469616C697A656454
:1037D0000D000000496E697469616C697A696E67F1
:1037E00020256420494E4132323620646576696373
:1037F00065732E2E2E0D0A004558544934206F6EE5
:103800002050413420636F6E66696775726564206D
:1038100028494E4132323620414C41524D20696E8A
:10382000707574290D000000496E697469616C69D6
:103830007A696E67205553422D4344432E2E2E0D38
:10384000000000005553422D4344432077616974C2
:10385000696E6720666F7220686F737420656E757D
:103860006D65726174696F6E2E2E2E0D0000000062
:103870005553422D43444320656E756D65726174E6
:1038800065642C2072656164790D00005553422DEA
:1038900043444320656E756D65726174696F6E2077
:1038A00074696D656F757420E2803F20686F737472
:1038B000206E6F7420636F6E6E65637465643F0D78
:1038C000000000005B5553422D444941475D20757F
:1038D00073625F7072696E74662853797374656D74
:1038E000436C6B292072657475726E656420256463
:1038F0000D0A00005553422D434443207265616414
:10390000790D0A005B5553422D444941475D2075AE
:1039100073625F7072696E7466287265616479297A
:103920002072657475726E65642025640D0A00004E
:103930005B5553422D444941475D204550335F421A
:103940007573793D25642C20446576456E756D53FD
:1039500074617475733D25640D0A0000555342204F
:1039600043444320616C6976652C206379636C6500
:103970003D256C750D0A00005B5553422D444941AD
:10398000475D207573625F7072696E746620666150
:10399000696C656420287265743D25642C2045504F
:1039A000335F427573793D25642C20456E756D3DFE
:1039B0002564290D0A0000002A16000020150000C9
:1039C000BA13000090150000BA130000B2140000F2
:1039D00012140000BA130000F81400000E150000C5
:1039E00024160000BC14000050726F746F636F6C7B
:1039F00020696E69743A2055534152543220313156
:103A00003532303020384E312B6F64642070617253
:103A10006974792C2072696E6720627566666572BA
:103A20002025642062797465730D0A00634A534F40
:103A30004E206172656E613A20256420627974655A
:103A400073206174203078253038580D0A0000004A
:103A50005553422D43444320696E697469616C6912
:103A60007A65640D00000000090243000201008035
:103A700032090400000102020100052400100105C2
:103A80002401000104240202052406000107058127
:103A90000340000109040100020A000000070502BA
:103AA00002400000070583024000000012011001DF
:103AB00002000040861A0CFE010001020001000015
:103AC0000E037700630068002E0063006E000000A4
:103AD0001603550053004200200053006500720099
:103AE000690061006C0000001603300031003200F4
:103AF000330034003500360037003800390000004C
:103B000000000000000000000000000000000000B5
:103B100000000000000000000000000000000000A5
:103B20000000000000000000000000000000000095
:103B30000000000000000000000000000000000085
:103B40000000000000000000000000000000000075
:103B50000000000000000000000000000000000065
:103B6000232D302B20000000686C4C0065666745F3
:103B70004647000030313233343536373839414228
:103B80004344454600000000303132333435363787
:0C3B900038396162636465660000000063
:103B9C0040004101420243034404000000000000C5
:103BAC0000000000010203040607080900000000E1
:103BBC0001020304010203040607080900000000C7
:103BCC00203B0000403B0000003B000000000000D8
:103BDC0000000000000000000000000000000000D9
:103BEC0000000000000000000000000000000000C9
:103BFC0000000000000000000000000000000000B9
:103C0C0000000000000000000000000000000000A8
:103C1C000000000000000000000000000000000098
:103C2C0000D8B80502040608EE1F0000E41F0000CF
:103C3C0000C2010000000800141400202C00002019
:083C4C00040309042C00002010
:00000001FF
