:040000006F008069A4
:1000040000000000000000002002000022020000A6
:100014000000000096060000000000000000000040
:100024009606000096060000000000000000000094
:100034009606000000000000960600000000000084
:10004400960600009606000096060000960600003C
:10005400960600009606000096060000960600002C
:100064009606000096060000320200009606000084
:10007400960600009606000096060000B2040000F2
:1000840096060000960600009606000096060000FC
:1000940096060000960600009606000096060000EC
:1000A40096060000960600009606000096060000DC
:1000B40096060000E0020000960600009606000086
:1000C40096060000960600009606000096060000BC
:1000D4009606000022040000960600009606000022
:1000E4009606000096060000000000009606000038
:1000F400960600009606000096060000960600008C
:100104000000000096060000960600009606000017
:10011400960600009606000096060000960600006B
:10012400960600009606000096060000960600005B
:10013400960600000000000000000000000000001F
:10014400000000000000000000000000600F00003C
:1001540000000000000000000000000096060000FF
:10016400960600009606000096060000960600001B
:10017400960600009606000096060000960600000B
:1001840096060000960600009606000096060000FB
:1001940096060000960600009606000096060000EB
:1001A400000000000000000000000000000000004B
:0C01B4000000000000000000000000003F
:1001C000397101436EC619A0397141536AC866CAB4
:1001D00062CC5ECE19A0397101535AD056D252D496
:1001E0004ED64AD826DA22DC06DE3301614082820E
:1001F00041114AC026C222C406C68282B24D4101C4
:10020000024D924C224CB24B4101024B924A224A7F
:10021000B2494101024992442244B24041018280E4
:1002200001A0B707EFBE37E700E0938707083CC798
:1002300001A0797122D64AD23709002026D44ED0A7
:1002400052CE56CC938781829304090023900700F5
:10025000138A84001384818293090900854A9305D7
:10026000E100268523170100EF10D00809ED831760
:10027000E10063DA07009C301A20B397FA00D98FA7
:10028000C207C1831EA08904E39B44FD9304800838
:1002900073B004800F1000000145EF10A02A73A076
:1002A000048005472385E1820E2003C8690003D638
:1002B000C18203C7290083C7490083460900374527
:1002C000000013054504EF20E03F41454529325425
:1002D000A25412598259724AE24A45617300203091
:1002E000411122C63704004091451305044026C43D
:1002F000EF00F01105C913050440EF001011AA84A6
:10030000914513050440EF00101283A70185B387C0
:10031000F44023AAF18423A891840547238DE18426
:10032000239C01843244A244410173002030EFF247
:100330003FEC0945ED2DF924EF10902AEF10102124
:100340003745000013054508EF20003AB7070020A5
:1003500083A50709374500001305C50AEF2080363D
:10036000D926AA85374500001305C50BEF20803537
:100370001304501F268983C7618393F7F70F99E30E
:100380007D1451E083C7618393F7F70FC9C33745E5
:1003900000001305C50CEF2020353745000013057C
:1003A0000510EF206034EF100050374500001305B2
:1003B0000511EF2060337165130505203714002007
:1003C000EF10702B13048430EF106077B7440000F7
:1003D0003749000083574440C207C18385C3835512
:1003E00044401385C411EF20E02D83574440C207D9
:1003F000C1839DE31305C912EF20002F1305803E32
:10040000EF101024C1BF2945EF109023ADB7374539
:1004100000001305050E41B7EF10300FEF10F0315B
:10042000E9B701114EC8B749014093054042138511
:10043000098022CE26CC4ACA52C6EF00D00E35C162
:1004400037090240032AC90503C4419713098905E6
:1004500081451374F40F933714004A85238AF1966B
:10046000C12C930500084A85F12C83C741979384DA
:10047000419785459E078507A6972326F9004A855B
:10048000452C13850980EF00F00893050008B3851B
:100490004541131574000505C205C1812695EF106D
:1004A000C07C7244E2445249C249324A0561730039
:1004B0002030411126C422C603C441974AC23709DD
:1004C00002401374F40F9337140013058905814516
:1004D000238AF196B12C13058905930500089D2404
:1004E00083C7419793844197130589059E07850724
:1004F000A6975CC585452D2C13157400050526951A
:1005000093050008EF10607637050200A5243244F9
:10051000A2441249410173002030B71702409843AA
:10052000B706FFF041111367170098C3D843370689
:100530000200758FD8C39843B706F7FEFD16758F76
:1005400098C39843B706FCFFFD16758F98C3D84330
:10055000B70601FFFD16758FD8C337079F0098C7F0
:1005600002C402C69843C166558F98C3B7160240AD
:1005700005679C42F18F3EC6A24785073EC4B2473D
:1005800081E7A247E397E7FEB71702409C43139722
:10059000E7006357070685473EC632478547631F16
:1005A000F704B7170240D843B706C1FFFD16D8C3FA
:1005B000D843D8C3D84313670740D8C3D843758FEF
:1005C000D8C3D843B7062900558FD8C39843B70678
:1005D0000001558F98C3984393166700E3DD06FE2C
:1005E000D843B7160240719BD8C3D843136727007E
:1005F000D8C32147DC42B18BE39EE7FE41018280F4
:1006000002C661BFB7160240DC4237070020114620
:10061000B18B130707096385C70021466388C702AA
:10062000B7177A00938707201CC3B7170240DC4333
:10063000918393F6F700B70700209387C700B6971A
:1006400094231C43B3D7D7001CC38280DC42D4421E
:100650004166C983BD8BF18E890745466393C70008
:10066000C94781EEB746024083A60680C18A89CE7B
:10067000B7167A009386062021A8B7160240D44206
:100680001396E600E35606FEB7163D0093860690E5
:10069000B387D70251BF01A0970100209381811F2A
:1006A000178100201301019617450000130545D45A
:1006B00097050020938505951386818263FAC5000E
:1006C0008322050023A0550011059105E3EAC5FE2C
:1006D0001385818297150020938505046377B50003
:1006E000232005001105E36DB5FEFD42739002BCA9
:1006F000AD4273904280B76200009382820873908B
:100700000230970200009382229093E232007390AD
:100710005230EFF09FE097020000938282C1739005
:10072000123473002030B7F7FF1F03A54770828093
:100730001C4189C593E717001CC182804167791766
:10074000F98FDDBF4CC182809317350063D7070056
:10075000B707024023A2A74082809317250063D7E2
:100760000700B707024023AAA74C8280B7070240C0
:10077000C8C38280EFF2DFA7C13F69BCB707014061
:1007800023AAA74082809C4513F7070113F8F700BE
:1007900001C7D8413368E8008E2113F7F50F39C33C
:1007A00018418146854E3D4F930F8002930280048D
:1007B000214E3396DE00B3F8C500631116039398FB
:1007C000260033131F011343F3FF3377E300B318FD
:1007D000180133E7E800639FF70550C98506E39ADF
:1007E000C6FD18C11307F00F6375B70454412146C5
:1007F000854E3D4F930F800293028004414EB39883
:10080000CE0033F715016392E80213172600011793
:100810003313EF001343F3FFB376D3003317E8002D
:10082000D98E639DF701232A15010506E319C6FD3C
:1008300054C18280E39457FA10C94DB7E39757FE2D
:1008400023281501DDB708456D8D3335A000828062
:1008500019C20CC982804CC98280EFF27F997971EC
:1008600046212A8468082EC62524925737470F0050
:100870001307072433D7E702C204C18093F404FCB2
:10088000C2049306C003C180B24563F4E6001307B7
:10089000C003131607014182D18C46A01620616562
:1008A0001305056AC206C182F99AC206C18216A062
:1008B00094416368D5048606B3D7D702914613974F
:1008C00007014183BA876373D70091470506420643
:1008D000C2074182C18312B05EAC1E20DA21B62568
:1008E00093E717001EA01E20558FC207C18393F700
:1008F00057BFD98F1EA09A25DE25D98F1EA445612A
:1009000011BAEA2131667D16631DC5020D46B38614
:10091000C602B3D7D702C207C1839396470199E2B3
:1009200093E71700A166D58F9306C0123307D7024D
:100930009306803E3347D7020507420741831AB02A
:1009400061BF6546B386C602B3D7D7029166C207B8
:10095000C183D58FD9B71E2189C593E717001EA182
:100960008280C207C183F99BC207C183CDBF1E210C
:1009700089C593E707101EA18280C207C18393F740
:10098000F7EFC207C183C5BF1E2189C593E70720C2
:100990001EA18280C207C18393F7F7DFC207C1831C
:1009A000C5BF1E2189C593E707401EA18280C207EB
:1009B000C18393F7F7BFC207C183C5BF0EA9828069
:1009C0000A291375F50F828093F7E50F19C293E793
:1009D0001500C207C1831EA982805E290A2D420527
:1009E0005D8D6D8D220521810D8D13351500828061
:1009F000411102C402C693D7C5012AC63EC4A2470C
:100A0000A205A18199CBB247D1073EC6B247884320
:100A100041016D8D3335A0008280B247C181E1076D
:100A2000EDB793C5F5FFC205C1814EA9828023A809
:100A3000A182828003A70183894710216311F702F5
:100A400014318D4763EDD7003C219A0637E700E06B
:100A50009607D58F93F7F70F32972300F74054414D
:100A60000547935756003317C70089CA9387070471
:100A70008A07B7E600E0B69798C382809387070697
:100A8000B7E600E08A07B69798C30F10000082808F
:100A9000371702405C439146B18B6385D700A1466E
:100AA0006382D706B7177A00938707201CC13716D1
:100AB00002405C42370700201307C7019183BD8BBA
:100AC000BA9794231C41B3D7D7005CC15442A1828A
:100AD0009D8ABA969422B3D6D70014C55442AD82EB
:100AE0009D8A36971823B3D7E7005CC558423983EF
:100AF000937637001387418036971823B3D7E702E0
:100B00001CC982805C4354434167C983F98E37F71F
:100B1000FF1F0327C770BD8B890713161701634892
:100B20000600454601476392C702C94739A80947ED
:100B30006389E7023D476388E70241476388E7022C
:100B4000454601476393C700C14785E6B746024063
:100B500083A60680C18A8DC6B7167A0093860620C2
:100B600025A00147D9B70547B547C5B70147BD47D8
:100B7000E9BFB7160240D4421396E600E35E06FCD6
:100B8000B7163D0093860690B387D7021CC105D3E4
:100B90001C41858321BF99C5371702405C4B5D8D91
:100BA00048CB8280B7170240D84B1345F5FF798DAB
:100BB000C8CB828099C5371702401C4F5D8D08CF86
:100BC0008280B7170240984F1345F5FF798D88CF83
:100BD000828099C5371702405C4F5D8D48CF828077
:100BE000B7170240D84F1345F5FF798DC8CF8280E3
:100BF000B7170240D843B70640FFFD16758FD8C31C
:100C0000D8435A05598DC8C382800A3D82801E2967
:100C10004A25ED8F4205418189C76D8D3335A0008E
:100C200082800145828093C5F5FFC205C1810EA96E
:100C30008280EFF2EFDB1629F577FD17F58FF621AD
:100C4000DA257971D58F1EA95625FD779387379FB1
:100C5000F58FD6212A842EC6D58F9625D58FB62519
:100C6000D58F5EA55E29C207C18393F7F7CFD98FD1
:100C70005EA96808313DB747014093870780B245B8
:100C8000631EF402A2576547B387E70298419306B3
:100C900040060A07B3D7E70233D7D702B3F7D70224
:100CA0001207920793872703B3D7D702BD8BD98F3B
:100CB000C207C1831EA445616FF0CFD59257E1B73B
:100CC00091C55E250967D98F5EA582805A25F9777F
:100CD000FD17F98FD5BF13F7F50F85471583B3952A
:100CE000B7006319F7009307C500984301CED98D6B
:100CF0008CC38280894693074501E318D7FE93078A
:100D00000501E5B793C5F5FFF98DDDB793F5F51F3F
:100D10004EA182804A211375F51F82800A216D8DB4
:100D20003335A000828013F7F50F85461583B397FE
:100D3000B6006311D7025A25F98F1A2101454207DF
:100D4000418381CB0545A181B315B5006D8F333546
:100D5000E000828089466314D7001A29F1BF5A291E
:100D6000E1BF19C5184123A6E180584123A4E180C1
:100D70008280EFF2EFC7B707002003A70709B74744
:100D800095089387074009456300F702B7E7B80560
:100D90009387078005456309F700B777DC029387DF
:100DA00007C06314F7000145A13585450565E533A6
:100DB0006FF04FC6B707005013070004D8A71307FA
:100DC0008004D8B71387418798CB1387418BD8CB42
:100DD0001387418F98CF13874193D8CFA3890702F8
:100DE000A38D0702239A0702239E0702094723893E
:100DF000E702238BE702238FE70293878183238017
:100E00000700A380070023810700A3810700238236
:100E10000700A382070023830700A38307008280C3
:100E2000EFF20FBD3704005099471CA01DC529459E
:100E3000EF00B07D9D47230004003CA09307900283
:100E40001CA08D3F930710F81CB037070800B7E7C8
:100E500000E023A4E7106FF0EFBB2945EF00F07A24
:100E6000B7E700E0230004003707080023A4E718D1
:100E70000F100000CDB79307F5FF93F7F70F194850
:100E8000636DF80CEFF22FB593878183AA979C23AB
:100E900093848183054793F7F70FCDEB854763056F
:100EA000F5001147631CE500B7070050DC27054734
:100EB00093F7F70F631EE50291831DA81307E5FF63
:100EC0001377F70F63E9E700B7070050DC370D47EA
:100ED00093F7F70FC5B71307B5FF1377F70F63E065
:100EE000E704B7070050FC2793F7F70FE30605FD6B
:100EF00013F847000147630B08043704001411047A
:100F00002A94A18BB2892A890A0485C30840B707AD
:100F10000020938707043E95EF20106D19A8B707AE
:100F20000050FC3793F7F70FE1B785E6C205C181A2
:100F30000CC08547338524011CA12310340383474B
:100F40002402014793F7C70F2301F4023A856FF09B
:100F5000CFAB0840B70700207DBF05473A858280A8
:100F6000011122CE26CC4ACA4EC852C656C43704F6
:100F7000005078207C301377F70F93762700638733
:100F8000065693F7F70F13F707039305000263095B
:100F9000B702930600036302D71861EB13F7F70358
:100FA0006308071289476312F70C8347B40393C79A
:100FB0004700A30DF402938781832381070075A066
:100FC00093F7F70393061002638ED70A9306300255
:100FD000638DD70C639BE708938741849E2393849A
:100FE0004184C207C18381E79147A309F40283C703
:100FF000618493F70706B5EB83C70184154793F720
:10100000F70F638BE70419476391E7069E201307E8
:10101000F003130400046365F7008220420441805A
:101020001389C184832909002286CE8513854187CF
:10103000EF20905B9E20A29923203901818FC20767
:10104000C1839EA0B707005082BB03C72703134785
:1010500047002389E70211A8370700503C3383C6B5
:10106000418393F70708D58F3CB3B7070050094772
:10107000F8A37244E2445249C249324AA24A056185
:10108000730020308347640393C74700230BF402A7
:101090008347640393F7C70F93E72700230BF402FA
:1010A00093878183A3800700C9B78347E40393C76D
:1010B0004700230FF4028347E40393F7C70F93E736
:1010C0002700230FF40293878183A381070071BF58
:1010D0001A2493F70704D1DB83C761849386418484
:1010E00093F707068DC32390060083C70184639C92
:1010F000F5001387418770230C435A23938701819E
:101100008CC3DAA3F0A39E22C207C183B9FFB7073D
:1011100000502398070211472DBF99472309F40275
:10112000A309F402938641879C22138661841CA242
:101130009C3203D86600138701841CA383D8260041
:101140009387418423900701138881842310180119
:1011500083D8460013882184231018010348060011
:101160001389418493896184137808061386418723
:1011700093878184938621846302080A83C70900C8
:101180009384C18493F70702BDCF1C231307100279
:1011900093F7F70F6385E706636BF70401446384F5
:1011A000B7001304F00F835709001307F003130A65
:1011B00000046367F700035A0900420A135A0A0140
:1011C00083AA0400528613854187D685569AEF205C
:1011D000B04123A044019307F00F6313F410B70745
:1011E00000501D472389E702A389E702BDBD13070D
:1011F00030021304F00FE368F7FA01446DB79387E8
:1012000001819CC0DDBF03C4090019801344140090
:101210000588330480401374F40F71B71823AD456B
:101220001377F70FE3EDE5FA91650A079385451308
:101230002E97184302879A23894621839384C18479
:101240006306D7020D46630EC70285476316F7048F
:1012500091671387072583C7072598C00144035763
:101260000900E3F2E7F42310F90035BF1167130713
:10127000C7203C3398C03823A207BA97C207C1835E
:10128000F1BF9E23054693F7F70F6381C70289CB11
:101290006385D702638AE70281471304F00FC1B761
:1012A0001387018298C083C701824DBF916713875E
:1012B000472698C083C7472655B7916713874727A6
:1012C00098C083C7472759BF91671387C72898C01D
:1012D00083C7C72861B79E2393F7F70F238AF1824C
:1012E00083C70900E207E18763D8071E0357090097
:1012F0009307000463E6E70083570900C207C18330
:10130000035709001D8F420741832310E900370767
:1013100000501EBB91472309F70281BB83C751834D
:101320001CA2035709008547E3FCE7FA2310F900E4
:1013300045BF9E2393F7F70FA38AF1820547238BBE
:10134000E18279BF03C709007D8B11EF9E2305471A
:1013500093F7F70FE396E7F8938771839823137752
:10136000E70F98A3B5BF03C7090009467D8BE318B3
:10137000C7E69E2393F7F70FE39307E69E229306B3
:10138000100893F7F70F638DD70093063008638E2C
:10139000D700E396E7E4B7070050A38D070289B7AB
:1013A000B7070050238BE70225BFB7070050238FF4
:1013B000E7023DB703C709007D8B05E79E2305477C
:1013C00093F7F70FE39DE7E0916783C7372193F722
:1013D0000702E38607E0938771839823136717005A
:1013E00049B703C7090009467D8BE31AC7DE9E2370
:1013F00093F7F70FE39507DE9E229306100893F705
:10140000F70F6381D702930630086386D702E3980B
:10141000E7DC370700508347B70393E73700A30D96
:10142000F7027DBD370700508347670393E7370016
:10143000230BF70275B5370700508347E70393E79F
:101440003700230FF70269BD23000600D9BD83C70B
:10145000090023100600FD8B85E383C771830144D7
:10146000858B99C389471CA2035709008947E3F478
:10147000E7D62310F90085B303C709008947130491
:10148000F00F7D8BE312F7FE9E229306100893F770
:10149000F70F6381D70293063008638AD702E3957A
:1014A000E7FCB707005083C7B7038D8B0D47639EDA
:1014B000E70011A8B707005083C767030D47014431
:1014C0008D8BE393E7FA85471CA2014471BFB707F0
:1014D000005083C7E703D1BF83570900C207C18308
:1014E000E38707C2B70700501147FDB9937717008C
:1014F00085C3A38A0182238A0182A38B0182238B65
:101500000182A3010400EFF0FF8A85477CA095B615
:101510009377470095C791477CA02945EF00F00ECF
:10152000583093877183118B19C79823136727004D
:1015300098A39C233DBE98231377D70F98A315BE7D
:1015400078A005BEEFE2DFCA4111935785004887B6
:101550006C00A9460D461305C004DC862306010075
:10156000C92141016FE01FCBB7F700E0D8437D569A
:10157000FD56799BD8C390CBD4CB984341111367C8
:10158000070198C398431367170298C302C64D47D3
:10159000B2476354F700410182800100B2478507DA
:1015A0003EC6FDB7B7F700E098438146799B98C3E4
:1015B00094C70147D8C78280EFE21FC13759004066
:1015C000B7090001371A7A00AA8A2E8BB28B9304CE
:1015D000094037040010FD19370C0020130A0A20B7
:1015E000D6852685EFF06FBF19C1014505A093058B
:1015F00004402685EFF0CFBF854C631B9501130592
:10160000094093050440EFF0CFC175556FE05FBF0F
:10161000930504102685EFF0AFBD631A950193057D
:10162000041013050940EFF0CFBF7D55C5B79305F2
:1016300004202685EFF0CFBB6315950193050420A8
:10164000CDB7B7F700E09847DC4783270C0993062E
:10165000803E33773701B3D747033307674133778A
:101660003701B387D7023357F702E36B77F775BFBC
:10167000EFE29FB5B75900402A892E8413850940AF
:101680008545B68A3A8B328AEFF06FAE3705030094
:101690005A86D68505050D37AA8431E193151900C0
:1016A000014693F5E50F13850940EFF0EFB13709D7
:1016B00007005A86D68513052908FD3DAA8405E151
:1016C000B7590040229A138C094013094908631E38
:1016D00044013755004085451305054021A0854547
:1016E00013850940EFF04FAA15A00C206285050470
:1016F000EFF0CFAC5A86D6854A857D3DAA8B61D95D
:10170000854513850940EFF02FA8DE8426856FE01C
:101710003FAFEFE27FAB37090010B754004037040A
:101720000001B7197A002A8AAE8A13090904938442
:10173000044037FB00E07D14B70B0020938909209B
:10174000CA852685EFF0CFAA01C501456FE05FABE2
:1017500003278B008327CB0083A70B099306803ECA
:10176000618FB3D7370333074741618FB387D70200
:101770003357F702E36657FD7D55C9BFEFE2DFA49B
:10178000375400402A8AAE8C1305044085453A89B7
:10179000BE89B28BB68A370B0300EFF04F9D4E86A1
:1017A000CA8513051B00093DAA841DE1060A137AA8
:1017B000FA0F0146D28513050440EFF0EFA0370C75
:1017C00007004E86CA8513052C08FD33AA8409C577
:1017D00085451305044005A0E68513050440EFF098
:1017E000EF9DCA854E8613054C08F933AA848545BA
:1017F0001305044091C4EFF02F9926856FE05FA098
:10180000EFF0EF964E86CA8513051B007533AA8448
:1018100061F10546D28513050440EFF0EF9A4E863C
:10182000CA8513052B00493BAA845DF18547638F68
:10183000FA02014A138BFAFF13040440E30F5AFB28
:10184000631C4B0581452285EFF0AF9585452285C8
:10185000EFF08F93CE854A856D3D21E52285EFF02F
:101860002F96B3874B0188A3050AC9BF814513058D
:101870000440EFF00F93854513050440EFF0CF903F
:10188000CE854A857935AA842DF913050440EFF0F9
:101890002F932380AB0095B785452285EFF06F909D
:1018A00055BFAA8499BFEFE2BF9401118545370562
:1018B000200002C202C402C602C802CA02CC02CE82
:1018C000EFF02FB185452145EFF0CFAE3714014041
:1018D0009307000471498D444C00130504C07C82B9
:1018E0004AC626C4EFE03FEA930700084C00130500
:1018F00004C07C824AC626C4EFE0FFE8E167938714
:10190000076A3EC8B707FFBF375400403ECAB70753
:1019100000043ECC0C08916713050440FC86EFE000
:10192000DFF3854513050440EFF0EF8205616FE0BA
:101930007F8EEFE2FF8B3755004041118145130543
:10194000054002C202C402C6EFF0EF803714014026
:10195000930700048D44130504C07C824C00D147DA
:101960003EC626C4EFE03FE2930700087C821305E1
:1019700004C091474C0026C43EC6A544EFE0BFE03A
:10198000130404C00146930500042285EFE05FECD8
:101990001545A5290546930500042285EFE05FEB78
:1019A0001545A521930500082285EFE0DFE985476D
:1019B0002A896307F500FD1493F4F40FE1F401495B
:1019C00093070008371401407C82D1473EC64C0083
:1019D0008D47130504C03EC4EFE0FFDA01469305CE
:1019E0000008130504C0EFE0BFE615453929054698
:1019F00093050004130504C0EFE09FE51545312170
:101A0000054693050008130504C0EFE07FE4154583
:101A1000ED2E513D795563030900014541016FE009
:101A20006FFFEFE24FFB4111B289368AAA842E89FB
:101A3000B7FA00E0EFF05FB303A68A0037040001B5
:101A400083A6CA007D14B376C40052874E86CA8529
:101A5000268539392AC6EFF0FFB432451DC1D13D84
:101A6000EFF09FB003A68A0083A6CA005287B37620
:101A7000C400CA854E862685E53E2AC6EFF09FB291
:101A8000324541016FE06FF8EFE2EFF44111368A21
:101A9000BA8AAA842E89B28937FB00E0EFF0DFAC66
:101AA00083268B00370400010327CB007D14337796
:101AB000D400D687D2864E86CA852685C1312AC6ED
:101AC000EFF05FAE324505C5AD35EFF0FFA98326D7
:101AD0008B000327CB00D6873377D4004E86D2867F
:101AE000CA85268561392AC6EFF0DFAB3245410150
:101AF0006FE0AFF1EFE2CFEF082141112E842947CB
:101B0000894670009945493711E51C869886A207D9
:101B1000D98F1EA041016FE0EFEF1387C1851C43F1
:101B20000566B386A7006369D60037050020130554
:101B300085303E9514C38280014582808280EFE229
:101B40002FEB116579718545310502CA02CC02CEB1
:101B500002D002D202D402D602C202C4EFF08F85B4
:101B600037140140930700208D4413050480FC8244
:101B70004C08E14726CC3ECEEFE0FFC09307004083
:101B800013050480FC824C08914726CC3ECEEFE042
:101B90009FBFF167374401409387072013050480F6
:101BA0003ED00C10B7070C003ED402D2231601021F
:101BB000EFF02F8805469305404213050480EFF0AF
:101BC0008F91930750137C8285475C83480085473B
:101BD0003EC4EFE03FE6130504808545EFF04F8EED
:101BE000239101862393018623820186A3820186A5
:101BF000B7440000238001869384441613040480B4
:101C00000389040063150904B72700009387A7B16F
:101C10003EC6B72700009387C7B368003EC8EFF001
:101C20004F94374500009305002013058518EF00F9
:101C30007029370600203745000013068630856579
:101C40001305051DEF00102845616FE0AFDC93051B
:101C500000042285EFF08F8C7DD993150901C18195
:101C60002285EFF0AF8A850461BFEFE2CFD6371A45
:101C7000002093078A3003D7474093070040AA8A81
:101C8000998F3E84C207C18313098A3063F3F5003C
:101C90002E8483540940930900404204C204C18049
:101CA000B3899940C209418093D9090163E9890246
:101CB000035509402286D6854A95EF20E0128357C6
:101CC0000940A297C207C1832310F94083574940B6
:101CD0003E9442044180231289406FE00FD30355A4
:101CE0000940938404C0A2944E86D685C2044A95C6
:101CF000EF20800FC1802686B3853A0113058A3014
:101D0000EF20800E23109940D1B7B717002013871A
:101D100087308356274093878730BA968822835628
:101D200027408506C206C1822311D74003572740AA
:101D30009306F03F63F4E6002391074003D7474042
:101D40007D17420741832392E7408280EFE24FCA2A
:101D5000EFF02F820545EFF0AF8C374500001305FB
:101D6000451FEF0070186FE0EFCAA5C9AA867D5520
:101D7000BDC6EFE2EFC79307000441112E8663F45E
:101D8000B70013060004E1679387076A42063EC660
:101D9000418293878183B8331377F70F19C3324792
:101DA0000DEBB8331377F70F09CFB705005003C712
:101DB000E5031377C70F13672700238FE502A3817D
:101DC0000700B6850D458546EFF0EF8A41016FE0CB
:101DD0006FC432477D173AC67DBF7D5582808280B1
:101DE000B707002083A7070937177A0013070720D2
:101DF000B3D7E70293F7F70F2385F1861307803EE9
:101E0000B387E7022394F1868280B7F700E0D843D6
:101E10008146799BD8C303C7A1863306A70290CB1E
:101E2000D4CB98431367070198C3984313671702ED
:101E300098C3D843058B75DF9843799B98C38280FC
:101E4000B7F700E0D8438146799BD8C303D7818692
:101E50003306A70290CBD4CB98431367070198C3EE
:101E600098431367170298C3D843058B75DF9843CF
:101E7000799B98C38280EFE2AFB72A841165011184
:101E800085451105EFE01FD3930700207C823715AD
:101E900001408D473EC44C00E147130505803EC616
:101EA000EFE07F8E22C837440140B70708000C08D6
:101EB000130504803ECC02CA231E0100EFE07FD749
:101EC000854513050480EFE0BFDF05616FE08FB447
:101ED000EFE26FB041112E8901449309000463467B
:101EE000C400328541016FE04FB2B3078640C2079C
:101EF000C183BE8463F4F90093040004C204C1806A
:101F000033058900A68532C68D3526943246C1BF79
:101F1000138781811C43B7160020938646713E9536
:101F2000636BD500B78600209386068063E5A60024
:101F300008C33E858280FD57EDBF01112AC66C00A3
:101F40000546014506CE6937F240054505618280A8
:101F5000011106CE2EC60DCD1841AA8705C35841E2
:101F60007D5511CB8546631BD7009847230007009A
:101F700023A207000545F240056182809847B246DA
:101F800014A39847050798C7D8437D17D8C3DDB772
:101F900005466C00353FF9BF797122D426D24ECE6A
:101FA00052CC56CA06D64AD05AC82A8AAE8A328439
:101FB00081449309000263440602B3879A00838731
:101FC00007009DE363D6840263D2E402198C93F781
:101FD00026009309000281C719E393090003858A4B
:101FE00001499DE6228929A88504C1BF058CC5B792
:101FF0000144F1BFCE8552853AC6993F32477D19DB
:10200000E34A20FF22896353040001493304244139
:1020100063CBE402CA84B3872441D6978385070043
:102020009DED22896341200563530400014433057B
:102030009400B250225492540259F249624AD24A50
:10204000424B45618280B3049740268B9305000381
:1020500052857D1BF53DE31B0BFE269965BF52851E
:10206000C53D85044DBFCE855285DD357D195DBFEB
:102070005D71A6C252DC86C6A2C4CAC04EDE56DA64
:10208000BA843E8A95E1930700030147D2862686EB
:102090002C08FC841137B640264496440649F25970
:1020A000625AD25A616182802A893684C68A91CA6C
:1020B000A94701446317F60063D50500B305B04096
:1020C0000544A30701029307F102A546130568FC26
:1020D00033F7C50263D3E6002A9713070703A38FDC
:1020E000E7FE9389F7FF33D7C50263F7C50401CC38
:1020F000B9C413772A0021C79305D0024A8542C686
:10210000813D3248FD1493774A0099CF930710061A
:10211000930500034A85631CF8021D3D9305800763
:102120004A853D350904F9145687D2862686CE8520
:102130004A859D35229585B7BA85CE8751BF13074D
:10214000D002A38FE9FE01449389E7FF6DBF0935F3
:1021500093058005F1B71D71CAC8CEC6D6C2DAC0D4
:102160003A8986CEA2CCA6CAD2C45EDE62DC66DA2A
:102170006AD86ED633E7C500BE89AA8A428B8347E8
:10218000010629E385CF8D679387D7027C842305D9
:1021900001000147DA864E862C005685F53BF64055
:1021A0006644D6444649B649264A964A064BF25BEF
:1021B000625CD25C425DB25D256182809307000360
:1021C0007C84C1BF368AAE84328463000902A94789
:1021D0000149639CF600635A0600B304B040B3376C
:1021E00090003304C0401D8C0549A30F0100130D5E
:1021F000F101935DFA41A54C138C68FC5286EE8682
:102200002685A285EF00100C63D3AC006295130500
:102210000503A30FADFE5286EE862685A285930B9D
:10222000FDFF012B6366B40163988D0263F64403DE
:10223000630C09006386090293772B0095C393050D
:10224000D00256853133FD190147DA864E86DE8588
:10225000568599334A95A1B7AA842E845E8D79BF9D
:102260009307D002A38FFBFE0149930BEDFFE9BF5B
:102270005D71A6C2CAC0AA842E892E85B28586C683
:102280003ACE42CCA2C44EDE52DCB289368A56DA4D
:102290005AD8BE8A5ED662D466D2468C6AD0EF1017
:1022A000B0052A8BAE8B01468146CE854A85EF006C
:1022B000103A724762487D81BA872AC00547E28892
:1022C000D286DA855E86268579352A8D9305E002E9
:1022D0002685EFF0FFC7050D8147854C014429474E
:1022E00063CD57075A85DE85EF10D00C2A86AE865F
:1022F0004A85CE85EF10800C2A89AE896685A28535
:10230000EF10500B2A86AE864A85CE85EF00903FAF
:10231000EF10807E13D6F541318DB347B600B3057B
:10232000C5403335B5003386C74002C0E288D68742
:10233000D286098E094826850547313DB640264498
:102340006A9596440649F259625AD25A425BB25B88
:10235000225C925C025D61618280B3068702850720
:1023600033349703B30C970336949DBF5D715AD8ED
:10237000374B0000A2C4A6C2CAC04EDE52DC56DAF9
:102380005ED662D486C666D2AA892E893284014A74
:102390008144930B5002930AB002294C130B4B2A31
:1023A000830509008DE56386090081454E85EFF0C0
:1023B0003FBAB6402644268506499644F259625AE9
:1023C000D25A425BB25B225C925C6161828063881C
:1023D00075014E85EFF0DFB785040509D1B7830796
:1023E0001900930C1900639A7701930550024E85EA
:1023F000EFF01FB685046689CDB7D5D7638757053B
:1024000063C8FA00130730026384E704814705A01C
:102410001307D002638AE70013070003E398E7FE7F
:10242000930C2900894721A0930C29008547038735
:102430000C006303570563C1EA0293063002630B85
:10244000D70266890145A54535A8930C29007DBFB3
:10245000930C29009147E1BF9306D0026309D7008E
:1024600093060003E31FD7FC93E7270031A0850CF8
:102470008547C1BF93E74700850CE1B73305850366
:102480000509369503070900930607FD13F6F60FB5
:10249000E3F6C5FE1306E0029946631EC700050970
:1024A0008146254603070900130707FD9375F70FBB
:1024B0006375B602368A030709001306A00663098E
:1024C000C70A6341E6021306C0046303C70A130682
:1024D00080066308C70801461DA8B3868603050960
:1024E000BA96C9B7130640076304C7081306A007C6
:1024F0006300C7089305C0060146631AB700830549
:1025000019000D466394E500050911460509030706
:102510000900930500061308100663C4E5001308BC
:1025200010049305700663C2E506930550066359CF
:10253000B7169305700463CFE50213065004635188
:10254000C71693063004E31AD7E81840930C4400EA
:10255000A30E0100230EE100BE8601472A866C0807
:1025600071A0830519000146E393E5FA090945B70F
:10257000050995B793063006E309D7FC63CEE60656
:10258000930680056303D70289BD9306300763066F
:10259000D70463CDE6029306F006630BD70C9306CF
:1025A000000793E74700E31AD7E21147631BE60AE7
:1025B0001D04137784FF0C43504313048700C28823
:1025C00002C03E880147AA87C146B9A093065007BA
:1025D0006303D7069306800775B71840930C440031
:1025E000DA8511C3BA855287BE862A864E85EFF0FA
:1025F000BF9AAA946684D5B311476314E6021D04FA
:10260000137784FF0C43504313048700C28802C031
:102610003E880547AA87A9464E85EFF0DFB3AA9406
:102620006DBB0C40D28811042A87854629464E8509
:10263000EFF01FA4EDB71147631FE6001D041377E9
:1026400084FF0C43504313048700C28802C03E88B5
:102650000147AA87C9B70C40D28811042A8781464E
:10266000F1B70C40D28811042A8781464146C1B790
:1026700011476310E6021D04137784FF0C43504397
:1026800013048700C28802C03E880147AA87A1467A
:1026900061B70C40D28811042A878146214641BF88
:1026A0001D04137684FF130486000C425042330746
:1026B000D540C2887D173E884E85B687A946EFF083
:1026C0003FBBB1BF39712ED232D4AA85501001451B
:1026D00006CE36D63AD83EDA42DC46DE32C6EFF0D7
:1026E000FFC8F24021618280011122CC26CA06CEA9
:1026F0001C21AA840144DC878307F100050499EFBB
:10270000A9479305F10005460145DC87EFF04FFC32
:102710002285F2406244D2440561828005469305D9
:10272000F1000145EFF0CFFAB38784009C23DC87EA
:10273000E1B7B687B2882A832E88639B061463F8B4
:10274000C50A4167636BE61AB70700016360F63498
:1027500093568601E14717270000130767B936979C
:102760001823BA97130700021D8F19CB3398E50081
:10277000B357F500B318E60033E807013313E5005B
:1027800013D608013355C80293960801C1829357A6
:1027900003013377C802B385A60242073368F70006
:1027A000637AB80046989307F5FF63641801636580
:1027B000B8303E853308B8403357C802420313533C
:1027C00003013378C802B386E60242083368680022
:1027D000637BD80046989307F7FF63651801791764
:1027E0006363D8003E874205598D8145828001E6AA
:1027F0000547B358C702416763E8E80EB707000111
:1028000063EAF82893D68801E147172700001307E9
:1028100027AE36971423BE9693070002958FFDE7E7
:10282000939E08013387154113DF080193DE0E01E3
:102830008545935703013355E7033377E703B30621
:10284000D5034207D98F63FAD700C6971307F5FF60
:1028500063E4170163E5D7263A85958F33D7E703FD
:10286000420313530301B3F7E703B30ED703C207C1
:10287000B3E7670063FBD701C6979306F7FF63E5ED
:102880001701791763E3D70136874205598D828096
:1028900063E1D504C16763E1F604B707000163E3B0
:1028A000F61E13D78601614897270000938747A437
:1028B000BA979823130E00024297330EEE40631A24
:1028C0000E0C63EDB61C3335C5001345150081456C
:1028D00082808145014582809307F00F63F3D71C06
:1028E00013D786002148C9B71307F00FC686E37EC9
:1028F00017F193D68800A14709BF1307F00FB286DE
:10290000E37BC7E493568600A147B1B5B398F800BE
:1029100033D6D50013DF0801335EE6033397F500A5
:10292000B356D500558F939E080193DE0E013313E5
:10293000F50093550701B376E603B387CE03C206CD
:10294000CD8E63FBF600C6961306FEFF63E41617F2
:1029500063F2F616791EC6969D8E33D6E60393175C
:102960000701C183B3F6E6033385CE021397060150
:102970005D8F637BA70046979307F6FF6368171385
:102980006376A7127916469793150E01098FD18D9C
:102990004DB5B357E600B396C601DD8E33D3E500DF
:1029A00013DF0601B357E303939E060193DE0E0186
:1029B0003398C5013357E500336807019358080180
:1029C0003316C6013373E303B385FE024203B368D3
:1029D000130163FBB800B6981387F7FF63EAD80CBE
:1029E00063F8B80CF917B698B388B84033D7E80342
:1029F000420813580801B3F8E8033383EE02C20813
:102A0000B3E5080163FB6500B6951308F7FF63EDB6
:102A1000D50863FB65087917B695C207416FD98F52
:102A20001307FFFFB3F6E70093D80701718F4182C8
:102A3000B38EE602B3856540B386C60213D80E0195
:102A40003387E802BA96C2963386C80263F3E6007B
:102A50007A9693D80601469663E2C5026385C5005F
:102A60003E858145828041677D17F98EC206B3FE9F
:102A7000EE003315C501F696E374D5FE1385F7FF16
:102A80008145828013D70601414839BD935606011E
:102A9000C147D1B193D60801C14785BB81450545E2
:102AA00082803687014809B5428785BF3E86E9BDE9
:102AB000BA871DBF328E4DB579154698E5B979159F
:102AC000C69761BBB68732882A832E872E8E639184
:102AD000061463F0C50A41676376E61A1307F00F20
:102AE000B2866375C70093568600A147172700007A
:102AF000130707803697182393080002BA97B38804
:102B0000F840638C0800B3951501B357F5003318EE
:102B1000160133EEB7003313150113560801B357EE
:102B2000CE0213150801418193560301337ECE0274
:102B3000B307F502420E3367DE006378F700429771
:102B4000636507016373F70042971D8FB356C70291
:102B500093170301C1833377C7023305D5024207B8
:102B6000D98F63EBA7083385A740335515018145FD
:102B7000828001E605473358C7024167636BE80E60
:102B8000B70700016364F82A93568801E1471717D5
:102B900000001307E7753697182393080002BA97C9
:102BA000B388F840639A081E131E0801B3850541D7
:102BB00013560801135E0E0113570301B3D6C50265
:102BC000B3F5C502B386C603C2054D8F6377D70040
:102BD000429763640701636AD726158F3355C7028E
:102BE0004203135303013377C7023305C50342077A
:102BF000B367670063F8A700C29763E5070163F353
:102C0000A700C2973385A7403355150181458280BF
:102C10002A88E3EFD5F4C16763E5F604B70700013E
:102C200063E2F62013D38601E148971700009387EB
:102C3000276C9A9703CE070013030002469E3303C6
:102C4000C3416319030463E4B6006369C500330834
:102C5000C540958D333705013387E5404285BA85F8
:102C600082809307F00F63FBD71C13D38600A14823
:102C70006DBF1307F00FC286E37B07F19356880000
:102C8000A14731B7B70700016366F61A935686016C
:102C9000E147A9BDB357C601B3966600DD8EB3D830
:102CA000C50113D70601B3DEE802139F0601B3572F
:102CB000C501135F0F01B3956500DD8D13D80501C4
:102CC0003316660033156500B3F8E802B307DF0377
:102CD000C20833E80801637BF80036989388FEFF4A
:102CE0006363D8166371F816F91E36983308F840F6
:102CF000B357E802C205C1813378E802330FFF02FF
:102D0000131708014D8F637BE70136979385F7FF13
:102D10006369D7126377E713F9173697C20EC1625A
:102D2000B3EEFE001388F2FFB3F80E0193550601CF
:102D300093DE0E0133780601B38F08033307E741B2
:102D400033880E0393D70F01B388B802C298C69791
:102D5000B38EBE0263F30701969E41687D1893D53A
:102D60000701B3F70701C207B3FF0F01F695FE97FE
:102D70006362B70A630EB708B307F5403335F50051
:102D8000B305B740898D339EC50133D567003365E0
:102D9000AE00B3D5650082803318180133D7F50033
:102DA00013560801B356C702131E0801B357F500A6
:102DB000135E0E01B3951501DD8D93DE050133130E
:102DC00015013377C702B307DE0293160701B3E696
:102DD000D60163F8F600C29663E5060163F3F600D8
:102DE000C2969D8E33D7C60293970501C183B3F671
:102DF000C6023307EE0293950601DD8D63F8E50008
:102E0000C29563E5050163F3E500C295998D6DB345
:102E1000E374F5F63386C740B3B7C700B6979D8D08
:102E2000B28799BF13D30601C14801B59356080173
:102E3000C147B1BB93560601C1474DB9368381489E
:102E4000EDB3AE87E1BDC68E55B5429779B313D7C2
:102E50004501B7071000FD1713D846011377F77F18
:102E60009308F07F33FEB700AA8EF58FFD81328F75
:102E70001378F87FFD82630E1703630D180129E3B1
:102E8000B368AE00631F08005D8E01EE0143638CE2
:102E9000080421A8B3E8C7000943639608046DD36A
:102EA00005A0638408046385D50205438DCD7D5359
:102EB0001DA8B368AE00094363970802630AE802DD
:102EC000631408005D8E75D2E391D5FEE34FE8FCF4
:102ED00063490701E3EBC7FD630FFE000143637421
:102EE000FE00F1D505431A858280EDFE7D53E5BFD6
:102EF0005D8E79DACDBFE36ADFFB0143E3F5EEFFD8
:102F0000F5F175B739714AD813D945014ED652D467
:102F100056D29399C50006DE22DC26DA5AD05ECE60
:102F20001379F97F2A8A93D9C90093DAF501630DE1
:102F3000090E9307F07F6306F9181354D5018E0923
:102F4000B36934013704800033E4890093143500F9
:102F5000130919C08149814B13D74601139AC60042
:102F60001377F77FB285135ACA0013DBF601630BA0
:102F700007109307F07F6303F7049357D6010E0AF7
:102F800033EA4701130717C0B7078000B367FA0099
:102F9000931536003A99814833C76A01BD463A8590
:102FA0001308190063E83617171600001306463099
:102FB0008A09B29983A60900B2968286B367CA00CD
:102FC0001309F97F6399071293E92900814589481C
:102FD000E1B701479307F07F3704080081443204CA
:102FE000D20731807E075D8C598CA285F2506254E5
:102FF00026854259D254B259225A925A025BF24B58
:10300000216182805A853E84AE84C68B8947638D58
:10301000FB0E8D47E38FFBFA85472A87639EFB38BB
:1030200081470144814465BF33E4A90061C036C6CD
:1030300032C4638C092A4E85EF00F0522246B24614
:10304000AA87130755FF7544938487FF198CB3999A
:10305000990033548A0033643401B3149A0013D7AF
:1030600046011309D0C0139AC6001377F77F3309BE
:10307000F9408149814BB285135ACA0013DBF6012E
:10308000E31907EEB367CA00B1C7630F0A2252857E
:1030900032C4EF00504D22462A87930655FFF5476C
:1030A000930587FF958F331ABA00B357F600B3E73D
:1030B0004701B315B6003309E9401309D9C0814867
:1030C000E1BD33E4A90001ECA14981441309F07F7B
:1030D000894B59B593E919008145854875BD4E84E2
:1030E000AA84B1491309F07F8D4BBDB59149814444
:1030F0000149854B95B593E93900D2878D4869BD63
:1031000089475685E397FBF02A879307F07F0144B0
:103110008144F1B5C16E1386FEFF93D6040113DE20
:103120000501F18CF18D338695023383B6029358F5
:10313000060133059E021A95AA98B382C60363F36B
:103140006800F692C16F1383FFFF33F5670093D3D6
:103150000701B3F76800C207337366003E93330676
:10316000950293D80801B387A602135F0601B384C2
:103170009302BE94FA94B38E760263F3F400FE9E3B
:10318000416A9307FAFF935F0401B376F400B3F941
:10319000F4007D8EC1803384D502C209338FD401FF
:1031A000B299CE98B307DE02935E0401B385BF02E5
:1031B000AE97BE9E330EFE0363F3BE00529EC16700
:1031C0009385F7FF33F6BE006D8C4206229693DEA0
:1031D0000E01B305D502769E3385AF0213D40501E7
:1031E000B386D302AA96A296B38FF30363F3A60025
:1031F000BE9F41657D15B3F7A600C2076D8DAA97E6
:10320000B3855800B3B93501FA97B29533843701C5
:1032100033B6C500B30EC4013385CE003334340158
:10322000B3B7E701C18F33BECE0113D406013336E5
:10323000C5003E943366CE009394950032947E94FC
:10324000B3E46400260493567501B3349000DD8125
:1032500093179500CD8C558CDD8C9317740063DB30
:10326000070093D7140085889316F401DD8CD58C64
:10327000058042899307F93F6359F00893F674007B
:1032800081CE93F6F40011466388C600938644000D
:10329000B3B496002694B6849316740063D80600DF
:1032A000B70700FFFD177D8C930709409306E07F69
:1032B00063CFF60E93D634009314D4012604D58C34
:1032C000318093F7F77F21BB328532C4EF00B029FC
:1032D00093065501F147130705022246E3D1D7DCD7
:1032E0006115B317A6008145F9B3EF00D027130786
:1032F0005501F145930705022246B246E3D5E5D4D0
:1033000061153314AA00814499BB85469D8EB1E7AF
:103310001309E941B3972401B3D4D400331924012C
:10332000B337F000B3649900DD8C93F77400B356A3
:10333000D40081CF93F7F40011466388C7009387C8
:103340004400B3B49700A696BE849397860063D8D2
:10335000070485470144814459B113068003E341C2
:10336000D6CC7D46E356D6FA0556B307F64093050C
:1033700000023356F4006387B6001309E943B3171C
:103380002401DD8CB3349000D18C93F67400014499
:1033900099CA93F7F40011468146E392C7FA139451
:1033A00096003180F6068D80D58C81470DB9930744
:1033B000F07F0144814425B142896DBD370710007B
:1033C0007D1701113373B70093D84601758F935E53
:1033D000D60122CC26CA0E0393D445019357D501BA
:1033E0000E0706CE4AC84EC693F8F87F130EF07F3C
:1033F00033E7EE0093F4F47F13D4F50133E3670071
:10340000131F3500FD82931E36006380C81993C6D2
:103410001600B38514416305D4126351B018638B51
:10342000081AB70780005D8F6380C4599307800333
:1034300063C3B734FD4763C4B748930700028D8F59
:10344000B3D9BE003318F700B39EFE0033683801CD
:103450003357B700B339D001336838013303E34041
:10346000B3090F41B3373F013306F340931786008A
:1034700063D30724370980007D1933792601630F50
:10348000092C4A85EF00300E130785FF93070002D1
:10349000998FB3D7F9003316E900D18FB399E900BA
:1034A0006344972A058F13061700FD4663C4C63A86
:1034B00013070002118FB3D6C9003398E900339780
:1034C000E700558F33380001B369070133D6C700D1
:1034D000814493F7790081CF93F6F900914763888F
:1034E000F6009386490033B836014296B6899317A1
:1034F000860063D6071C138714009307F07F0588A6
:103500006306F720B70780FFFD17F18F1398D701E7
:1035100093D93900A60733683801B1831377F77F51
:103520009396C7005207B1827E04D98EC18EF240B5
:103530006244D2444249B2494285B68505618280DF
:103540006356B00A638A0812B70780005D8F6386EE
:10355000C42D9307800363C7B718FD4763D1B73CF9
:10356000138805FE93070002B3590701638AF5002B
:1035700093070004B385B7403317B700B3EEEE00EE
:103580003338D0013368380195A2B367D7019385EA
:10359000148099E393C61600630AD404D1E193879B
:1035A000140093F7E77F6398071EB367E30133685E
:1035B000D701639204166381073C63150842131810
:1035C00035009316D3011358380033E8060193579A
:1035D000330019A2B367D7016384071A9387F5FFF5
:1035E000638A073A638BC523BE8589B56398051C3A
:1035F0009386140093F7E67FC1EFB367E301639FFF
:103600000434638C0744B367D701639307460E0500
:103610001318D3010D813368A800935733006DA8A8
:10362000B385984063960420B367E301638C073049
:103630009387F5FF638807401305F07F6382A52019
:10364000BE859307800363C1B72AFD4763C7B73CB4
:10365000930700028D8F3318F3003356BF00B31762
:10366000FF003368C800B339F0003353B300336848
:10367000380133076740ADACB367D70163820710E9
:103680009387F5FF638E071E638FC52DBE85D1B569
:103690009307F07F638BF606FA9E33B6EE01B3070D
:1036A000E300B2971398F70193DE1E00B369D801C7
:1036B00013D61700B68493F77900E39F07E09317BA
:1036C000D60113D839003368F800A6859357360021
:1036D0001307F07F6380E506B207B18313F7F57F28
:1036E00005883DBD3367D7013338E000B309E801F1
:1036F000B3B7E9013386670093178600E3DD07FA65
:1037000085049307F07F639BF41805881307F07F07
:103710008147014831B5639007106300083C1318D6
:1037200036009317D701135838003368F8003684F1
:1037300093573700B367F800E9DB01441307F07FC4
:10374000B70708000148E9BB370680FF7D167D8E6C
:1037500093F77900998CE39107D895B74E85212589
:1037600013078501FD47E3D3E7D2130685FFB3971F
:10377000C900814935B33368D70133380001CDB171
:10378000131835009317D301135838003368F80025
:103790009357330035BFB309DF413309E340333674
:1037A0003F013309C9409317890063CA072033E8F2
:1037B0002901E31608CC8147014439BFB3859840FD
:1037C00063810414B70680009307F07F3363D3004E
:1037D0006381F8209307800363CCB722FD4763C958
:1037E000B72C930700028D8F3318F300B356BF0038
:1037F000B317FF003368D800B339F0003353B30078
:10380000336838011A97B309D801B3B7D9013386A1
:10381000E700C684D5B5E31208F2131835009317F4
:10382000D301135838003368F8009357330019B7A1
:10383000370580009307F07F3363A300E393F8E03C
:103840000E061318D7010D823368C800935737004E
:103850003684CDB505179306000233D7E700630A17
:10386000D600930600043386C6403396C700B3E9FA
:10387000C90033383001B369E8000146814425BDF1
:10388000B309DF01B307E30033BFE9013386E70182
:10389000931786008544E3D007E28944B70780FF89
:1038A000FD17F18F13D7190013F8190033680701BA
:1038B0009399F701B3E9090113D6170019B91388D1
:1038C00005FE93070002B3590701638AF5009307C9
:1038D0000004B385B7403317B700B3EEEE003338BA
:1038E000D00133683801ADBE3363E3013338600083
:1038F000B3890E41B3B73E013306F740C684368420
:10390000B5B6B367E301638707189387F5FF638C48
:10391000071C9306F07F638ED50ABE8565BD9307AD
:1039200000028D8FB3D9BE003318F700B39EFE009E
:10393000336838013357B700B339D00133683801E1
:103940003A936DB3131836009317D7011358380004
:1039500033E807013684935737009DBBBDCB3367EF
:10396000D701E31C07DC0E051318D3010D81336862
:10397000A800935733007DBBE30F08E2131836000D
:103980009317D701135838003368F80036849357DB
:10399000370099B3B309DF41B307E340333F3F0139
:1039A0003386E7418544D9B4131835009316D30103
:1039B0001358380033E8060193573300A5BBB38989
:1039C000EE413306674033B93E0133092641368460
:1039D0007DB40E061318D7010D823368C8009357C3
:1039E000370089BBB309DF41B307E34033363F01FA
:1039F0003386C7409317860063D7070AB389EE4121
:103A0000B3076740B3BE3E013386D7413684D1B495
:103A10003363E30133386000FDB3138805FE930779
:103A20000002B3590301638AF50093070004B385CC
:103A3000B7403313B300336F6F003338E00133689E
:103A400038017DB5B389EE41B3076740B3BE3E018F
:103A50003386D7413684854411BC1318360093173A
:103A6000D701135838003368F80093573700ADB1C9
:103A7000B309DF01B307E30033BFE9013386E70190
:103A800093178600E3D907C2B70780FFFD177D8E25
:103A9000854415B10E061318D7010D823368C8008E
:103AA0009357370035B133E8C900E30608D021B198
:103AB000138805FE93070002B3590301638AF500DA
:103AC00093070004B385B7403313B300336F6F001F
:103AD0003338E001336838013DB301441307F07F08
:103AE000B707080035BCB309DF01B307E300B3BE75
:103AF000D9013386D70169BB3707100093D7450139
:103B00009306F7FF93F7F77F1308E03FED8E13D688
:103B1000F5016353F8029305D04363D2F50285455E
:103B2000918D3305B04013D6F541B7050080B3370A
:103B3000A000918D9D8D8280014581458280130872
:103B40002043B3E5E6006354F8021387D7BA93879E
:103B5000D7BC63450704B315E500014565D23305BD
:103B6000A040B337A000B305B0409D8D828093067E
:103B700030439D8E7D47634CD7001387D7BE339764
:103B8000E5003355D500598DB3D5D500C1BF130518
:103B900030411D8D33D5A5008145C9B7FD4613576A
:103BA00015009D8E3357D700B395F500D98D331589
:103BB000F5006DB7011106CE22CC26CA4AC84EC602
:103BC000B367B50095CFAE84AA8913D9F50163CD4B
:103BD00005042684A5C4268579229306E043898EB0
:103BE0009307304363C9D7089397C4002D464E8787
:103BF00093F6F67FB1836359A600130655FFB1A86B
:103C00000149814681470147B207F2406244D2062A
:103C1000B1837E09D58FB3E72701D2444249B24927
:103C20003A85BE85056182803305A040B336A00089
:103C3000B304B040958CAA892684D1FC4E852522F8
:103C40002A869306E04313050502898E9307A00296
:103C500093F6F67F63C7A70C55061307B002098FCA
:103C6000B397C40033D7E9005D8F9317C700B183C2
:103C70003397C90051BF9307604363DBD7022147E5
:103C8000098F930507FE63C2050CB3D5B400014745
:103C90001306850193078503634C06083396C90014
:103CA0008149B3E9C90033363001B3E9C5003A842C
:103CB000A1474E8663C9A704B70780FFFD17937518
:103CC00076003377F40085C59375F600114863805C
:103CD00005039305460033B6C500329713168700D7
:103CE000635106089306F0437D8F898E2E86135507
:103CF0003600931797001316D7013367A600B183D8
:103D000093F6F67F11B793078002930585FF898F9D
:103D1000B3D7F9003317B40033E4E7003396B900A2
:103D200061BF5516B397C900B207B1830147E9BD1A
:103D30007D4613D819001D8E3358C8003396F40001
:103D40003366C800B399F900A9BF7D46198E9397D1
:103D50001400B3D5E900B397C700DD8D33D7E40075
:103D600005BF2E8669B7C167637CF5029307F00F24
:103D70001307000263EBA7009707000093874757DC
:103D8000AA9788233305A7408280218197070000E6
:103D900093870756AA97882361473305A7408280F7
:103DA000B7070001636DF5006181970700009387F5
:103DB0002754AA97882321473305A7408280418151
:103DC000970700009387C752AA9788234147330576
:103DD000A74082809387C181AA8588438DA293875B
:103DE000C181AA85884355A8B3C7A5008D8B330729
:103DF000C50081E78D4763EDC700AA87637EE508AC
:103E0000942185078505A38FD7FEE3EBE7FE82802B
:103E100093763500AA8789CA942185078505A38FE3
:103E2000D7FE93F63700C5BF9376C7FF138606FE0D
:103E300063F0C70683A3050083A2450083AF850016
:103E400003AFC50083AE050103AE450103A38501A1
:103E500083A8C5019385450223A0770003A8C5FF69
:103E600023A2570023A4F70123A6E70123A8D70123
:103E700023AAC70123AC670023AE1701938747022B
:103E800023AE07FF75B790419107910523AEC7FE9A
:103E9000E3EBD7FEE3E6E7F68280CDC183A7C5FF5B
:103EA000411122C406C626C21384C5FF63D307008E
:103EB0003E94AA8469229387C1869C4399EB23226E
:103EC000040023A681862244B24026859244410103
:103ED00085AA637EF40014403307D4006396E7009C
:103EE0009843DC43369718C05CC0E1BFBA87D8431B
:103EF00019C3E37DE4FE94433386D700631F860035
:103F00001040B29694C33386D700E31EC7FA10431D
:103F10005843B29694C3D8C37DB76375C400B14704
:103F20009CC055B71040B306C4006316D7001443B5
:103F30005843B29614C058C0C0C371B782800111F3
:103F400026CA93843500F19806CE22CC4AC84EC6C4
:103F5000A104B14763F1F404B14463E0B4042A89D5
:103F6000F9289387C18698433A8431E09387018783
:103F70009C4391E781454A85512823A8A186A685BF
:103F80004A856920FD5963173507B1472320F90099
:103F90004A857D2029A0E3D204FCB1471CC101451C
:103FA000F2406244D2444249B249056182801C40D9
:103FB000858F63CE0702AD4663F6F6001CC03E94C3
:103FC00004C031A05C406312870223A6F1864A85B3
:103FD00085281305B4009307440061993307F54021
:103FE00061D33A94898F1CC065BF5CC3CDB722876B
:103FF0004040A5BF130435007198E30385FCB30569
:10400000A4404A852120E31D35FB41B7411122C45C
:104010002A842E8597D7FF1F23AE076E06C6EFD0E2
:104020003FEFFD576319F50097D7FF1F9387876E02
:104030009C4391C31CC0B2402244410182808280D3
:10404000828000005B4641554C545D206D61736B6E
:104050003D307825303458206461633D25752061FA
:104060006464723D3078253032582D3078253032F6
:10407000582D3078253032582D3078253032580D73
:104080000A0000000D0A3D3D3D20456C65637472D9
:104090006F6E6963204C6F616420436F6E74726F42
:1040A0006C6C6572203D3D3D0D00000053797374CA
:1040B000656D436C6B3A25640D0A000043686970B6
:1040C00049443A253038780D0A0000005553422DF6
:1040D00043444320656E756D6572617465640D00BF
:1040E0005553422D4344432074696D656F75742C9C
:1040F00020636F6E74696E75696E670D0000000055
:104100004932433120696E69742E2E2E0D00000055
:10411000493243312072656164790D0072656376BE
:10412000202564203E3E3E0A000000000A3C3C3C44
:10413000000000004E14000044130000DE110000D7
:10414000B4130000DE110000D61200003612000089
:10415000DE1100001C1300003213000048140000A0
:10416000E01200000D0A3D3D3D20555341525431AF
:10417000204F4B20283131353230302C384E312908
:10418000203D3D3D0D0A000050726F746F636F6CEF
:1041900020696E69743A20555341525431203131AF
:1041A0003532303020384E3120286E6F20706172E9
:1041B000697479292C2072696E672062756666655C
:1041C000722025642062797465730D0A0000000076
:1041D000634A534F4E206172656E613A2025642018
:1041E0006279746573206174203078253038580DF9
:1041F0000A0000005553422D43444320696E697400
:1042000069616C697A65640D000000000902430071
:1042100002010080320904000001020201000524AD
:1042200000100105240100010424020205240600F7
:10423000010705810340000109040100020A000092
:10424000000705020240000007058302400000004D
:104250001201100102000040861A0CFE010001024A
:10426000000100000E037700630068002E00630069
:104270006E0000001603550053004200200053005A
:1042800065007200690061006C00000016033000D8
:10429000310032003300340035003600370038007A
:1042A00039000000286E756C6C29000068EEFFFF75
:1042B0005AEDFFFF5AEDFFFF58EDFFFF60EDFFFFE6
:1042C00060EDFFFF26EDFFFF58EDFFFF60EDFFFF04
:1042D00026EDFFFF60EDFFFF58EDFFFF54EEFFFFFF
:1042E00054EEFFFF54EEFFFF26EDFFFF0001020238
:1042F000030303030404040404040404050505057E
:104300000505050505050505050505050606060659
:10431000060606060606060606060606060606063D
:104320000606060606060606060606060707070729
:10433000070707070707070707070707070707070D
:1043400007070707070707070707070707070707FD
:1043500007070707070707070707070707070707ED
:1043600007070707070707070707070708080808D9
:1043700008080808080808080808080808080808BD
:1043800008080808080808080808080808080808AD
:10439000080808080808080808080808080808089D
:1043A000080808080808080808080808080808088D
:1043B000080808080808080808080808080808087D
:1043C000080808080808080808080808080808086D
:1043D000080808080808080808080808080808085D
:0C43E00008080808080808080808080871
:1043EC00400041014202430344040000000000006D
:1043FC000000000001020304060708090000000089
:10440C00010203040102030406070809000000006E
:10441C000000000000000000000000000000000090
:10442C000000000000000000000000000000000080
:10443C000000000000000000000000000000000070
:10444C000000000000000000000000000000000060
:10445C000000000000000000000000000000000050
:10446C000000000000000000000000000000000040
:10447C0000D8B80502040608DE3D0000D43D00005B
:10448C0000C2010000000800141700202C000020BE
:08449C00040309040000000004
:00000001FF
