:040000006F00E07538
:100004000000000000000000C8020000CA02000056
:10001400000000005C070000000000000000000079
:100024005C0700005C070000000000000000000006
:100034005C070000000000005C07000000000000F6
:100044005C0700005C0700005C0700005C07000020
:100054005C0700005C0700005C0700005C07000010
:100064005C0700005C070000DA0200005C07000087
:100074005C0700005C0700005C070000BE05000090
:100084005C0700005C0700005C0700005C070000E0
:100094005C0700005C0700005C0700005C070000D0
:1000A4005C0700005C0700005C0700005C070000C0
:1000B4005C070000880300005C0700005C07000088
:1000C4005C0700005C0700005C0700005C070000A0
:1000D4005C0700002E0500005C0700005C070000C0
:1000E4005C0700005C070000000000005C070000E3
:1000F4005C0700005C0700005C0700005C07000070
:10010400000000005C0700005C0700005C070000C2
:100114005C0700005C0700005C0700005C0700004F
:100124005C0700005C0700005C0700005C0700003F
:100134005C07000000000000000000000000000058
:100144000000000000000000000000008A11000010
:100154000000000000000000000000005C07000038
:100164005C0700005C0700005C0700005C070000FF
:100174005C0700005C0700005C0700005C070000EF
:100184005C0700005C0700005C0700005C070000DF
:100194005C0700005C0700005C0700005C070000CF
:1001A400000000000000000000000000000000004B
:0C01B4000000000000000000000000003F
:1001C000397101436EC619A0397141536AC866CAB4
:1001D00062CC5ECE19A0397101535AD056D252D496
:1001E0004ED64AD826DA22DC06DE3301614082820E
:1001F00041114AC026C222C406C68282B24D4101C4
:10020000024D924C224CB24B4101024B924A224A7F
:10021000B2494101024992442244B24041018280E4
:100220003D432A876373C3029377F700BDEFADE5C3
:10023000937606FF3D8ABA960CC34CC30CC74CC7D5
:100240004107E36BD7FE11E28280B306C3408A0602
:100250009702000096966780A6002307B700A306C2
:10026000B7002306B700A305B7002305B700A30412
:10027000B7002304B700A303B7002303B700A3020A
:10028000B7002302B700A301B7002301B700A30002
:10029000B7002300B700828093F5F50F9396850091
:1002A000D58D93960501D58D61B79396270097025A
:1002B000000096968682E78086FA9680C1171D8F89
:1002C0003E96E374C3F8A5B701A0B707EFBE37E7C2
:1002D00000E0938707083CC701A0797122D64AD273
:1002E0003709002026D44ED052CE56CC93870183B6
:1002F0009304090923900700138A8400138401835F
:1003000093090909854A9305E10026852317010011
:10031000EF10B06009ED8317E10063DA07009C304D
:100320001A20B397FA00D98FC207C1831EA089048F
:10033000E39B44FD9304800873B004800F10000019
:100340000145EF10004B73A0048005472389E1822B
:100350000E2003C8690003D6418303C7290083C761
:100360004900834609093745000013058573EF20CE
:100370001022414559253254A25412598259724AC9
:10038000E24A456173002030411122C63704004023
:1003900091451305044026C4EF00D03705C9130565
:1003A0000440EF00F036AA84914513050440EF00A5
:1003B000F03783A7C185B387F44023A0F18623AE2D
:1003C000918405472383E186239201863244A24427
:1003D000410173002030EFF2BFE141110945EF0008
:1003E000B011F524EF20C00D716513050520EF2035
:1003F0004016EF103057EF10706A374500001305B4
:100400008577EF20B01DEF10F0253745000013056C
:100410008578EF20B01C3704002013050409EF1085
:10042000B04B1304040910206311050E374500007A
:10043000814513054579EF20901508201306F1003A
:100440009305E00FA3070100EF10006BAA85374565
:1004500000001305C57CEF2090138C873744000003
:100460001305847DEF20B012EF1060301305803E3D
:10047000EF102038AA85374500001305057EEF20D0
:1004800010119305F1001305C004EF1090048C8740
:100490001305847DEF20B00FEF20A000374500004A
:1004A0001305457FEF20901383A581803755000009
:1004B0001305C581EF20B00D152EAA853755000014
:1004C0001305C582EF20B00C1304501F268983C783
:1004D000218493F7F70F99E37D1429E083C72184E2
:1004E00093F7F70FA1C3375500001305C583EF201D
:1004F000F00EEF107072138781831C4313054006C2
:1005000085071CC3EF208001EDB7AA8637450000A0
:1005100081451305C57AEF20900705B72945EF10EF
:10052000F07F75B73755000013050585C9B7011170
:100530004EC8B7490140930540421385098022CE39
:1005400026CC4ACA52C6EF00902F35C13709024067
:10055000032AC90503C4C19713098905814513748A
:10056000F40F933714004A85238EF1963D219305AD
:1005700000084A85B12183C7C1979384C1978545F7
:100580009E078507A6972326F9004A8539211385FA
:100590000980EF00B02993050008B3854541131584
:1005A00074000505C205C1812695EF10D05872442C
:1005B000E2445249C249324A056173002030411178
:1005C00026C422C603C4C1974AC237090240137425
:1005D000F40F93371400130589058145238EF19696
:1005E0006D2E1305890593050008D92E83C7C19781
:1005F0009384C197130589059E078507A6975CC557
:100600008545612E13157400050526959305000890
:10061000EF10705237050200E12E3244A244124915
:10062000410173002030B71702409843B706FFF02E
:100630001367170098C3D843758FD8C39843B7067C
:10064000F7FEFD16758F98C39843B706FCFFFD169D
:10065000758F98C3D843B70601FFFD16758FD8C3B1
:1006600037079F0098C7B746024003A70680136765
:10067000070123A0E680D843B706C1FFFD16D8C303
:10068000D843D8C3D84313670740D8C3D843758F1E
:10069000D8C3D843B7062800558FD8C39843B706A8
:1006A0000001558F98C3984393166700E3DD06FE5B
:1006B000D843B7160240719BD8C3D84313672700AD
:1006C000D8C32147DC42B18BE39EE7FE8280B71698
:1006D0000240DC421146B18B138781806385C700DD
:1006E00021466388C702B7177A00938707201CC387
:1006F000B7170240DC43918393F6F700B707002059
:1007000093870700B69794231C43B3D7D7001CC325
:100710008280DC42D4424166C983BD8BF18E890759
:1007200045466393C700C94781EEB746024083A69A
:100730000680C18A89CEB7167A009386062021A842
:10074000B7160240D4421396E600E35606FEB716EB
:100750003D0093860690B387D70251BF01A0970151
:10076000002093812113178100201301A1891745CF
:1007700000001305E55E970500209385A588138684
:10078000018363FAC5008322050023A055001105EB
:100790009105E3EAC5FE1385018397150020938533
:1007A00025086377B500232005001105E36DB5FE2C
:1007B000FD42739002BCAD4273904280B76200006C
:1007C0009382820873900230970200009382C28362
:1007D00093E2320073905230EFF0FFE49702000092
:1007E0009382A2BF7390123473002030B7F7FF1FBB
:1007F00003A5477082801C4141677917F98F1CC19E
:10080000232005002322050023240500B70702400A
:1008100023260500138787006317E500D843136775
:10082000F700D8C382801387C7016316E500D84359
:100830001367070FFDB7138707036318E500D84355
:100840008566938606F0558FE9BF138747046315C5
:10085000E500D843BD66C5BF138787056316E5006D
:10086000D843B7060F00C5B71387C7066316E50060
:10087000D843B706F000C1BF138707086316E50029
:10088000D843B706000FC1B7138787406319E50047
:1008900003A747401367F70023A2E740828013872E
:1008A000C7416317E50003A747401367070FEDB77C
:1008B00093870743631BF500B707024003A7474030
:1008C0008566938606F0558FC1BFB7070240138730
:1008D00047446316E50003A74740BD66EDB713879D
:1008E00087456317E50003A74740B7060F00E1BF40
:1008F0001387C7466317E50003A74740B706F00014
:10090000D9B7138707486317E50003A74740B70621
:10091000000F55BF138707496319E50003A7474D2B
:100920001367F70023AAE74C82801387074A6317EF
:10093000E50003A7474D1367070FEDB71387074B74
:100940006319E50003A7474D8566938606F0558F2A
:10095000D1BF1387074CE319E5FC03A7474DBD66DC
:10096000FDB71C4161773D0794517D8F9C45D58F24
:100970009449D58FD449D58F944DD58FD44DD58FEB
:10098000D451D58F9455D58FD98F1CC1DC455CC10E
:100990009C411CC5DC415CC582801C4189C593E734
:1009A00017001CC1828041677917F98FDDBF1C4198
:1009B00001C6DD8D0CC1828093C5F5FFFD8DDDBFC5
:1009C0004CC182809317350063D70700B7070240F8
:1009D00023A2A74082809317250063D70700B7079B
:1009E000024023AAA74C8280B7070240C8C3828076
:1009F000EFF21F80C13F6FF0FF81B707014023AACC
:100A0000A7408280EFF2CFFE854505457D218145D7
:100A1000054565216FF01F809C4513F7070113F80A
:100A2000F70001C7D8413368E8008E2113F7F50FAE
:100A300039C318418146854E3D4F930F8002930282
:100A40008004214E3396DE00B3F8C500631116030F
:100A50009398260033131F011343F3FF3377E3000A
:100A6000B318180133E7E800639FF70550C98506FE
:100A7000E39AC6FD18C11307F00F6375B70454411C
:100A80002146854E3D4F930F800293028004414ED4
:100A9000B398CE0033F715016392E80213172600CE
:100AA00001173313EF001343F3FFB376D30033176B
:100AB000E800D98E639DF701232A15010506E31985
:100AC000C6FD54C18280E39457FA10C94DB7E3972D
:100AD00057FE23281501DDB708456D8D3335A0007D
:100AE00082800CC9828019C20CC982804CC9828064
:100AF000EFF20FF0B7570040938707408545631B1F
:100B0000F50037052000C92E814537052000E9266C
:100B10006FF04FF037054000C12681453705400092
:100B2000FDB7EFF2EFEC797146212A8468082EC6F2
:100B30002D24925737470F001307072433D7E702B6
:100B4000C204C18093F404FCC2049306C003C180B4
:100B5000B24563F4E6001307C00313160701418290
:100B6000D18C46A0162061651305056AC206C182B4
:100B7000F99AC206C18216A094416369D50486061B
:100B8000B3D7D7029146139707014183BA8763739E
:100B9000D700914705064206C2074182C18312B0C1
:100BA0005EAC1E20DA21B62593E717001EA01E209A
:100BB000558FC207C18393F757BFD98F1EA09A25BF
:100BC000DE25D98F1EA445616FF0CFE4EA2131669E
:100BD0007D16631DC5020D46B386C602B3D7D70284
:100BE000C207C1839396470199E293E71700A16674
:100BF000D58F9306C0123307D7029306803E334742
:100C0000D7020507420741831AB059BF6546B3862C
:100C1000C602B3D7D7029166C207C183D58FD9B7B1
:100C20001E2189C593E717001EA18280C207C183D8
:100C3000F99BC207C183CDBF1E2189C593E7071069
:100C40001EA18280C207C18393F7F7EFC207C18359
:100C5000C5BF1E2189C593E707201EA18280C20758
:100C6000C18393F7F7DFC207C183C5BF1E2189C5C2
:100C700093E707401EA18280C207C18393F7F7BFA5
:100C8000C207C183C5BF0EA982800A291375F50F5B
:100C9000828093F7E50F19C293E71500C207C1835D
:100CA0001EA982805E290A2D42055D8D6D8D22056B
:100CB00021810D8D133515008280411102C402C6B9
:100CC00093D7C5012AC63EC4A247A205A18199CBEC
:100CD000B247D1073EC6B247884341016D8D3335D7
:100CE000A0008280B247C181E107EDB793C5F5FF4F
:100CF000C205C1814EA9828023AEA182828003A752
:100D0000C183894710216311F70214318D4763EDC8
:100D1000D7003C219A0637E700E09607D58F93F776
:100D2000F70F32972300F740544105479357560079
:100D30003317C70089CA938707048A07B7E600E01C
:100D4000B69798C3828093870706B7E600E08A07C4
:100D5000B69798C30F1000008280371702405C439B
:100D60009146B18B6385D700A1466382D706B7173A
:100D70007A00938707201CC1371602405C42370770
:100D80000020130707019183BD8BBA9794231C4160
:100D9000B3D7D7005CC15442A1829D8ABA969422EF
:100DA000B3D6D70014C55442AD829D8A3697182316
:100DB000B3D7E7005CC55842398393763700138771
:100DC000C18036971823B3D7E7021CC982805C43E1
:100DD00054434167C983F98E37F7FF1F0327C77054
:100DE000BD8B890713161701634806004546014766
:100DF0006392C702C94739A809476389E7023D479B
:100E00006388E70241476388E702454601476393E9
:100E1000C700C14785E6B746024083A60680C18A5F
:100E20008DC6B7167A009386062025A00147D9B74C
:100E30000547B547C5B70147BD47E9BFB7160240EB
:100E4000D4421396E600E35E06FCB7163D00938697
:100E50000690B387D7021CC105D31C41858321BFEF
:100E600099C5371702405C4B5D8D48CB8280B71720
:100E70000240D84B1345F5FF798DC8CB828099C5C8
:100E8000371702401C4F5D8D08CF8280B717024094
:100E9000984F1345F5FF798D88CF828099C5371714
:100EA00002405C4F5D8D48CF8280B7170240D84F1B
:100EB0001345F5FF798DC8CF828099C53717024059
:100EC0005C475D8D48C78280B7170240D8471345FD
:100ED000F5FF798DC8C7828099C5371702401C4B32
:100EE0005D8D08CB8280B7170240984B1345F5FF04
:100EF000798D88CB8280B7170240D843B70640FF70
:100F0000FD16758FD8C3D8435A05598DC8C3828042
:100F10000A3D82801E294A25ED8F4205418189C7FD
:100F20006D8D3335A00082800145828093C5F5FF29
:100F3000C205C1810EA98280EFF28FAB1629F57729
:100F4000FD17F58FF621DA257971D58F1EA9562563
:100F5000FD779387379FF58FD6212A842EC6D58FAC
:100F60009625D58FB625D58F5EA55E29C207C1838C
:100F700093F7F7CFD98F5EA96808C533B74701400B
:100F800093870780B245631EF402A2576547B38773
:100F9000E7029841930640060A07B3D7E70233D722
:100FA000D702B3F7D7021207920793872703B3D765
:100FB000D702BD8BD98FC207C1831EA445616FF0D4
:100FC0006FA59257E1B791C55E250967D98F5EA5D8
:100FD00082805A25F977FD17F98FD5BF13F7F50FE2
:100FE00085471583B395B7006319F7009307C500CC
:100FF000984301CED98D8CC38280894693074501E1
:10100000E318D7FE93070501E5B793C5F5FFF98D02
:10101000DDB75E2901C6DD8D4EA9828093C5F5FF3F
:10102000FD8DDDBF93F5F51F4EA182804A2113751A
:10103000F51F82800A216D8D3335A000828013F761
:10104000F50F85461583B397B6006311D7025A256D
:10105000F98F1A2101454207418381CB0545A181C2
:10106000B315B5006D8F3335E00082808946631477
:10107000D7001A29F1BF5A29E1BF19C5184123AA7F
:10108000E180584123A8E1808280EFF26F9603A7A8
:101090008180B74795089387074009456300F702A9
:1010A000B7E7B8059387078005456309F700B77769
:1010B000DC02938707C06314F70001452D3D854589
:1010C0000565793B6FF00F95B707005013070004D3
:1010D000D8A713078004D8B71387C18798CB138785
:1010E000C18BD8CB1387C18F98CF1387C193D8CF2B
:1010F000A3890702A38D0702239A0702239E0702F2
:1011000009472389E702238BE702238FE7029387AE
:10111000418423800700A380070023810700A38167
:10112000070023820700A382070023830700A3830D
:1011300007008280EFF2CF8B3704005099471CA044
:101140001DC52945EF10203A9D47230004003CA00F
:10115000930790021CA08D3F930710F81CB037072F
:101160000800B7E700E023A4E7106FF0AF8A294535
:10117000EF106037B7E700E02300040037070800EE
:1011800023A4E7180F100000CDB7011122CE26CC02
:101190004ACA4EC852C656C43704005078207C3024
:1011A0001377F70F937627006387065693F7F70FA9
:1011B00013F70703930500026309B70293060003C0
:1011C0006302D71861EB13F7F70363080712894727
:1011D0006312F70C8347B40393C74700A30DF402CF
:1011E000938741842381070075A093F7F703930643
:1011F0001002638ED70A93063002638DD70C639B6F
:10120000E708938701859E2393840185C207C183E4
:1012100081E79147A309F40283C7218593F7070665
:10122000B5EB83C7C184154793F7F70F638BE704CA
:1012300019476391E7069E201307F0031304000487
:101240006365F700822042044180138981858329E8
:1012500009002286CE851385C187EF3020289E2085
:10126000A29923203901818FC207C1839EA0B707AD
:10127000005082BB03C72703134747002389E702B7
:1012800011A8370700503C3383C6018493F7070841
:10129000D58F3CB3B70700500947F8A37244E24426
:1012A0005249C249324AA24A05617300203083473D
:1012B000640393C74700230BF4028347640393F747
:1012C000C70F93E72700230BF40293874184A38081
:1012D0000700C9B78347E40393C74700230FF4020D
:1012E0008347E40393F7C70F93E72700230FF40224
:1012F00093874184A381070071BF1A2493F70704E1
:10130000D1DB83C721859386018593F707068DC3BB
:101310002390060083C7C184639CF5001387C187AF
:1013200070230C435A23938781818CC3DAA3F0A3E3
:101330009E22C207C183B9FFB70700502398070256
:1013400011472DBF99472309F402A309F40293869C
:10135000C1879C22138621851CA29C3203D866007B
:101360001387C1841CA383D826009387018523900B
:101370000701138841852310180183D8460013887C
:10138000E18423101801034806001389018593891D
:101390002185137808061386C18793874185938634
:1013A000E1846302080A83C709009384818593F767
:1013B0000702BDCF1C231307100293F7F70F6385B5
:1013C000E706636BF70401446384B7001304F00F6E
:1013D000835709001307F003130A00046367F7003B
:1013E000035A0900420A135A0A0183AA04005286CA
:1013F0001385C187D685569AEF30400E23A044014D
:101400009307F00F6313F410B70700501D472389AB
:10141000E702A389E702BDBD130730021304F00FF2
:10142000E368F7FA01446DB7938781819CC0DDBF03
:1014300003C4090019801344140005883304804054
:101440001374F40F71B71823AD451377F70FE3ED5D
:10145000E5FA95650A07938505872E971843028755
:101460009A2389462183938481856306D7020D469A
:10147000630EC70285476316F7049567138707BC99
:1014800083C707BC98C0014403570900E3F2E7F49F
:101490002310F90035BF15671307C7B73C3398C051
:1014A0003823A207BA97C207C183F1BF9E2305461E
:1014B00093F7F70F6381C70289CB6385D702638AED
:1014C000E70281471304F00FC1B71387818298C0E8
:1014D00083C781824DBF9567138747BD98C083C777
:1014E00047BD55B79567138747BE98C083C747BEAA
:1014F00059BF95671387C7BF98C083C7C7BF61B778
:101500009E2393F7F70F2380F18483C70900E20736
:10151000E18763D8071E035709009307000463E6B9
:10152000E70083570900C207C183035709001D8FD5
:10153000420741832310E900370700501EBB914743
:101540002309F70281BB83C711841CA2035709003A
:101550008547E3FCE7FA2310F90045BF9E2393F784
:10156000F70FA380F18405472381E18479BF03C786
:1015700009007D8B11EF9E23054793F7F70FE39644
:10158000E7F89387318498231377E70F98A3B5BFC3
:1015900003C7090009467D8BE318C7E69E2393F72E
:1015A000F70FE39307E69E229306100893F7F70FD1
:1015B000638DD70093063008638ED700E396E7E487
:1015C000B7070050A38D070289B7B7070050238BD8
:1015D000E70225BFB7070050238FE7023DB703C7D7
:1015E00009007D8B05E79E23054793F7F70FE39DE1
:1015F000E7E0956783C737B893F70702E38607E00C
:101600009387318498231367170049B703C70900EC
:1016100009467D8BE31AC7DE9E2393F7F70FE39508
:1016200007DE9E229306100893F7F70F6381D70217
:10163000930630086386D702E398E7DC370700504B
:101640008347B70393E73700A30DF7027DBD370744
:1016500000508347670393E73700230BF70275B504
:10166000370700508347E70393E73700230FF7025C
:1016700069BD23000600D9BD83C7090023100600F9
:10168000FD8B85E383C731840144858B99C38947EA
:101690001CA2035709008947E3F4E7D62310F90099
:1016A00085B303C7090089471304F00F7D8BE3124C
:1016B000F7FE9E229306100893F7F70F6381D70277
:1016C00093063008638AD702E395E7FCB70700501A
:1016D00083C7B7038D8B0D47639EE70011A8B7073B
:1016E000005083C767030D4701448D8BE393E7FAEE
:1016F00085471CA2014471BFB707005083C7E703A9
:10170000D1BF83570900C207C183E38707C2B70768
:1017100000501147FDB99377170085C3A38001845A
:1017200023800184A381018423810184A301040017
:10173000EFF09F9985477CA095B69377470095C7B2
:1017400091477CA02945EF00105A58309387318487
:10175000118B19C798231367270098A39C233DBEBC
:1017600098231377D70F98A315BE78A005BEEFE294
:101770003FA8B7570040138407405228162C03D7C0
:1017800007405E200358C4013755000041119305FE
:10179000C0041305058AEF10805FB7170240CC4FD5
:1017A000904F83A68180375500001305C58FEF1039
:1017B000005EC1479306803E0D466C001305C004D1
:1017C0007C8623070100EF00700611E93755000001
:1017D00013054593EF10806041016FE0BFA35228CD
:1017E000162CAA853755000013058594EF10205A52
:1017F000E5B7EFE2FF9F4111C1475C8648879357E9
:1018000085006C009306803E0D461305C004DC86FF
:10181000EF00D00141016FE0FF9FB7F700E0D84330
:101820007D56FD56799BD8C390CBD4CB98434111BC
:101830001367070198C398431367170298C302C63A
:101840004D47B2476354F700410182800100B2471F
:1018500085073EC6FDB7B7F700E098438146799B00
:1018600098C394C70147D8C78280EFE2FF953754E9
:101870000040B7090001B71A7A002A8BAE8B328C70
:10188000368A13090440B7040010FD19938A0A2010
:10189000DA854A85EFF00FC119C1014505A093858E
:1018A00004404A85EFF06FC1054D631BA501130588
:1018B000044093850440EFF06FC375556FE05F946B
:1018C000938504104A85EFF04FBF6311A5039385FC
:1018D000041013050440EFF06FC137550000D285A6
:1018E0001305C59CEF10A04A7D55C9BF9385042000
:1018F0004A85EFF08FBC631EA50193850420130574
:101900000440EFF0AFBE37550000D2851305459E69
:10191000D1BFB7F700E09847DC4783A781809306E3
:10192000803E33773701B3D7570333077741337797
:101930003701B387D7023357F702E36B87F50356B6
:1019400044418356844137550000D2851305C59F15
:1019500013040440EF10A04341BFEFE2FF86B754E9
:10196000004037040001371B7A000111AA89AE8AB2
:10197000328A3A89938B04407D1437FC00E0130BC4
:101980000B20130D803EB70502005E8536C6EFF0D2
:10199000CFB2B2463DE1B7F700E09847DC4783D7C6
:1019A0000440798C1307300693E707102390F44026
:1019B00002CEF2476353F708B757004083D507407C
:1019C00013870740C205C18193F7051081CB522BC5
:1019D00037550000130545A5EF10603B37050300A0
:1019E00085464A86A28505054935AA8421CD375505
:1019F0000040854513050540E9A003278C00832797
:101A0000CC0083A78180618F158FB3D76703618F67
:101A1000B387A7033357F702E36727F783D544411A
:101A200003D6844137550000130585A2EF102036F8
:101A3000FD54268505616FE0AFFC0100F247850784
:101A40003ECE85BF93951900B7590040014693F5E6
:101A5000E50F13850940EFF0CFA32945EF00102CC7
:101A6000B70B070089464A86A28513852B08F53BEC
:101A7000AA8429E5B70C0010375B00408149938C9C
:101A80000C08130D0B40938B4B0813FCF90FE3006C
:101A90003AF7E6856A85EFF04FA21DE503564B4104
:101AA00037550000CE85130505A9EF10402E130B06
:101AB0000B4085455A85EFF0CF999DBF854513852D
:101AC0000940EFF00F99B5B7B3873A018C236A85C7
:101AD0008509EFF04F9B93063C0093F6F60F4A867C
:101AE000A2855E8559332A8C4DD1854513050B405F
:101AF000EFF02F96E28435BFEFE2EFED13141500FF
:101B000005048964B7590040AE8A32891374F40F12
:101B100093841471138A0940B70502005285EFF0CF
:101B2000CF99631B0512138509408545B70403004F
:101B3000B7590040EFF04F908504138A0940A685FD
:101B40005285EFF02F9665DD138509400146A28589
:101B50008964370A0700B7590040EFF08F939384E8
:101B60001471130A2A08138B0940D2855A85EFF0A5
:101B70006F936307051093F5FA0F13850940896485
:101B8000370A0700B7590040EFF0EF8F93841471C4
:101B9000130A4A08938A0940D2855685EFF08F9040
:101BA000630B050E138509408545B7040300B7593B
:101BB0000040EFF06F888504138A0940A68552859E
:101BC000EFF04F8E65DDA285138509400546096457
:101BD000B7040300B7590040EFF0AF8B1304147142
:101BE0008904138A0940A6855285EFF0AF8B5DCD3D
:101BF00037040010B75400401304040493890440D0
:101C0000A2854E85EFF06F8B65DD13850440375458
:101C10000040B7040300EFF04F8793840404930956
:101C20000440A6854E85EFF0EF8765DD130504407F
:101C3000EFF0AF85AA84854513050440EFF00F83CC
:101C4000854513050440EFF0CF800545230099003A
:101C5000EF00D00C01451DA02945FD14EF00B00890
:101C6000E39C04EA375500001305C597EF100017F1
:101C7000138509408545EFE0DFFD7D556FE0EFD826
:101C80002945FD14EF003006E39104EE37550000BE
:101C900013050599E1BF2945FD14EF00D004E39D2C
:101CA00004EE375500001305459AC9B729457D1440
:101CB000EF007003E31904F2375500001305859B0C
:101CC000EF10C011138509408545EFE09FF80545E9
:101CD00075B7EFE24FD01314150005048964B759A6
:101CE00000402E891374F40F93841471138A0940F1
:101CF000B70502005285EFE05FFC63140510138501
:101D000009408545B7040300B7590040EFE0DFF212
:101D10008504138A0940A6855285EFE0BFF865DD8A
:101D2000138509400146A2858964370A0700B7591F
:101D30000040EFE01FF693841471130A2A08938A77
:101D40000940D2855685EFE0FFF56300050E138547
:101D500009408545B7040300B7590040EFE0DFEDC7
:101D60008504138A0940A6855285EFE0BFF365DD3F
:101D7000A2851385094005460964B7040300B759D5
:101D80000040EFE01FF1130414718904138A094025
:101D9000A6855285EFE01FF145C537040010B75402
:101DA00000401304040493890440A2854E85EFE0AB
:101DB000DFF065DD1385044037540040B7040300AD
:101DC000EFE0BFEC9384040493090440A6854E859C
:101DD000EFE05FED65DD13050440EFE01FEBAA8443
:101DE000854513050440EFE07FE885451305044071
:101DF000EFE03FE6054523009900EF002072014522
:101E00001DA02945FD14EF00006EE39304EE375545
:101E100000001305C597EF00707C138509408545C8
:101E2000EFE03FE37D556FE04FBE2945FD14EF0025
:101E3000806BE39804F03755000013050599E1BF66
:101E400029457D14EF00206A21F437550000130561
:101E5000859BEF00B078138509408545EFE07FDF73
:101E60000545D1B7EFE22FB70111854537052000B1
:101E700002C202C402C602C802CA02CC02CEEFF0FD
:101E8000EF8185452545EFE09FFF37540040EFE0A7
:101E90007FB713050440EFE0BFC5B71401409305B9
:101EA000000C138504C0EFE0DFC393070004F14981
:101EB0000D494C00138504C07C824EC64AC4EFE035
:101EC000BFB5930700084C00138504C07C824EC642
:101ED0004AC4EFE07FB4835704402167D98F2310B1
:101EE000F44002C01307300682476354F7043757A3
:101EF000004083570740130407400C08C607C583FA
:101F00002310F740B7270600938707A83EC8B707F6
:101F100000403ECAB70700043ECC22859167FC868C
:101F2000EFE03FC085452285EFE09FCF05616FE080
:101F3000CFAD0100824785073EC07DB7EFE24FABD2
:101F400037550040411181451305054002C202C4C6
:101F500002C6EFE0FFCC37140140930700048D4424
:101F6000130504C07C824C00D1473EC626C4EFE076
:101F7000BFAA930700087C82130504C091474C0058
:101F800026C43EC6A544EFE03FA9130404C00146A1
:101F9000930500042285EFE01FB51545A9230546EA
:101FA000930500042285EFE01FB415452D2B930502
:101FB00000082285EFE05FB285472A896307F500B4
:101FC000FD1493F4F40FE1F401499307000837146A
:101FD00001407C82D1473EC64C008D47130504C0AA
:101FE0003EC4EFE07FA3014693050008130504C03B
:101FF000EFE07FAF1545C52905469305000413059D
:1020000004C0EFE05FAE1545F929054693050008C9
:10201000130504C0EFE03FAD1545F121A135795519
:1020200063030900014541016FE0CF9EEFE2AF9AE3
:102030004111B289368AAA842E89B7FA00E0EFF0FE
:10204000CFFD03A68A003704000183A6CA007D14D1
:10205000B376C40052874E86CA852685EFF0FF8F7F
:102060002AC6EFF04FFF324505C5C93DEFF0EFFA44
:1020700003A68A0083A6CA005287B376C400CA8525
:102080004E862685EFF07F8D2AC6EFF0CFFC3245D5
:1020900041016FE08F97EFE2AF9541112A84AE8442
:1020A0003289EFF08FF74A86A6852285EFF0DFA40C
:1020B0002AC6EFF04FFA324509CD4935EFF0EFF57A
:1020C0004A86A6852285EFF03FA32AC6EFF0AFF837
:1020D000324541016FE00F94EFE28F912A848567CA
:1020E00008214111938757D07C869306803EED47A7
:1020F0000D466C005C871D3F11ED916708209387AA
:1021000007107C869306803E930770020D466C0094
:102110005C87293F41016FE0EF8FEFE26F8D08216F
:1021200041112E8470009945BD3711E51C869886B3
:10213000A207D98F1EA041016FE0CF8D93868186C3
:10214000984293077500E19BBA9705666369F600AC
:1021500037050020130505313A959CC28280014560
:1021600082808280EFE2CF881165797185453105E3
:1021700002CA02CC02CE02D002D202D402D602C2DD
:1021800002C4EFE0DFCF37140140930700208D44F5
:1021900013050480FC824C08E14726CC3ECEEFE0DC
:1021A000BF879307004013050480FC824C089147C9
:1021B00026CC3ECEEFE05F86F1673744014093873F
:1021C0000720130504803ED00C10B7070C003ED446
:1021D00002D223160102EFE03FD6054693054042A6
:1021E00013050480EFE09FDF930750137C8285473F
:1021F0005C83480085473EC4EFE07FB01305048050
:102200008545B7540000EFE01FDC938404AC130451
:1022100004800389040063150906B727000093872B
:10222000C7133EC6B72700009387271668003EC82D
:10223000EFE0BFE4EFE08FDB37040020375600000B
:10224000AA86130646AEA54513050402EF007036B4
:1022500037550000930500201305C5AEEF0030335D
:102260003706002037550000930604021306063196
:102270008565130545B3EF00903145616FD09FF937
:10228000930500042285EFE0FFDA7DD9931509015B
:10229000C1812285EFE01FD98504A5BFEFD25FF58C
:1022A00039711306C00281454808EFD07FF7854594
:1022B00005453704024002C602C8EFE07FBA1305A5
:1022C0008405EFE04FD3B74401408D673EDC938730
:1022D00044803ECA130700089387D1974C08130522
:1022E00084053AD43AD03ECC02D202D602D802DAE1
:1022F00002DE02CEEFE0EFE60546894513058405D0
:10230000EFE0EFEA9307F0117C8685475C87680071
:1023100085473EC8EFE0BF9E130584058545EFE085
:10232000CFE705469305000413850480EFE07FCED8
:1023300021616FD03FEEEFD21FEA371A00209307DA
:102340000A4103D7474093070040AA8A998F3E84E9
:10235000C207C18313090A4163F3F5002E84835435
:102360000940930900404204C204C180B3899940E6
:10237000C209418093D9090163E9890203550940E3
:102380002286D6854A95EF20601583570940A2978B
:10239000C207C1832310F940835749403E94420449
:1023A0004180231289406FD05FE603550940938432
:1023B00004C0A2944E86D685C2044A95EF2000122E
:1023C000C1802686B3853A0113050A41EF2000112A
:1023D00023109940D1B7B7170020138707418356C0
:1023E000274093870741BA9688228356274085065F
:1023F000C206C1822311D740035727409306F03FFE
:1024000063F4E6002391074003D747407D17420756
:1024100041832392E7408280EFD21FDB37190020EF
:102420003714002013090941A94913040431354A1E
:10243000130BE00F83574940C207C18381E7014571
:102440006FD01FDC493F9387C1868623938BC1865B
:1024500063043501631F450383574940C207C183A5
:1024600099CF83572940CA979C23631645016398E7
:102470003701953729A063143501E38C47FFA294F7
:10248000238004008307040023900B00C5D7228516
:1024900045BFE3619BFA13871400A2949AA388A016
:1024A00051BFEFD2FFD4EFE05FBE0545EFE09FC81C
:1024B00037550000130545B6EF0050126FD09FD579
:1024C00083A7818037177A0013070720B3D7E70265
:1024D00093F7F70F2388F1861307803EB387E7024F
:1024E0002397F1868280B7F700E0D8438146799B35
:1024F000D8C303C701873306A70290CBD4CB984338
:102500001367070198C398431367170298C3D8430A
:10251000058B75DF9843799B98C38280B7F700E0FD
:10252000D8438146799BD8C303D7E1863306A702F7
:1025300090CBD4CB98431367070198C39843136794
:10254000170298C3D843058B75DF9843799B98C3CE
:102550008280EFD2FFC92A841165011185451105DA
:10256000EFE0FF91930700207C82371501408D47F3
:102570003EC44C00E147130505803EC6EFE0CFC9DD
:1025800022C837440140B70708000C08130504802F
:102590003ECC02CA231E0100EFE01F9A85451305B9
:1025A0000480EFE05FA205616FD0DFC6EFD2BFC24B
:1025B000B7440140AE893289014493840480634565
:1025C00024014A856FD07FC4930500042685EFE07F
:1025D0007FA67DD9B38789008385070026850504FA
:1025E000C205C181EFE01FA4D9BF138701821C433C
:1025F000B72600209386C6813E95636BD500B786CB
:1026000000209386068063E5A60008C33E8582808D
:10261000FD57EDBF011106CE2EC60DCD1841AA877C
:1026200005C358417D5511CB8546631BD70098479C
:102630002300070023A207000545F24005618280C0
:102640009847B24614A39847050798C7D8437D1703
:10265000D8C3DDB705466C00913FF9BF797122D42C
:1026600026D24ECE52CC56CA06D64AD05AC82A8A4C
:10267000AE8A328481449309000263440602B38720
:102680009A00838707009DE363D6840263D2E40245
:10269000198C93F726009309000281C719E3930967
:1026A0000003858A01499DE6228929A88504C1BFC6
:1026B000058CC5B70144F1BFCE8552853AC6993F16
:1026C00032477D19E34A20FF228963530400014900
:1026D0003304244163CBE402CA84B3872441D697F0
:1026E000838507009DED2289634120056353040023
:1026F000014433059400B250225492540259F249D5
:10270000624AD24A424B45618280B3049740268B8D
:102710009305000352857D1BF53DE31B0BFE2699B7
:1027200065BF5285C53D85044DBFCE855285DD35DB
:102730007D195DBF5D71A6C252DC86C6A2C4CAC047
:102740004EDE56DABA843E8A95E1930700030147CC
:10275000D28626862C08FC841137B640264496443F
:102760000649F259625AD25A616182802A893684B6
:10277000C68A91CAA94701446317F60063D50500CC
:10278000B305B0400544A30701029307F102A54633
:10279000130568FC33F7C50263D3E6002A971307D5
:1027A0000703A38FE7FE9389F7FF33D7C50263F7CB
:1027B000C50401CCB9C413772A0021C79305D00200
:1027C0004A8542C6813D3248FD1493774A0099CF2D
:1027D00093071006930500034A85631CF8021D3D0C
:1027E000930580074A853D350904F9145687D2863A
:1027F0002686CE854A859D35229585B7BA85CE87B2
:1028000051BF1307D002A38FE9FE01449389E7FF6C
:102810006DBF093593058005F1B71D71CAC8CEC6D5
:10282000D6C2DAC03A8986CEA2CCA6CAD2C45EDEAF
:1028300062DC66DA6AD86ED633E7C500BE89AA8A3A
:10284000428B8347010631E38DCF8D679387D70293
:102850007C84230501000147DA864E862C005685CC
:10286000EFF0DFDFF6406644D6444649B649264AD3
:10287000964A064BF25B625CD25C425DB25D2561BA
:102880008280930700037C84F9B7368AAE84328451
:1028900063000902A9470149639CF600635A0600D8
:1028A000B304B040B33790003304C0401D8C0549D9
:1028B000A30F0100130DF101935DFA41A54C138C98
:1028C00068FC5286EE862685A285EF00F00E63D363
:1028D000AC00629513050503A30FADFE5286EE868C
:1028E0002685A285930BFDFF3D2B6366B401639A99
:1028F0008D0263F84403630D09006388090293772E
:102900002B0085C79305D0025685EFF0BFD0FD1987
:102910000147DA864E86DE855685EFF03FD44A952C
:1029200091B7AA842E845E8D69BF9307D002A38FCE
:10293000FBFE0149930BEDFFE1BF5D71A6C2CAC06A
:10294000AA842E892E85B28586C63ACE42CCA2C4F0
:102950004EDE52DCB289368A56DA5AD8BE8A5ED644
:1029600062D466D2468C6AD0EF1050082A8BAE8BA8
:1029700001468146CE854A85EF00B03C72476248E9
:102980007D81BA872AC00547E288D286DA855E86CD
:10299000268561352A8D9305E0022685EFF09FC7D5
:1029A000050D8147854C0144294763CD57075A855A
:1029B000DE85EF10700F2A86AE864A85CE85EF1031
:1029C000200F2A89AE896685A285EF10F00D2A8630
:1029D000AE864A85CE85EF003042EF10300113D627
:1029E000F541318DB347B600B305C5403335B50069
:1029F0003386C74002C0E288D687D286098E09484E
:102A000026850547193DB64026446A9596440649F1
:102A1000F259625AD25A425BB25B225C925C025D0E
:102A200061618280B3068702850733349703B30C54
:102A3000970336949DBF5D715AD8375B0000A2C4DE
:102A4000A6C2CAC04EDE52DC56DA5ED662D486C654
:102A500066D2AA892E893284014A8144930B50029E
:102A6000930AB002294C130B4BC1830509008DE575
:102A70006386090081454E85EFF0DFB9B6402644F4
:102A8000268506499644F259625AD25A425BB25B95
:102A9000225C925C61618280638875014E85EFF0F3
:102AA0007FB785040509D1B783071900930C190076
:102AB000639A7701930550024E85EFF0BFB5850408
:102AC0006689CDB7D5D76387570563C8FA00130762
:102AD00030026384E704814705A01307D002638AAC
:102AE000E70013070003E398E7FE930C29008947EA
:102AF00021A0930C2900854703870C006303570529
:102B000063C1EA0293063002630BD702668901456E
:102B1000A54535A8930C29007DBF930C290091474A
:102B2000E1BF9306D0026309D70093060003E31FB9
:102B3000D7FC93E7270031A0850C8547C1BF93E7F9
:102B40004700850CE1B73305850305093695030772
:102B50000900930607FD13F6F60FE3F6C5FE13060C
:102B6000E0029946631EC700050981462546030712
:102B70000900130707FD9375F70F6375B602368AD0
:102B8000030709001306A0066309C70A6341E602AA
:102B90001306C0046303C70A130680066308C70848
:102BA00001461DA8B38686030509BA96C9B7130660
:102BB00040076304C7081306A0076300C70893050E
:102BC000C0060146631AB700830519000D466394D9
:102BD000E5000509114605090307090093050006EC
:102BE0001308100663C4E50013081004930570066B
:102BF00063C2E506930550066359B7169305700442
:102C000063CFE502130650046351C71693063004E0
:102C1000E31AD7E81840930C4400A30E0100230EDA
:102C2000E100BE8601472A866C0871A08305190061
:102C30000146E393E5FA090945B7050995B79306F7
:102C40003006E309D7FC63CEE606930680056303EE
:102C5000D70289BD930630076306D70463CDE60229
:102C60009306F006630BD70C9306000793E7470023
:102C7000E31AD7E21147631BE60A1D04137784FFAA
:102C80000C43504313048700C28802C03E880147AA
:102C9000AA87C146B9A0930650076303D7069306D7
:102CA000800775B71840930C4400DA8511C3BA85C4
:102CB0005287BE862A864E85EFF05F9AAA94668474
:102CC000D5B311476314E6021D04137784FF0C4348
:102CD000504313048700C28802C03E880547AA8774
:102CE000A9464E85EFF07FB3AA946DBB0C40D28805
:102CF00011042A87854629464E85EFF0BFA3EDB71C
:102D00001147631FE6001D04137784FF0C435043F3
:102D100013048700C28802C03E880147AA87C9B74A
:102D20000C40D28811042A878146F1B70C40D28822
:102D300011042A8781464146C1B711476310E60254
:102D40001D04137784FF0C43504313048700C2888B
:102D500002C03E880147AA87A14661B70C40D288CD
:102D600011042A878146214641BF1D04137684FF42
:102D7000130486000C4250423307D540C2887D17A9
:102D80003E884E85B687A946EFF03FBBB1BF39718B
:102D90002ED232D4AA855010014506CE36D63AD866
:102DA0003EDA42DC46DE32C6EFF0FFC8F240216177
:102DB0008280397132833EDA2EC42AC6701085476C
:102DC00048009A8506CE36D63AD842DC46DE3EC268
:102DD00032C0EFF05FC6F24021618280011122CC47
:102DE00026CA06CE1C21AA840144DC878307F10091
:102DF000050499EFA9479305F10005460145DC87D5
:102E0000EFF0CFFA2285F2406244D244056182801D
:102E100005469305F1000145EFF04FF9B3878400B3
:102E20009C23DC87E1B7B687B2882A832E88639B10
:102E3000061463F8C50A4167636BE61AB707000119
:102E40006360F63493568601E147172700001307A5
:102E500027E136971823BA97130700021D8F19CB65
:102E60003398E500B357F500B318E60033E80701DF
:102E70003313E50013D608013355C80293960801B1
:102E8000C182935703013377C802B385A602420774
:102E90003368F700637AB80046989307F5FF6364D8
:102EA00018016365B8303E853308B8403357C8020F
:102EB0004203135303013378C802B386E602420883
:102EC00033686800637BD80046989307F7FF636513
:102ED000180179176363D8003E874205598D8145F3
:102EE000828001E60547B358C702416763E8E80EF0
:102EF000B707000163EAF82893D68801E14717274E
:102F000000001307E7D536971423BE9693070002F7
:102F1000958FFDE7939E08013387154113DF080164
:102F200093DE0E018545935703013355E70333774D
:102F3000E703B306D5034207D98F63FAD700C697D4
:102F40001307F5FF63E4170163E5D7263A85958FEC
:102F500033D7E703420313530301B3F7E703B30E79
:102F6000D703C207B3E7670063FBD701C697930691
:102F7000F7FF63E51701791763E3D7013687420549
:102F8000598D828063E1D504C16763E1F604B70718
:102F9000000163E3F61E13D78601614897270000FE
:102FA000938707CCBA979823130E00024297330EEB
:102FB000EE40631A0E0C63EDB61C3335C5001345A5
:102FC0001500814582808145014582809307F00F7D
:102FD00063F3D71C13D786002148C9B71307F00F36
:102FE000C686E37E17F193D68800A14709BF130771
:102FF000F00FB286E37BC7E493568600A147B1B5D4
:10300000B398F80033D6D50013DF0801335EE6032A
:103010003397F500B356D500558F939E080193DE84
:103020000E013313F50093550701B376E603B3871A
:10303000CE03C206CD8E63FBF600C6961306FEFFD6
:1030400063E4161763F2F616791EC6969D8E33D684
:10305000E60393170701C183B3F6E6033385CE0277
:10306000139706015D8F637BA70046979307F6FFD2
:10307000636817136376A7127916469793150E01A6
:10308000098FD18D4DB5B357E600B396C601DD8EDD
:1030900033D3E50013DF0601B357E303939E060124
:1030A00093DE0E013398C5013357E50033680701FD
:1030B000935808013316C6013373E303B385FE0248
:1030C0004203B368130163FBB800B6981387F7FF98
:1030D00063EAD80C63F8B80CF917B698B388B8400F
:1030E00033D7E803420813580801B3F8E8033383E1
:1030F000EE02C208B3E5080163FB6500B69513084C
:10310000F7FF63EDD50863FB65087917B695C2072D
:10311000416FD98F1307FFFFB3F6E70093D807017C
:10312000718F4182B38EE602B3856540B386C602D5
:1031300013D80E013387E802BA96C2963386C802C6
:1031400063F3E6007A9693D80601469663E2C502D9
:103150006385C5003E858145828041677D17F98E74
:10316000C206B3FEEE003315C501F696E374D5FE34
:103170001385F7FF8145828013D70601414839BD89
:1031800093560601C147D1B193D60801C14785BB0B
:103190008145054582803687014809B5428785BF4C
:1031A0003E86E9BDBA871DBF328E4DB5791546986A
:1031B000E5B97915C69761BBB68732882A832E8711
:1031C0002E8E6391061463F0C50A41676376E61A92
:1031D0001307F00FB2866375C70093568600A147A8
:1031E000172700001307C7A7369718239308000274
:1031F000BA97B388F840638C0800B3951501B357AC
:10320000F5003318160133EEB700331315011356CA
:103210000801B357CE0213150801418193560301EB
:10322000337ECE02B307F502420E3367DE006378C9
:10323000F7004297636507016373F70042971D8F9C
:10324000B356C70293170301C1833377C70233050F
:10325000D5024207D98F63EBA7083385A7403355C2
:1032600015018145828001E605473358C702416751
:10327000636BE80EB70700016364F82A9356880170
:10328000E147172700001307A79D369718239308D7
:103290000002BA97B388F840639A081E131E08010B
:1032A000B385054113560801135E0E011357030140
:1032B000B3D6C502B3F5C502B386C603C2054D8FAA
:1032C0006377D700429763640701636AD726158F37
:1032D0003355C7024203135303013377C702330543
:1032E000C5034207B367670063F8A700C29763E5A9
:1032F000070163F3A700C2973385A7403355150133
:10330000814582802A88E3EFD5F4C16763E5F6043E
:10331000B707000163E2F62013D38601E14897273F
:1033200000009387E7939A9703CE070013030002E8
:10333000469E3303C3416319030463E4B600636923
:10334000C5003308C540958D333705013387E54007
:103350004285BA8582809307F00F63FBD71C13D395
:103360008600A1486DBF1307F00FC286E37B07F10B
:1033700093568800A14731B7B70700016366F61A74
:1033800093568601E147A9BDB357C601B3966600BF
:10339000DD8EB3D8C50113D70601B3DEE802139F53
:1033A0000601B357C501135F0F01B3956500DD8DAD
:1033B00013D805013316660033156500B3F8E8022B
:1033C000B307DF03C20833E80801637BF8003698CF
:1033D0009388FEFF6363D8166371F816F91E36985A
:1033E0003308F840B357E802C205C1813378E802D8
:1033F000330FFF02131708014D8F637BE7013697E8
:103400009385F7FF6369D7126377E713F917369748
:10341000C20EC162B3EEFE001388F2FFB3F80E01D4
:103420009355060193DE0E0133780601B38F08032E
:103430003307E74133880E0393D70F01B388B802EF
:10344000C298C697B38EBE0263F30701969E416889
:103450007D1893D50701B3F70701C207B3FF0F012A
:10346000F695FE976362B70A630EB708B307F54097
:103470003335F500B305B740898D339EC50133D58B
:1034800067003365AE00B3D565008280331818013C
:1034900033D7F50013560801B356C702131E0801AF
:1034A000B357F500135E0E01B3951501DD8D93DE64
:1034B0000501331315013377C702B307DE029316F4
:1034C0000701B3E6D60163F8F600C29663E506018C
:1034D00063F3F600C2969D8E33D7C602939705011B
:1034E000C183B3F6C6023307EE0293950601DD8D64
:1034F00063F8E500C29563E5050163F3E500C29555
:10350000998D6DB3E374F5F63386C740B3B7C70042
:10351000B6979D8DB28799BF13D30601C14801B5F7
:1035200093560801C147B1BB93560601C1474DB937
:1035300036838148EDB3AE87E1BDC68E55B542975F
:1035400079B313D74501B7071000FD1713D846010B
:103550001377F77F9308F07F33FEB700AA8EF58FBD
:10356000FD81328F1378F87FFD82630E1703630DA0
:10357000180129E3B368AE00631F08005D8E01EEF9
:103580000143638C080421A8B3E8C700094363968C
:1035900008046DD305A0638408046385D502054340
:1035A0008DCD7D531DA8B368AE0009436397080213
:1035B000630AE802631408005D8E75D2E391D5FEBC
:1035C000E34FE8FC63490701E3EBC7FD630FFE002F
:1035D00001436374FE00F1D505431A858280EDFE38
:1035E0007D53E5BF5D8E79DACDBFE36ADFFB014332
:1035F000E3F5EEFFF5F175B739714AD813D94501F6
:103600004ED652D456D29399C50006DE22DC26DA75
:103610005AD05ECE1379F97F2A8A93D9C90093DAFA
:10362000F501630D090E9307F07F6306F918135433
:10363000D5018E09B36934013704800033E4890071
:1036400093143500130919C08149814B13D74601E2
:10365000139AC6001377F77FB285135ACA0013DB9B
:10366000F601630B07109307F07F6303F70493578A
:10367000D6010E0A33EA4701130717C0B7078000C7
:10368000B367FA00931536003A99814833C76A0147
:10369000BD463A851308190063E83617171600006F
:1036A000130606588A09B29983A60900B296828643
:1036B000B367CA001309F97F6399071293E92900D8
:1036C00081458948E1B701479307F07F3704080037
:1036D00081443204D20731807E075D8C598CA285EB
:1036E000F250625426854259D254B259225A925A03
:1036F000025BF24B216182805A853E84AE84C68B88
:103700008947638DFB0E8D47E38FFBFA85472A8738
:10371000639EFB3881470144814465BF33E4A900BF
:1037200061C036C632C4638C092A4E85EF00F05260
:103730002246B246AA87130755FF7544938487FF34
:10374000198CB399990033548A0033643401B3144B
:103750009A0013D746011309D0C0139AC6001377F5
:10376000F77F3309F9408149814BB285135ACA006A
:1037700013DBF601E31907EEB367CA00B1C7630FA5
:103780000A22528532C4EF00504D22462A87930602
:1037900055FFF547930587FF958F331ABA00B35746
:1037A000F600B3E74701B315B6003309E940130942
:1037B000D9C08148E1BD33E4A90001ECA1498144AD
:1037C0001309F07F894B59B593E919008145854864
:1037D00075BD4E84AA84B1491309F07F8D4BBDB5E8
:1037E000914981440149854B95B593E93900D287C8
:1037F0008D4869BD89475685E397FBF02A87930773
:10380000F07F01448144F1B5C16E1386FEFF93D66B
:10381000040113DE0501F18CF18D338695023383AB
:10382000B6029358060133059E021A95AA98B382F0
:10383000C60363F36800F692C16F1383FFFF33F58D
:10384000670093D30701B3F76800C20733736600BC
:103850003E933306950293D80801B387A602135FFF
:103860000601B3849302BE94FA94B38E760263F396
:10387000F400FE9E416A9307FAFF935F0401B3765A
:10388000F400B3F9F4007D8EC1803384D502C209FF
:10389000338FD401B299CE98B307DE02935E040150
:1038A000B385BF02AE97BE9E330EFE0363F3BE0028
:1038B000529EC1679385F7FF33F6BE006D8C4206BA
:1038C000229693DE0E01B305D502769E3385AF02B4
:1038D00013D40501B386D302AA96A296B38FF3033D
:1038E00063F3A600BE9F41657D15B3F7A600C2072E
:1038F0006D8DAA97B3855800B3B93501FA97B29583
:103900003384370133B6C500B30EC4013385CE000E
:1039100033343401B3B7E701C18F33BECE0113D4C2
:1039200006013336C5003E943366CE00939495006D
:1039300032947E94B3E46400260493567501B33444
:103940009000DD8193179500CD8C558CDD8C9317FD
:10395000740063DB070093D7140085889316F40185
:10396000DD8CD58C058042899307F93F6359F008B7
:1039700093F6740081CE93F6F40011466388C60076
:1039800093864400B3B496002694B68493167400CC
:1039900063D80600B70700FFFD177D8C9307094029
:1039A0009306E07F63CFF60E93D634009314D401D0
:1039B0002604D58C318093F7F77F21BB328532C442
:1039C000EF00B02993065501F1471307050222467F
:1039D000E3D1D7DC6115B317A6008145F9B3EF0039
:1039E000D02713075501F145930705022246B24639
:1039F000E3D5E5D461153314AA00814499BB85460B
:103A00009D8EB1E71309E941B3972401B3D4D400E3
:103A100033192401B337F000B3649900DD8C93F7B8
:103A20007400B356D40081CF93F7F4001146638835
:103A3000C70093874400B3B49700A696BE849397BB
:103A4000860063D8070485470144814459B11306B1
:103A50008003E341D6CC7D46E356D6FA0556B3073C
:103A6000F640930500023356F4006387B60013094D
:103A7000E943B3172401DD8CB3349000D18C93F665
:103A80007400014499CA93F7F40011468146E39209
:103A9000C7FA139496003180F6068D80D58C814745
:103AA0000DB99307F07F0144814425B142896DBD72
:103AB000370710007D1701113373B70093D8460103
:103AC000758F935ED60122CC26CA0E0393D445018E
:103AD0009357D5010E0706CE4AC84EC693F8F87F15
:103AE000130EF07F33E7EE0093F4F47F13D4F50167
:103AF00033E36700131F3500FD82931E3600638099
:103B0000C81993C61600B38514416305D4126351D6
:103B1000B018638B081AB70780005D8F6380C459A3
:103B20009307800363C3B734FD4763C4B748930763
:103B300000028D8FB3D9BE003318F700B39EFE008C
:103B4000336838013357B700B339D00133683801CF
:103B50003303E340B3090F41B3373F013306F3406A
:103B60009317860063D30724370980007D193379C2
:103B70002601630F092C4A85EF00300E130785FFDD
:103B800093070002998FB3D7F9003316E900D18F5C
:103B9000B399E9006344972A058F13061700FD4681
:103BA00063C4C63A13070002118FB3D6C900339815
:103BB000E9003397E700558F33380001B3690701F7
:103BC00033D6C700814493F7790081CF93F6F9008B
:103BD00091476388F6009386490033B836014296D0
:103BE000B6899317860063D6071C138714009307C2
:103BF000F07F05886306F720B70780FFFD17F18F78
:103C00001398D70193D93900A60733683801B183D7
:103C10001377F77F9396C7005207B1827E04D98E3F
:103C2000C18EF2406244D2444249B2494285B685CF
:103C3000056182806356B00A638A0812B707800064
:103C40005D8F6386C42D9307800363C7B718FD4754
:103C500063D1B73C138805FE93070002B3590701EF
:103C6000638AF50093070004B385B7403317B700A4
:103C7000B3EEEE003338D0013368380195A2B36754
:103C8000D7019385148099E393C61600630AD40480
:103C9000D1E19387140093F7E77F6398071EB3671A
:103CA000E3013368D701639204166381073C63150F
:103CB0000842131835009316D3011358380033E81F
:103CC00006019357330019A2B367D7016384071A1B
:103CD0009387F5FF638A073A638BC523BE8589B551
:103CE0006398051C9386140093F7E67FC1EFB367D2
:103CF000E301639F0434638C0744B367D701639384
:103D000007460E051318D3010D813368A800935799
:103D100033006DA8B385984063960420B367E30130
:103D2000638C07309387F5FF638807401305F07FA6
:103D30006382A520BE859307800363C1B72AFD4730
:103D400063C7B73C930700028D8F3318F3003356D7
:103D5000BF00B317FF003368C800B339F000335316
:103D6000B3003368380133076740ADACB367D701A0
:103D7000638207109387F5FF638E071E638FC52D3F
:103D8000BE85D1B59307F07F638BF606FA9E33B6F6
:103D9000EE01B307E300B2971398F70193DE1E001C
:103DA000B369D80113D61700B68493F77900E39F5F
:103DB00007E09317D60113D839003368F800A685B9
:103DC000935736001307F07F6380E506B207B1838F
:103DD00013F7F57F05883DBD3367D7013338E00021
:103DE000B309E801B3B7E90133866700931786008A
:103DF000E3DD07FA85049307F07F639BF4180588D9
:103E00001307F07F8147014831B5639007106300C5
:103E1000083C131836009317D7011358380033683D
:103E2000F800368493573700B367F800E9DB0144A4
:103E30001307F07FB70708000148E9BB370680FF8A
:103E40007D167D8E93F77900998CE39107D895B70D
:103E50004E85212513078501FD47E3D3E7D21306DD
:103E600085FFB397C900814935B33368D70133382B
:103E70000001CDB1131835009317D3011358380042
:103E80003368F8009357330035BFB309DF41330976
:103E9000E34033363F013309C9409317890063CAB1
:103EA000072033E82901E31608CC8147014439BFD4
:103EB000B385984063810414B70680009307F07FB0
:103EC0003363D3006381F8209307800363CCB72268
:103ED000FD4763C9B72C930700028D8F3318F30099
:103EE000B356BF00B317FF003368D800B339F000F2
:103EF0003353B300336838011A97B309D801B3B705
:103F0000D9013386E700C684D5B5E31208F2131849
:103F100035009317D301135838003368F8009357CE
:103F2000330019B7370580009307F07F3363A30090
:103F3000E393F8E00E061318D7010D823368C8002A
:103F4000935737003684CDB505179306000233D753
:103F5000E700630AD600930600043386C640339612
:103F6000C700B3E9C90033383001B369E80001463E
:103F7000814425BDB309DF01B307E30033BFE90185
:103F80003386E701931786008544E3D007E289442E
:103F9000B70780FFFD17F18F13D7190013F8190029
:103FA000336807019399F701B3E9090113D61700A4
:103FB00019B9138805FE93070002B3590701638AF4
:103FC000F50093070004B385B7403317B700B3EE8D
:103FD000EE003338D00133683801ADBE3363E301FE
:103FE00033386000B3890E41B3B73E013306F74062
:103FF000C6843684B5B6B367E30163870718938731
:10400000F5FF638C071C9306F07F638ED50ABE858F
:1040100065BD930700028D8FB3D9BE003318F7003A
:10402000B39EFE00336838013357B700B339D0016F
:10403000336838013A936DB3131836009317D701DC
:104040001358380033E807013684935737009DBB77
:10405000BDCB3367D701E31C07DC0E051318D30172
:104060000D813368A800935733007DBBE30F08E24E
:10407000131836009317D701135838003368F80027
:1040800036849357370099B3B309DF41B307E34050
:10409000333F3F013386E7418544D9B413183500D7
:1040A0009316D3011358380033E8060193573300B1
:1040B000A5BBB389EE413306674033B93E013309EE
:1040C000264136847DB40E061318D7010D8233685D
:1040D000C8009357370089BBB309DF41B307E340FA
:1040E00033363F013386C7409317860063D7070AEC
:1040F000B389EE41B3076740B3BE3E013386D74173
:104100003684D1B43363E30133386000FDB31388E0
:1041100005FE93070002B3590301638AF500930774
:104120000004B385B7403313B300336F6F003338E7
:10413000E001336838017DB5B389EE41B3076740CC
:10414000B3BE3E013386D7413684854411BC131873
:1041500036009317D701135838003368F800935787
:104160003700ADB1B309DF01B307E30033BFE901A5
:104170003386E70193178600E3D907C2B70780FFAC
:10418000FD177D8E854415B10E061318D7010D82DB
:104190003368C8009357370035B133E8C900E306E8
:1041A00008D021B1138805FE93070002B35903011B
:1041B000638AF50093070004B385B7403313B30057
:1041C000336F6F003338E001336838013DB3014489
:1041D0001307F07FB707080035BCB309DF01B30749
:1041E000E300B3BED9013386D70169BB370710009E
:1041F00093D745019306F7FF93F7F77F1308E03F46
:10420000ED8E13D6F5016353F8029305D04363D2C4
:10421000F5028545918D3305B04013D6F541B705BC
:104220000080B337A000918D9D8D8280014581452E
:10423000828013082043B3E5E6006354F802138735
:10424000D7BA9387D7BC63450704B315E50001458A
:1042500065D23305A040B337A000B305B0409D8DB3
:104260008280930630439D8E7D47634CD700138731
:10427000D7BE3397E5003355D500598DB3D5D5005A
:10428000C1BF130530411D8D33D5A5008145C9B788
:10429000FD46135715009D8E3357D700B395F50093
:1042A000D98D3315F5006DB7011106CE22CC26CA83
:1042B0004AC84EC6B367B50095CFAE84AA8913D954
:1042C000F50163CD05042684A5C4268579229306CD
:1042D000E043898E9307304363C9D7089397C4009E
:1042E0002D464E8793F6F67FB1836359A6001306D9
:1042F00055FFB1A80149814681470147B207F24005
:104300006244D206B1837E09D58FB3E72701D24438
:104310004249B2493A85BE85056182803305A04095
:10432000B336A000B304B040958CAA892684D1FC92
:104330004E8525222A869306E04313050502898EC1
:104340009307A00293F6F67F63C7A70C55061307E1
:10435000B002098FB397C40033D7E9005D8F93177C
:10436000C700B1833397C90051BF9307604363DB34
:10437000D7022147098F930507FE63C2050CB3D509
:10438000B40001471306850193078503634C0608B3
:104390003396C9008149B3E9C90033363001B3E926
:1043A000C5003A84A1474E8663C9A704B70780FFBA
:1043B000FD17937576003377F40085C59375F60085
:1043C0001148638005039305460033B6C500329754
:1043D00013168700635106089306F0437D8F898E7C
:1043E0002E8613553600931797001316D70133679F
:1043F000A600B18393F6F67F11B793078002930569
:1044000085FF898FB3D7F9003317B40033E4E70091
:104410003396B90061BF5516B397C900B207B1838F
:104420000147E9BD7D4613D819001D8E3358C800D9
:104430003396F4003366C800B399F900A9BF7D46EE
:10444000198E93971400B3D5E900B397C700DD8D9B
:1044500033D7E40005BF2E8669B7C167637CF502D8
:104460009307F00F1307000263EBA7009707000004
:104470009387077FAA9788233305A74082802181ED
:10448000970700009387C77DAA9788236147330564
:10449000A7408280B7070001636DF500618197072F
:1044A00000009387E77BAA97882321473305A7401D
:1044B00082804181970700009387877AAA97882393
:1044C00041473305A740828093874182AA8588436C
:1044D0008DA293874182AA85884355A8B3C7A500BA
:1044E0008D8B3307C50081E78D4763EDC700AA8731
:1044F000637EE508942185078505A38FD7FEE3EB4E
:10450000E7FE828093763500AA8789CA94218507C1
:104510008505A38FD7FE93F63700C5BF9376C7FFF7
:10452000138606FE63F0C70683A3050083A2450039
:1045300083AF850003AFC50083AE050103AE45011F
:1045400003A3850183A8C5019385450223A07700B5
:1045500003A8C5FF23A2570023A4F70123A6E70160
:1045600023A8D70123AAC70123AC670023AE1701F4
:104570009387470223AE07FF75B7904191079105D6
:1045800023AEC7FEE3EBD7FEE3E6E7F68280CDC1BC
:1045900083A7C5FF411122C406C626C21384C5FFE6
:1045A00063D307003E94AA846922938741879C4382
:1045B00099EB2322040023AA81862244B240268557
:1045C0009244410185AA637EF40014403307D4006D
:1045D0006396E7009843DC43369718C05CC0E1BFA0
:1045E000BA87D84319C3E37DE4FE94433386D700EA
:1045F000631F86001040B29694C33386D700E31E33
:10460000C7FA10435843B29694C3D8C37DB76375B5
:10461000C400B1479CC055B71040B306C400631630
:10462000D70014435843B29614C058C0C0C371B7E2
:104630008280011126CA93843500F19806CE22CCDF
:104640004AC84EC6A104B14763F1F404B14463E023
:10465000B4042A89F9289387418798433A8431E042
:10466000938781879C4391E781454A85512823ACF4
:10467000A186A6854A856920FD5963173507B1478C
:104680002320F9004A857D2029A0E3D204FCB1470C
:104690001CC10145F2406244D2444249B24905611D
:1046A00082801C40858F63CE0702AD4663F6F6001C
:1046B0001CC03E9404C031A05C406312870223AA50
:1046C000F1864A8585281305B40093074400619953
:1046D0003307F54061D33A94898F1CC065BF5CC332
:1046E000CDB722874040A5BF130435007198E3037E
:1046F00085FCB305A4404A852120E31D35FB41B765
:10470000411122C42A842E8597D7FF1F23A80710A2
:1047100006C6EFD09FEDFD576319F50097D7FF1F31
:104720009387C70F9C4391C31CC0B24022444101F0
:1047300082808280828000005B4641554C545D201F
:104740006D61736B3D307825303458206461633D72
:10475000257520616464723D3078253032582D30E3
:1047600078253032582D3078253032582D30782544
:104770003032580D0A0000004932433120696E6919
:10478000742E2E2E0D0000004932433120726561D7
:1047900064790D00494E413232365B25645D20302C
:1047A0007825303258204F4B0D0A0000494E4132D7
:1047B00032365B25645D2030782530325820464102
:1047C000494C282564290D0A00000000696E6132F9
:1047D00032365B305D2773202564200D0A0000000F
:1047E000646163206F75747075742069732025642B
:1047F0000D0A00000D0A3D3D3D20456C6563747255
:104800006F6E6963204C6F616420436F6E74726FCA
:104810006C6C6572203D3D3D0D0000005379737452
:10482000656D436C6B3A25640D0A0000436869703E
:1048300049443A253038780D0A0000005553422D7E
:1048400043444320656E756D6572617465640D0047
:104850005553422D4344432074696D656F75742C24
:1048600020636F6E74696E75696E670D00000000DD
:10487000781600006E15000008140000DE15000018
:104880000814000000150000601400000814000067
:10489000461500005C150000721600000A150000A5
:1048A0004441433835373120696E69743A20616478
:1048B00064723D3078253032582C205352313D30CF
:1048C0007825303458205352323D307825303458D2
:1048D0002043544C52313D307825303458204354D5
:1048E0004C52323D30782530345820434B434647B4
:1048F000523D3078253034580D0A00004441433889
:1049000035373120696E69743A205243435F415014
:1049100042313D30782530385820415042323D30C8
:10492000782530385820537973436C6B3D25640DDE
:104930000A0000004441433835373120696E6974FC
:104940003A204F4B0D0000004441433835373120A9
:10495000696E69743A204641494C20282564292C07
:10496000205352313D307825303458205352323D57
:104970003078253034580D0A0000000049324331A8
:104980002072656164206572726F720D0000000014
:10499000493243312072656164206572726F7231F1
:1049A0000D00000049324331207265616420657258
:1049B000726F72320D00000049324331207265611E
:1049C00064206572726F72330D0000004932433A01
:1049D0002042455252206174207374657020256412
:1049E0000D0A00004932433A2041524C4F20617475
:1049F00020737465702025640D0A00004932433A23
:104A000020542F4F20737465702025642C2053523E
:104A1000313D307825303458205352323D3078259E
:104A20003034580D0A0000004932433A20425553B1
:104A30005920737475636B2C205352313D307825A7
:104A4000303458205352323D3078253034580D0AD6
:104A5000000000004932433A20535441525420731D
:104A600074696C6C2073657420616674657220646F
:104A7000656C61792C2043544C52313D307825309F
:104A80003458205352313D3078253034580D0A00C7
:104A90004932433A20545845206E6F742073657430
:104AA000206265666F726520646174615B25645D78
:104AB0002C205352313D3078253034580D0A0000F7
:104AC0000D0A3D3D3D20555341525431204F4B205E
:104AD000283131353230302C384E3129203D3D3DA2
:104AE0000D0A00002530386C5800000050726F74B9
:104AF0006F636F6C20696E69743A2055534152544C
:104B0000312031313532303020384E3120286E6F2F
:104B100020706172697479292C2072696E67206235
:104B200075666665722025642062797465730D0A66
:104B300000000000634A534F4E206172656E613A77
:104B40002025642062797465732061742030782593
:104B50003038582C20636869702049443A20257306
:104B60000D0A00005553422D43444320696E697479
:104B700069616C697A65640D0000000009024300F8
:104B80000201008032090400000102020100052434
:104B9000001001052401000104240202052406007E
:104BA000010705810340000109040100020A000019
:104BB00000070502024000000705830240000000D4
:104BC0001201100102000040861A0CFE01000102D1
:104BD000000100000E037700630068002E006300F0
:104BE0006E000000160355005300420020005300E1
:104BF00065007200690061006C000000160330005F
:104C00003100320033003400350036003700380000
:104C100039000000286E756C6C290000ECEBFFFF7A
:104C2000DEEAFFFFDEEAFFFFDCEAFFFFE4EAFFFF68
:104C3000E4EAFFFFAAEAFFFFDCEAFFFFE4EAFFFF86
:104C4000AAEAFFFFE4EAFFFFDCEAFFFFD8EBFFFF81
:104C5000D8EBFFFFD8EBFFFFAAEAFFFF000102023B
:104C60000303030304040404040404040505050504
:104C700005050505050505050505050506060606E0
:104C800006060606060606060606060606060606C4
:104C900006060606060606060606060607070707B0
:104CA0000707070707070707070707070707070794
:104CB0000707070707070707070707070707070784
:104CC0000707070707070707070707070707070774
:104CD0000707070707070707070707070808080860
:104CE0000808080808080808080808080808080844
:104CF0000808080808080808080808080808080834
:104D00000808080808080808080808080808080823
:104D10000808080808080808080808080808080813
:104D20000808080808080808080808080808080803
:104D300008080808080808080808080808080808F3
:104D400008080808080808080808080808080808E3
:0C4D5000080808080808080808080808F7
:104D5C00000000000000000001020304060708091F
:104D6C000000000001020304010203040607080905
:104D7C0030303030303030300000000000000000A7
:104D8C000000000000000000000000000000000017
:104D9C000000000000000000000000000000000007
:104DAC0000000000000000000000000000000000F7
:104DBC0000000000000000000000000000000000E7
:104DCC0000000000000000000000000000000000D7
:104DDC0000000000000000000000000000000000C7
:104DEC00400041014202430300D8B8050204060802
:104DFC00D2440000C844000000C2010000000800BA
:104E0C001C1800202C0000200403090400000000E2
:00000001FF
