:040000006F00500C31
:100004000000000000000000E2030000E403000020
:1000140000000000C2080000000000000000000012
:10002400C2080000C2080000000000000000000038
:10003400C208000000000000C20800000000000028
:10004400C2080000C2080000C2080000C208000084
:10005400C2080000C2080000C2080000C208000074
:10006400C2080000C2080000F4030000C208000037
:10007400C2080000C2080000C208000020070000F7
:10008400C2080000C2080000C2080000C208000044
:10009400C2080000C2080000C2080000C208000034
:1000A400C2080000C2080000C2080000C208000024
:1000B400C2080000A4040000C2080000C208000036
:1000C400C2080000C2080000C2080000C208000004
:1000D400C208000090060000C2080000C208000028
:1000E400C2080000C208000000000000C2080000AE
:1000F400C2080000C2080000C2080000C2080000D4
:1001040000000000C2080000C2080000C20800008D
:10011400C2080000C2080000C2080000C2080000B3
:10012400C2080000C2080000C2080000C2080000A3
:10013400C2080000000000000000000000000000F1
:100144000000000000000000000000002A19000068
:10015400000000000000000000000000C2080000D1
:10016400C2080000C2080000C2080000C208000063
:10017400C2080000C2080000C2080000C208000053
:10018400C2080000C2080000C2080000C208000043
:10019400C2080000C2080000C2080000C208000033
:1001A400000000000000000000000000000000004B
:0C01B4000000000000000000000000003F
:1001C000397101436EC619A0397141536AC866CAB4
:1001D00062CC5ECE19A0397101535AD056D252D496
:1001E0004ED64AD826DA22DC06DE3301614082820E
:1001F00041114AC026C222C406C68282B24D4101C4
:10020000024D924C224CB24B4101024B924A224A7F
:10021000B2494101024992442244B24041018280E4
:100220003D432A876373C3029377F700BDEFADE5C3
:10023000937606FF3D8ABA960CC34CC30CC74CC7D5
:100240004107E36BD7FE11E28280B306C3408A0602
:100250009702000096966780A6002307B700A306C2
:10026000B7002306B700A305B7002305B700A30412
:10027000B7002304B700A303B7002303B700A3020A
:10028000B7002302B700A301B7002301B700A30002
:10029000B7002300B700828093F5F50F9396850091
:1002A000D58D93960501D58D61B79396270097025A
:1002B000000096968682E78086FA9680C1171D8F89
:1002C0003E96E374C3F8A5B73367B500FD530D8BB5
:1002D00079E7B7877F7F9387F7F710419441B3722F
:1002E000F6003363F600BE92B3E262006395720CCF
:1002F0006318D6065041D441B372F6003363F6005A
:10030000BE92B3E262006396720A631BD604104584
:100310009445B372F6003363F600BE92B3E2620016
:10032000639F7208631ED6025045D445B372F6002F
:100330003363F600BE92B3E2620063987208631101
:10034000D60210499449B372F6003363F600BE92A8
:10035000B3E26200639172085105D105E30FD6F64E
:100360001317060193970601631CF7001357060144
:1003700093D706013305F7409375F50F91E9828015
:100380004183C1833305F7409375F50F91E1828076
:100390001377F70F93F7F70F3305F740828010219B
:1003A0009421050585056313D60075FA3305D640FB
:1003B000828011059105E314D6FE01458280210556
:1003C000A105E31ED6FC014582803105B105E31885
:1003D000D6FC014582804105C105E312D6FC0145EA
:1003E000828001A0B707EFBE37E700E093870708D8
:1003F0003CC701A0797122D64AD23709002026D401
:100400004ED052CE56CC938781829304090023901C
:100410000700138A84001384818293090900854AA6
:100420009305E100268523170100EF20603209EDD6
:100430008317E10063DA07009C301A20B397FA00B3
:10044000D98FC207C1831EA08904E39B44FD930496
:10045000800873B004800F1000000145EF10B03326
:1004600073A0048005472385E1820E2003C869003C
:1004700003D6C18203C7290083C749008346090008
:10048000376500001305C575EF3040444145EF0066
:10049000206D3254A25412598259724AE24A45617F
:1004A00073002030411122C63704004091451305E6
:1004B000044026C4EF00703C05C913050440EF005A
:1004C000903BAA84914513050440EF00903C83A71C
:1004D0000187B387F44023AAF18623A891860547B4
:1004E000238DE186239C01863244A244410173009E
:1004F0002030EFF2FFCF054723A4E18423AAA18295
:1005000023960182EF50B04D2A8637650000AE86F3
:100510001305057BEF30803BF5B9EFF27FCD09473E
:1005200023A4E18423A8A18223960182EF50304BBB
:100530002A8637650000AE861305C579EF3000398D
:10054000D1B9EFF25FC90945EF007011D524EF2052
:100550003029716513050520EF20F031EF2040248C
:10056000EF208037376500001305057DEF30E03A56
:10057000EF101072376500001305057EB7040020E8
:10058000EF30A03993840400014413890184377A41
:100590000000B76A000095492685EF204017B30791
:1005A00089001337150098A3AA869020A285631EA0
:1005B000050A1385CA7EEF30603105048904E31D06
:1005C00034FDEF10D0140145EF10F01C1337150067
:1005D000238EE18245C1B76500009385857C377520
:1005E000000013054582EF30602EEF20901D377517
:1005F000000013054583EF304032B707002083A584
:100600008720377500001305C585EF30202C912613
:10061000AA85377500001305C586EF30202B13041B
:10062000501F268983C7618593F7F70F99E37D14DF
:1006300039E483C7618593F7F70FB1C737750000B9
:100640001305C587EF30602DEF20C04019C1EF20A2
:10065000A055EF20900C138781831C43130540069F
:1006600085071CC3EF20D01DC5B713054A80EF30A6
:10067000E025A1B7B76500009385457C8DB7294576
:10068000EF20101C45B737750000130505895DBFC5
:1006900001114EC8B74901409305404213850980B6
:1006A00022CE26CC4ACA52C6EF00D02F35C1370918
:1006B0000240032AC90503C4C1991309890581456C
:1006C0001374F40F933714004A85238EF1980D2983
:1006D000930500084A85812983C7C1999384C199EC
:1006E00085459E078507A6972326F9004A8509298F
:1006F00013850980EF00F02993050008B385454173
:10070000131574000505C205C1812695EF206026EA
:100710007244E2445249C249324A056173002030B2
:10072000411126C422C603C4C1994AC237090240F6
:100730001374F40F93371400130589058145238E34
:10074000F1987D2E1305890593050008E92E83C7CE
:10075000C1999384C199130589059E078507A697BA
:100760005CC58545712E1315740005052695930506
:100770000008EF20002037050200F12E3244A24489
:100780001249410173002030B71702409843B70661
:10079000FFF01367170098C3D843758FD8C39843E9
:1007A000B706F7FEFD16758F98C39843B706FCFF92
:1007B000FD16758F98C3D843B70601FFFD16758FD8
:1007C000D8C337079F0098C7B746024003A70680E3
:1007D0001367070123A0E680D843B706C1FFFD16C3
:1007E000D8C3D843D8C3D84313670740D8C3D84326
:1007F000758FD8C3D843B7062800558FD8C3984300
:10080000B7060001558F98C3984393166700E3DD40
:1008100006FED843B7160240719BD8C3D84313676E
:100820002700D8C32147DC42B18BE39EE7FE8280DC
:10083000B7160240DC42370700201146B18B130780
:1008400087206385C70021466388C702B7177A00EF
:10085000938707201CC3B7170240DC43918393F6AC
:10086000F700B70700209387C700B69794231C436F
:10087000B3D7D7001CC38280DC42D4424166C9830F
:10088000BD8BF18E890745466393C700C94781EE4A
:10089000B746024083A60680C18A89CEB7167A0081
:1008A0009386062021A8B7160240D4421396E6008C
:1008B000E35606FEB7163D0093860690B387D7022F
:1008C00051BF01A0970100209381411417710020AE
:1008D00013014173177500001305859997F5FF1FE4
:1008E000938545721386818263FAC50083220500D1
:1008F00023A0550011059105E3EAC5FE1385818209
:10090000971500209385451B6377B50023200500CC
:100910001105E36DB5FEFD42739002BCAD427390CC
:100920004280B7620000938282087390023097F28F
:10093000FFFF9382626D93E2320073905230EFF0CA
:10094000BFE497020000938202C0739012347300D8
:100950002030B7F7FF1F03A5477082801C41416715
:100960007917F98F1CC123200500232205002324B9
:100970000500B70702402326050013878700631789
:10098000E500D8431367F700D8C382801387C701F7
:100990006316E500D8431367070FFDB713870703F6
:1009A0006318E500D8438566938606F0558FE9BF46
:1009B000138747046315E500D843BD66C5BF138799
:1009C00087056316E500D843B7060F00C5B7138740
:1009D000C7066316E500D843B706F000C1BF13870A
:1009E00007086316E500D843B706000FC1B71387A1
:1009F00087406319E50003A747401367F70023A268
:100A0000E74082801387C7416317E50003A747408B
:100A10001367070FEDB793870743631BF500B7070D
:100A2000024003A747408566938606F0558FC1BFF5
:100A3000B7070240138747446316E50003A7474002
:100A4000BD66EDB7138787456317E50003A74740E9
:100A5000B7060F00E1BF1387C7466317E50003A77A
:100A60004740B706F000D9B7138707486317E5007A
:100A700003A74740B706000F55BF138707496319FF
:100A8000E50003A7474D1367F70023AAE74C8280D0
:100A90001387074A6317E50003A7474D1367070F3E
:100AA000EDB71387074B6319E50003A7474D85662C
:100AB000938606F0558FD1BF1387074CE319E5FCE9
:100AC00003A7474DBD66FDB71C4161773D079451B3
:100AD0007D8F9C45D58F9449D58FD449D58F944D22
:100AE000D58FD44DD58FD451D58F9455D58FD98FDF
:100AF0001CC1DC455CC19C411CC5DC415CC58280DD
:100B00001C4189C593E717001CC182804167791792
:100B1000F98FDDBF1C4101C6DD8D0CC1828093C5FC
:100B2000F5FFFD8DDDBF4CC182809317350063D783
:100B30000700B707024023A2A74082809317250031
:100B400063D70700B707024023AAA74C8280B707E4
:100B50000240C8C38280EFF2AFE9C13F6FF08FEB74
:100B6000B707014023AAA7408280EFF26FE88545CE
:100B700005457D218145054565216FF0AFE99C451F
:100B800013F7070113F8F70001C7D8413368E800ED
:100B90008E2113F7F50F39C318418146854E3D4F1D
:100BA000930F800293028004214E3396DE00B3F847
:100BB000C500631116039398260033131F011343D6
:100BC000F3FF3377E300B318180133E7E800639FBE
:100BD000F70550C98506E39AC6FD18C11307F00F43
:100BE0006375B70454412146854E3D4F930F8002F3
:100BF00093028004414EB398CE0033F715016392FF
:100C0000E8021317260001173313EF001343F3FF15
:100C1000B376D3003317E800D98E639DF701232AFA
:100C200015010506E319C6FD54C18280E39457FA05
:100C300010C94DB7E39757FE23281501DDB70845C6
:100C40006D8D3335A00082800CC9828019C20CC919
:100C500082804CC98280EFF2AFD9B75700409387AA
:100C600007408545631BF50037052000C92E8145E7
:100C700037052000E9266FF0EFD937054000C1267F
:100C8000814537054000FDB7EFF28FD679714621D7
:100C90002A8468082EC62D24925737470F00130761
:100CA000072433D7E702C204C18093F404FCC204D2
:100CB0009306C003C180B24563F4E6001307C00386
:100CC000131607014182D18C46A0162061651305D9
:100CD000056AC206C182F99AC206C18216A0944171
:100CE0006369D5048606B3D7D702914613970701E7
:100CF0004183BA876373D700914705064206C2074E
:100D00004182C18312B05EAC1E20DA21B62593E782
:100D100017001EA01E20558FC207C18393F757BF2F
:100D2000D98F1EA09A25DE25D98F1EA445616FF0AC
:100D30006FCEEA2131667D16631DC5020D46B3866E
:100D4000C602B3D7D702C207C1839396470199E27F
:100D500093E71700A166D58F9306C0123307D70219
:100D60009306803E3347D7020507420741831AB0F6
:100D700059BF6546B386C602B3D7D7029166C2078C
:100D8000C183D58FD9B71E2189C593E717001EA14E
:100D90008280C207C183F99BC207C183CDBF1E21D8
:100DA00089C593E707101EA18280C207C18393F70C
:100DB000F7EFC207C183C5BF1E2189C593E707208E
:100DC0001EA18280C207C18393F7F7DFC207C183E8
:100DD000C5BF1E2189C593E707401EA18280C207B7
:100DE000C18393F7F7BFC207C183C5BF0EA9828035
:100DF0000A291375F50F828093F7E50F19C293E75F
:100E00001500C207C1831EA982805E290A2D4205F2
:100E10005D8D6D8D220521810D8D1335150082802C
:100E2000411102C402C693D7C5012AC63EC4A247D7
:100E3000A205A18199CBB247D1073EC6B2478843EC
:100E400041016D8D3335A0008280B247C181E10739
:100E5000EDB793C5F5FFC205C1814EA9828023A6D7
:100E6000A184828003A7C184894710216311F702FE
:100E700014318D4763EDD7003C219A0637E700E037
:100E80009607D58F93F7F70F32972300F740544119
:100E90000547935756003317C70089CA938707043D
:100EA0008A07B7E600E0B69798C382809387070663
:100EB000B7E600E08A07B69798C30F10000082805B
:100EC000371702405C439146B18B6385D700A1463A
:100ED0006382D706B7177A00938707201CC137169D
:100EE00002405C42370700201307C7019183BD8B86
:100EF000BA9794231C41B3D7D7005CC15442A18256
:100F00009D8ABA969422B3D6D70014C55442AD82B6
:100F10009D8A36971823B3D7E7005CC558423983BA
:100F2000937637001387418036971823B3D7E702AB
:100F30001CC982805C4354434167C983F98E37F7EB
:100F4000FF1F0327C770BD8B89071316170163485E
:100F50000600454601476392C702C94739A80947B9
:100F60006389E7023D476388E70241476388E702F8
:100F7000454601476393C700C14785E6B74602402F
:100F800083A60680C18A8DC6B7167A00938606208E
:100F900025A00147D9B70547B547C5B70147BD47A4
:100FA000E9BFB7160240D4421396E600E35E06FCA2
:100FB000B7163D0093860690B387D7021CC105D3B0
:100FC0001C41858321BF99C5371702405C4B5D8D5D
:100FD00048CB8280B7170240D84B1345F5FF798D77
:100FE000C8CB828099C5371702401C4F5D8D08CF52
:100FF0008280B7170240984F1345F5FF798D88CF4F
:10100000828099C5371702405C4F5D8D48CF828042
:10101000B7170240D84F1345F5FF798DC8CF8280AE
:1010200099C5371702405C475D8D48C78280B71766
:101030000240D8471345F5FF798DC8C7828099C50E
:10104000371702401C4B5D8D08CB8280B7170240DA
:10105000984B1345F5FF798D88CB8280B7170240F6
:10106000D843B70640FFFD16758FD8C3D8435A053D
:10107000598DC8C382800A3D82801E294A25ED8F82
:101080004205418189C76D8D3335A00082800145BD
:10109000828093C5F5FFC205C1810EA98280EFF25F
:1010A0002F951629F577FD17F58FF621DA25797139
:1010B000D58F1EA95625FD779387379FF58FD621AB
:1010C0002A842EC6D58F9625D58FB625D58F5EA5B9
:1010D0005E29C207C18393F7F7CFD98F5EA968084D
:1010E000C533B747014093870780B245631EF402BA
:1010F000A2576547B387E7029841930640060A075F
:10110000B3D7E70233D7D702B3F7D7021207920754
:1011100093872703B3D7D702BD8BD98FC207C1836B
:101120001EA445616FF00F8F9257E1B791C55E2500
:101130000967D98F5EA582805A25F977FD17F98F47
:10114000D5BF13F7F50F85471583B395B70063191E
:10115000F7009307C500984301CED98D8CC38280D8
:10116000894693074501E318D7FE93070501E5B7C4
:1011700093C5F5FFF98DDDB75E2901C6DD8D4EA95A
:10118000828093C5F5FFFD8DDDBF93F5F51F4EA160
:1011900082804A211375F51F82800A216D8D3335B7
:1011A000A000828013F7F50F85461583B397B6002C
:1011B0006311D7025A25F98F1A210145420741834D
:1011C00081CB0545A181B315B5006D8F3335E000A6
:1011D000828089466314D7001A29F1BF5A29E1BFDA
:1011E000EFF20F8183A7C18082976FF0AF8201C9B0
:1011F000EFF20F8083A7818082976FF0AF818280AA
:101200000387050093072002631FF706EFE2BFFC88
:101210001384150022878147930520021308C00517
:101220008306070085076383B600B5E2AA843E857E
:1012300032897D3739C5AA87930520021308C00576
:101240001306E006A94813034007254E930E5007E6
:10125000130FF003930F2007B54293032006A14913
:10126000130A6006B14A03070400930614006303DF
:10127000B7001DE323800700C14788C8DCC42320D2
:10128000D9006FE09FF823A8B18401458280639361
:1012900006010507050769B78507631B07050307EF
:1012A0001400630CC7026349E6006300770263031E
:1012B0004703A38FE7FE21A8630467026305D703F2
:1012C000E319F7FFA38F57FE19A0A38F37FF8506F9
:1012D000368451BFA38F57FFDDBFA38F17FFC5BF54
:1012E000A38FC7FFEDB793065400A38FE7FFC5B7E1
:1012F000A38FE7FEF1BF7D4719E1828005051C2120
:10130000FD1793F7F70FE37BF7FEC5BFEFE25FEB47
:1013100001112EC699E101449DAA838705002E8400
:10132000FDDB1307B0052A896383E71E6341F70CD1
:101330001307D0026382E7026349F7001307200214
:101340006384E71423A88184F9B7138707FD137713
:10135000F70FA546E3E8E6FE1307D002639FE726F2
:10136000B777000003AA078B83AA478B050483077E
:101370000400130700036399E7260504014B814B22
:10138000030704009307E0026312F704B777000035
:1013900003AC878B83ACC78BB777000083AD078C1A
:1013A00083A7478C05042547EE893E8D83040400FE
:1013B000938404FD93F6F40F6375D7285A85DE8570
:1013C0006286E686EF30C03E2A8BAE8B8307040030
:1013D0001307500493F7F7FD639DE730830714006C
:1013E0001307B002639DE7280904054C79AC130785
:1013F000E0066388E71C6344F70213076006E39383
:10140000E7F4B775000015469385858D2285EF506A
:10141000A01A0DF985472326F90015048DA8130796
:1014200040076381E7181307B007E39DE7F09307D0
:1014300000045CC5138515007D3D03070500930777
:10144000D0072A84014A6301F70E93092002930A08
:10145000A003130BC002130580025933AA84E30CC6
:1014600005EA814513068002EFE09FDB22856135A6
:1014700083070500AA85638037032AC02685853B3C
:10148000824523A8B18441BD70009D3B3244228532
:1014900005616FE0BFD6700826859D339C48724574
:1014A00081E72685A93385BD9CD023A80400A135FA
:1014B000830705002A846385570126850D3B59B5AE
:1014C0000505153DAA852685913535352A8401E522
:1014D0002685313B6DBF631E0A00232499002285B7
:1014E000193D83070500639B670113041500268AD5
:1014F0009DB723209A0023A24401D5B71307D00734
:1015000013041500E385E7F823A8A18429B5930700
:1015100000025CC513851500F93B0307050093071E
:10152000D0052A846314F700050495B713058002DB
:101530004539AA84E30105DE130680028145EFE008
:101540003FCE22854D3BAA852685C9336D332A843B
:1015500041D1232499009309C002830704006387C3
:1015600037011307D005E39FE7DC7DBF1305800239
:1015700085392A89E30105DA130680028145EFE007
:101580003FCA13051400853BAA854A854133A5331C
:101590002A8419E14A8535BF23A02401232299001A
:1015A000CA8465BFB775000011469385058D2285F5
:1015B000EF5080008947E31705D82326F90011046E
:1015C000F9B5B775000011469385058E2285EF4069
:1015D000B07EE31905D69147CDB7B777000003AACF
:1015E000878B83AAC78B61B39387F7FC93F7F70FB9
:1015F0002147014B814BE365F7D8B777000003AC77
:10160000078C83AC478CA5446286E6865A85DE85C6
:10161000EF30B0002AC0030504002EC205041305F4
:1016200005FDEF40604502469246EF2070251C20E4
:101630002A8BAE8B938707FD93F7F70FE3F6F4FC45
:1016400081B3BE866E865A85DE853EC4EF30E07C6F
:101650002AC026852EC2EF4020420246924605044B
:10166000EF2010222A8BAE8B6285E6854E86EA86B5
:10167000EF30A07A2A8CAE8C2547A24705BB130712
:10168000D0026396E70609047D5C8144254729461C
:1016900029A0B384C4020504BE9483070400938781
:1016A00007FD93F6F70FE376D7FE5286D6865A8566
:1016B000DE85EF30807685C08547631FFC02B777F3
:1016C000000003AA078C83AA478C5286D686FD1495
:1016D000EF30A074FDF8232CA900232EB900EF40B1
:1016E0002033A147232AA9002326F9004DB305047E
:1016F000EDB9054C814455BFB777000003AA878C2C
:1017000083AAC78CD9B719C5184123A6E1805841CF
:1017100023A4E180828005C9EFE29FAD2A840844BA
:10172000044011C1CD3F084811C55C4493F7072020
:1017300091E3753C085011C15D3C22854D3C2684E7
:10174000F9FC6FE03FAD8280EFE29FAA09E501441A
:1017500022856FE03FACAA841305800223A8018490
:10176000EFF01FA82A8465D5130680028145EFE0BB
:101770003FAB26854936AA852285493EAD3E01C547
:1017800083070500F1D722857937D1B7EFE2BFA4EF
:1017900009E5814426856FE05FA7E5DD04452E8AD3
:1017A0008549E5D883AA0402528B63970A008440D6
:1017B000CDBF6DD0850A050B03C90A00EF409034F8
:1017C0004A951C318D8B6394370113090902034438
:1017D0000B00EF40303322951831A2870D8B631434
:1017E00037019307040203840A00E304F9FCEF4085
:1017F00070311374F40F22951C318D8B6394370173
:101800001304040203490B00EF40D02F4A9518310E
:10181000CA870D8B6314370193070902E319F4F8A3
:1018200095BFEFE2FF9CB707002003A78720B747CB
:1018300095089387074009456300F702B7E7B805A5
:101840009387078005456309F700B777DC02938724
:1018500007C06315F7000145EFF05F80854505651A
:10186000EFF06FF66FE01F9BB707005013070004FF
:10187000D8A713078004D8B71387C18998CB1387DB
:10188000C18DD8CB1387C19198CF1387C195D8CF7D
:10189000A3890702A38D0702239A0702239E07024A
:1018A00009472389E702238BE702238FE702938707
:1018B000818523800700A380070023810700A3817F
:1018C000070023820700A382070023830700A38366
:1018D00007008280EFE2DF913704005099471CA097
:1018E0001DC52945EF1060729D47230004003CA0F0
:1018F000930790021CA08D3F930710F81CB0370788
:101900000800B7E700E023A4E7106FE0BF90294587
:10191000EF10A06FB7E700E02300040037070800CE
:1019200023A4E7180F100000CDB7011122CE26CC5A
:101930004ACA4EC852C656C43704005078207C307C
:101940001377F70F937627006387065693F7F70F01
:1019500013F70703930500026309B7029306000318
:101960006302D71861EB13F7F7036308071289477F
:101970006312F70C8347B40393C74700A30DF40227
:10198000938781852381070075A093F7F70393065A
:101990001002638ED70A93063002638DD70C639BC7
:1019A000E708938741869E2393844186C207C183BB
:1019B00081E79147A309F40283C7618693F707067D
:1019C000B5EB83C70186154793F7F70F638BE704E1
:1019D00019476391E7069E201307F00313040004E0
:1019E0006365F7008220420441801389C186832900
:1019F00009002286CE851385C189EF4090169E206E
:101A0000A29923203901818FC207C1839EA0B70705
:101A1000005082BB03C72703134747002389E7020F
:101A200011A8370700503C3383C6418593F7070858
:101A3000D58F3CB3B70700500947F8A37244E2447E
:101A40005249C249324AA24A056173002030834795
:101A5000640393C74700230BF4028347640393F79F
:101A6000C70F93E72700230BF40293878185A38098
:101A70000700C9B78347E40393C74700230FF40265
:101A80008347E40393F7C70F93E72700230FF4027C
:101A900093878185A381070071BF1A2493F70704F8
:101AA000D1DB83C761869386418693F707068DC392
:101AB0002390060083C70186639CF5001387C189C4
:101AC00070230C435A23938701818CC3DAA3F0A3BC
:101AD0009E22C207C183B9FFB707005023980702AF
:101AE00011472DBF99472309F402A309F4029386F5
:101AF000C1899C22138661861CA29C3203D8660091
:101B0000138701861CA383D82600938741862390E0
:101B10000701138881862310180183D84600138893
:101B200021862310180103480600138941869389F2
:101B30006186137808061386C18993878186938608
:101B400021866302080A83C709009384C18693F73C
:101B50000702BDCF1C231307100293F7F70F63850D
:101B6000E706636BF70401446384B7001304F00FC6
:101B7000835709001307F003130A00046367F70093
:101B8000035A0900420A135A0A0183AA0400528622
:101B90001385C189D685569AEF40A07C23A04401C5
:101BA0009307F00F6313F410B70700501D47238904
:101BB000E702A389E702BDBD130730021304F00F4B
:101BC000E368F7FA01446DB7938701819CC0DDBFDC
:101BD00003C40900198013441400058833048040AD
:101BE0001374F40F71B71823AD451377F70FE3EDB6
:101BF000E5FA9D650A079385858E2E97184302871F
:101C00009A23894621839384C1866306D7020D46B1
:101C1000630EC70285476316F7049D671387C7EFF6
:101C200083C7C7EF98C0014403570900E3F2E7F404
:101C30002310F90035BF1D67130787EB3C3398C0AD
:101C40003823A207BA97C207C183F1BF9E23054676
:101C500093F7F70F6381C70289CB6385D702638A45
:101C6000E70281471304F00FC1B71387018298C0C0
:101C700083C701824DBF9D67138707F198C083C753
:101C800007F155B79D67138707F298C083C707F21E
:101C900059BF9D67138787F398C083C787F361B7E0
:101CA0009E2393F7F70F238AF18483C70900E20785
:101CB000E18763D8071E035709009307000463E612
:101CC000E70083570900C207C183035709001D8F2E
:101CD000420741832310E900370700501EBB91479C
:101CE0002309F70281BB83C751851CA20357090052
:101CF0008547E3FCE7FA2310F90045BF9E2393F7DD
:101D0000F70FA38AF1840547238BE18479BF03C7CA
:101D100009007D8B11EF9E23054793F7F70FE3969C
:101D2000E7F89387718598231377E70F98A3B5BFDA
:101D300003C7090009467D8BE318C7E69E2393F786
:101D4000F70FE39307E69E229306100893F7F70F29
:101D5000638DD70093063008638ED700E396E7E4DF
:101D6000B7070050A38D070289B7B7070050238B30
:101D7000E70225BFB7070050238FE7023DB703C72F
:101D800009007D8B05E79E23054793F7F70FE39D39
:101D9000E7E09D6783C7F7EB93F70702E38607E069
:101DA0009387718598231367170049B703C7090004
:101DB00009467D8BE31AC7DE9E2393F7F70FE39561
:101DC00007DE9E229306100893F7F70F6381D70270
:101DD000930630086386D702E398E7DC37070050A4
:101DE0008347B70393E73700A30DF7027DBD37079D
:101DF00000508347670393E73700230BF70275B55D
:101E0000370700508347E70393E73700230FF702B4
:101E100069BD23000600D9BD83C709002310060051
:101E2000FD8B85E383C771850144858B99C3894701
:101E30001CA2035709008947E3F4E7D62310F900F1
:101E400085B303C7090089471304F00F7D8BE312A4
:101E5000F7FE9E229306100893F7F70F6381D702CF
:101E600093063008638AD702E395E7FCB707005072
:101E700083C7B7038D8B0D47639EE70011A8B70793
:101E8000005083C767030D4701448D8BE393E7FA46
:101E900085471CA2014471BFB707005083C7E70301
:101EA000D1BF83570900C207C183E38707C2B707C1
:101EB00000501147FDB99377170085C3A38A0184A9
:101EC000238A0184A38B0184238B0184A301040052
:101ED000EFF09F9985477CA095B69377470095C70B
:101EE00091477CA02945EF104012583093877185A7
:101EF000118B19C798231367270098A39C233DBE15
:101F000098231377D70F98A315BE78A005BEEFE2EC
:101F10002FAEB7570040138407405228162C03D722
:101F200007405E200358C401377500004111930536
:101F3000C00413058591EF107019B7170240CC4FFC
:101F4000904FB707002083A6872037750000130540
:101F50004597EF10B017C1479306803E0D466C00C1
:101F60001305C0047C8623070100EF00606F11E9B0
:101F7000377500001305C59AEF10301A41016FE064
:101F80006FA95228162CAA85377500001305059CE9
:101F9000EF10D013E5B7EFE2AFA54111C1475C8662
:101FA0004887935785006C009306803E0D461305C5
:101FB000C004DC86EF00C06A41016FE0AFA5B7F74F
:101FC00000E0D8437D56FD56799BD8C390CBD4CB47
:101FD000984341111367070198C398431367170289
:101FE00098C302C64D47B2476354F700410182804F
:101FF0000100B24785073EC6FDB7B7F700E098433A
:102000008146799B98C394C70147D8C78280B7F7A8
:1020100000E08847CC47220521818280EFE24F9D76
:102020002A84F537B707002083A7872037177A005F
:1020300013070720B3D7E7021307803E018D22055F
:102040002181B387E7023355F5026FE0AF9CEFE2E1
:10205000AF97B704001037540040AA8A2E8BB28B7A
:10206000B68913090440138C0440054A938C04106C
:10207000138D0420D6854A85EFE03FD919C101456B
:1020800031A8E2854A85EFE0BFD9631B45011305FE
:10209000044093850440EFE0DFDB75556FE04F9619
:1020A000E6854A85EFE0DFD7631145039385041089
:1020B00013050440EFE0FFD937750000CE85130506
:1020C000C5A5EF10B0007D55D1BFEA854A85EFE088
:1020D0003FD5631E45019385042013050440EFE0BE
:1020E0005FD737750000CE85130545A7D9BF5A8540
:1020F0003537E36175F9035644418356844137759A
:102100000000CE851305C5A813040440EF10007C21
:102110005DBFEFE26F8B375400404111AA842E8CD3
:10212000B28B368ABA8913090440B70502004A8582
:10213000EFE01FCF25E1E13D835704402A8B1307D1
:10214000300693E707102310F44002C6B2476356E7
:10215000F706B757004083D5074013870740C205ED
:10216000C18193F7051081CB522B37750000130501
:1021700085B1EF10A0753705030085464E86DA85D8
:102180000505F1352A841DCD3755004085451305D9
:10219000054045A852855935E36935F983554441D1
:1021A00003568441377500001305C5AEEF10007269
:1021B0007D54228541016FE0AF840100B24785075D
:1021C0003EC669B793951400B7540040014693F595
:1021D000E50F13850440EFE03FC22945EF0050664C
:1021E000370A070089464E86DA8513052A088535A1
:1021F0002A8429E5B70C0010375900408144938C9C
:102200000C08130D0940130A4A0893FAF40FE38DE2
:102210009BF6E6856A85EFE0BFC01DE503564941A0
:1022200037750000A685130545B5EF10206A130920
:10223000094085454A85EFE03FB89DBF8545138538
:102240000440EFE07FB7B5B7B3079C008C236A85E5
:102250008504EFE0BFB993863A0093F6F60F4E86F9
:10226000DA855285ED33AA8A4DD18545130509409B
:10227000EFE09FB4568435BFEFD2FFF5B7040010EE
:1022800037540040AA892E8AB28A93840404130921
:102290000440A6854A85EFE0BFB819C101451DA0DD
:1022A0004E85AD3BE36745FF035644418356844169
:1022B00037750000D685130585ABEF102061130438
:1022C00004407D556FD07FF4EFD21FF037540040AB
:1022D000AA89AE8C328B368ABA8A3E89930404402E
:1022E000B70502002685EFE0BFB305E90D33AA8BE1
:1022F000854513050440EFE09FAAB70A0300D146C5
:102300004A86DE8513851A009933AA841DC985453E
:1023100013050440EFE05FAA15A056850133E36181
:1023200025FD83554441035684413775000013054C
:10233000459F13040440EF106059FD5426856FD06B
:102340003FEC860993F9F90F0146CE851305044049
:10235000EFE09FAA2945EF00B04E370C0700D546A5
:102360004A86DE8513052C08DD31AA844DF1B705B8
:1023700000109385050813050440EFE07FAA05E1EE
:1023800083554441377500001305C5A2EF10005472
:102390001304044085452285EFE01FA279BFE6853E
:1023A00013050440EFE09FA4D9464A86DE85130555
:1023B0004C08EFF0DFC9AA8439F9EFF05FC5AA8BAA
:1023C000854513050440EFE09F9DF9464A86DE856A
:1023D00013851A00EFF0BFC7AA84E31A05F2054679
:1023E000CE8513050440EFE03FA12945EF0050459D
:1023F000FD464A86DE8513852A00EFF05FC5AA8474
:10240000E31705F085476305FA04B7590040014416
:10241000930AFAFF93890940E30244F363938A061F
:1024200081454E85EFE0FF9A85454E85EFE0DF98C8
:10243000130684021376F60FCA855E85353D39E5AD
:102440004E85EFE0FF9AB3078B0088A30504E9B738
:10245000814513050440EFE0DF97854513050440EF
:10246000EFE09F9513060002CA855E853135AA8488
:10247000E31605EC13050440EFE09F972300AB0043
:1024800075BD85454E85EFE0DF945DB7AA847DB5C7
:10249000EFD27FD4011185453705200002C202C466
:1024A00002C602C802CA02CC02CEEFE09FB5854543
:1024B0002545EFE03FB337540040EFE00FEB130545
:1024C0000440EFE04FF9B71401409305000C138569
:1024D00004C0EFE06FF793070004F1490D494C0089
:1024E000138504C07C824EC64AC4EFE04FE99307CF
:1024F00000084C00138504C07C824EC64AC4EFE03D
:102500000FE8835704402167D98F2310F44002C09D
:102510001307300682476353F70437570040835749
:102520000740130407400C08C607C5832310F74073
:10253000E1679387076A3EC8B70700403ECAB707FE
:1025400000043ECC22859167FC86EFE0EFF38545E1
:102550002285EFE05F8305616FD03FCB01008247AA
:1025600085073EC045BFEFD2BFC837550040411177
:1025700081451305054002C202C402C6EFE0BF80D8
:1025800037140140930700048D44130504C07C8276
:102590004C00D1473EC626C4EFE06FDE930700082B
:1025A0007C82130504C091474C0026C43EC6A54456
:1025B000EFE0EFDC130404C001469305000422851C
:1025C000EFE0CFE81545EF005024054693050004E1
:1025D0002285EFE0AFE71545EF00302393050008B3
:1025E0002285EFE0CFE585472A896307F500FD14D2
:1025F00093F4F40FF1F001499307000837140140F8
:102600007C82D1473EC64C008D47130504C03EC4B2
:10261000EFE0EFD6014693050008130504C0EFE094
:10262000EFE21545EF00701E054693050004130503
:1026300004C0EFE0AFE11545EF00301D05469305FE
:102640000008130504C0EFE06FE01545EF00F01B34
:102650008135795563030900014541016FD09FBB66
:10266000EFD27FB74111B6892A84AE843289EFF068
:102670001F95EFF0DF99AA864E874A86A6852285A8
:10268000EFF03FA92AC6EFF05F9732450DC1E13D5B
:10269000EFF0FF92EFF0BF97AA864E874A86A68595
:1026A0002285EFF01FA72AC6EFF03F953245410182
:1026B0006FD0BFB5EFD23FB241113A8A2A84AE84BF
:1026C0003289B689EFF0BF8FEFF07F942A87D287E7
:1026D000CE864A86A6852285EFF01FBF2AC6EFF078
:1026E000DF91324515C14135EFF07F8DEFF03F921C
:1026F0002A87D287CE864A86A6852285EFF0DFBC60
:102700002AC6EFF09F8F324541016FD01FB0EFD244
:102710003FAE2A84856708214111938757D07C8674
:102720009306803EED470D466C005C87153F11ED2A
:1027300091670820938707107C869306803E930755
:1027400070020D466C005C87213F41016FD09FAC49
:10275000EFD21FAA082141112E841307803E89461B
:1027600070009945813F11E51C869886A207D98F94
:102770001EA041016FD01FAA93860188984293073B
:102780007500E19BBA9705666369F600370500207E
:102790001305854A3A959CC28280014582808280D9
:1027A000EFD21FA5116579718545310502CA02CCAA
:1027B00002CE02D002D202D402D602C202C4EFE09C
:1027C0007F8237140140930700208D441305048055
:1027D000FC824C08E14726CC3ECEEFE04FBA93078F
:1027E000004013050480FC824C08914726CC3ECE65
:1027F000EFE0EFB8F16737440140938707201305F6
:1028000004803ED00C10B7070C003ED402D2231631
:102810000102EFE0DF88054693054042130504807E
:10282000EFE03F92930750137C8285475C8348001A
:1028300085473EC4EFE00FE3130504808545B77478
:102840000000EFE0BF8E938484BD130404800389ED
:10285000040063150906B7270000938787773EC6F3
:10286000B72700009387E77968003EC8EFE0BFE92B
:10287000EFE02F8E3704002037760000AA8613067B
:10288000C6BFA5451305C402EF10800637750000CA
:1028900093050020130545C0EF10400337060020C4
:1028A000377500009306C4021306864A8565130532
:1028B000C5C4EF10A00145616FD0DF9593050004FA
:1028C0002285EFE09F8D7DD993150901C181228575
:1028D000EFE0BF8B8504A5BFEFD29F91397113063E
:1028E000C00281454808EFD0BF93854505453704B0
:1028F000024002C602C8EFE00FED13058405EFE0C9
:10290000EF85B74401408D673EDC938744803ECA23
:10291000130700089387D1994C08130584053AD40E
:102920003AD03ECC02D202D602D802DA02DE02CE81
:10293000EFE08F990546894513058405EFE08F9DEB
:102940009307F0117C8685475C87680085473EC801
:10295000EFE04FD1130584058545EFE06F9A0546FA
:102960009305000413850480EFE01F8121616FD07F
:102970007F8AEFD25F86371A002093078A6A03D7CF
:10298000474093070040AA8A998F3E84C207C183BB
:1029900013098A6A63F3F5002E848354094093096E
:1029A00000404204C204C180B3899940C2094180F9
:1029B00093D9090163E98902035509402286D68526
:1029C0004A95EF30101A83570940A297C207C18376
:1029D0002310F940835749403E944204418023121A
:1029E00089406FD09F8203550940938404C0A2940C
:1029F0004E86D685C2044A95EF30B016C180268631
:102A0000B3853A0113058A6AEF30B0152310994057
:102A1000D1B7B71700201387876A8356274093875B
:102A2000876ABA968822835627408506C206C182E5
:102A30002311D740035727409306F03F63F4E60085
:102A40002391074003D747407D17420741832392D4
:102A5000E7408280EFD24FF737190020371400206B
:102A60001309896AA9491304845A354A130BE00FE4
:102A700083574940C207C18381E701456FD04FF8B2
:102A8000493F938741888623938B418863043501AE
:102A9000631F450383574940C207C18399CF8357BA
:102AA0002940CA979C2363164501639837019537DF
:102AB00029A063143501E38C47FFA294238004000E
:102AC0008307040023900B00C5D7228545BFE3612F
:102AD0009BFA13871400A2949AA388A051BFEFD247
:102AE0002FF1B74401402A849384048083070400B3
:102AF00095E3374401409304048093050004268540
:102B0000EFE0AFE97DD9A94513050480EFE0EFE7D9
:102B10006FD04FF0930500042685EFE00FE87DD9D4
:102B20008305040026850504C205C181EFE0EFE5B9
:102B300075BFEFD2EFEB37140020B70600203776D1
:102B40000000AA871307800C9386C6021306C6E707
:102B5000930500101305844AEF0090591305844A29
:102B6000BD3F6FD02FEBEFD2AFE8B2883714002013
:102B7000B706002037760000AA872E881307800C3E
:102B80009386C6021306C6E3930500101305844A14
:102B9000EF0010567D159307E00F63E5A7001305BE
:102BA000844A353F6FD00FE7EFD2EFE241112302A5
:102BB0000100AA8463020534030705009307C003DC
:102BC000631CF73281479306C0021305E0032146D8
:102BD0003387F40003071700630907326307D7320E
:102BE0006305A7324C00BE9598A18507E392C7FE06
:102BF0008387940023060100639BD7309387A4004A
:102C00001386D40001442545A94583860700138710
:102C100006FD1377F70F636EE52E3304B4028507C4
:102C2000130404FD369442044180E390C7FE0387F9
:102C3000D4009307E0036310F72E9307C4F9C2078B
:102C4000C183130730069389E400636AF700B70570
:102C500000209385C5024800EFD00FE715E94E85A7
:102C6000EFE09FAE2A8A1389018815E537750000C9
:102C7000CE85130585C8EF00704537760000130632
:102C800086CA930550062285EFF0FFED2320090048
:102C900041016FD08FD7930760066300F41A930742
:102CA000800C630BF42293075006631FF42283A663
:102CB00081840D47BE89639DE600377600001306C8
:102CC00086CB9305F01213055006EFF0DFE955A00F
:102CD000B77500009385C5CDEFE05FAB814409C5B2
:102CE0005C45C18B91C30449B7750000938505CE3F
:102CF0005285EFE0BFA9014409C55C45C18B91C372
:102D0000004983A7818409476399E70681E83776FC
:102D10000000130646CE9305900C75B72685EF305C
:102D2000A05DEF30603FB777000083A5C7C7EF30E5
:102D3000A002930500002A84EF304035634B050064
:102D4000B777000083A507C82285EF30C02B6359F1
:102D5000A000377600001306C6D09305A00CA5B7D7
:102D600023A481882285EFD04FFB13055006EFF096
:102D70005FDC5285EFE03F9A11BF0547639EE70491
:102D800011E437760000130686D271B72285EF3042
:102D9000A056EF306038B777000083A5C7C7EF2093
:102DA000B07B930500002A84EF30402E634B050072
:102DB000B777000083A547C82285EF30C02463574A
:102DC000A00037760000130606D541BF23A68188F0
:102DD0002285EFD00FF251BF9389818891CC26854F
:102DE000EF308051EF304033B777000083A5C7C77D
:102DF000EF20907623A0A90011CC2285EF30C04FA0
:102E0000EF308031B777000083A5C7C7EF20D074BB
:102E100023A6A18803A40900930500002285EF30B2
:102E2000801EE341A0F403A4C1889305000022851D
:102E3000EF30601DE35BA0F261BF03A781848D4783
:102E4000631BF70037760000130686CB9305F0125C
:102E5000130560069DBDB7750000938545D8EFE06A
:102E6000FF9201C55C45C18B81EB377600001306EC
:102E7000C6D69305900CE9BF0849EF30E047B1474B
:102E80006300F50463CCA700AD476304F502377611
:102E90000000130606DD9305B00C5DBFD147630645
:102EA000F502D547E315F5FE37760000130606DB7D
:102EB0000DA003A58188EFD04FE61305600645BD40
:102EC00003A5C188EFD0EFE2CDBF3776000013062F
:102ED000C6D89305E00CADBF37750000A685130575
:102EE00045DFEF00B01E71B537760000130606E12E
:102EF0009305C00C2285D1BBFD5537750000268691
:102F0000130505E2EF00901C61B3F955FDB7F555C7
:102F1000EDB7F155DDB7ED55CDB7EFD26FAD83A766
:102F20008184054701116395E70603A5418337773F
:102F30000000130747B89387C18796233ACE37140A
:102F400000201386160092A336CCEF30402972473A
:102F5000E246377600002A88AE8802C402C202C068
:102F60001306C6B9930500101305844AEF005018E4
:102F70007D159307E00F63EAA700377500009305FE
:102F8000844A1305C582EF00701405616FD08FA8C5
:102F900009476399E7003777000003A5018313070A
:102FA00087B851BF0D47130500006387E7003777E7
:102FB0000000130747B941B7377700001307C7B8B8
:102FC0009DBFEFD2EFA2EFE0DF850545EFE09F90D8
:102FD00037750000130505EAEF0030146FD08FA39A
:102FE000B707002083A7872037177A001307072029
:102FF000B3D7E70293F7F70F2389F1881307803ED1
:10300000B387E7022398F1888280B7F700E0D843BE
:103010008146799BD8C303C721893306A70290CB89
:10302000D4CB98431367070198C3984313671702DB
:1030300098C3D843058B75DF9843799B98C38280EA
:10304000B7F700E0D8438146799BD8C303D70189FD
:103050003306A70290CBD4CB98431367070198C3DC
:1030600098431367170298C3D843058B75DF9843BD
:10307000799B98C38280EFD2AF972A8411650111A2
:1030800085451105EFD01FF6930700207C82371588
:1030900001408D473EC44C00E147130505803EC604
:1030A000EFD0FFAD22C837440140B70708000C0835
:1030B000130504803ECC02CA231E0100EFD03FFE60
:1030C000854513050480EFE06F8605616FD08F940E
:1030D000EFD26F90B7440140AE89328901449384A6
:1030E0000480634524014A856FD02F929305000424
:1030F0002685EFE08F8A7DD9B38789008385070015
:1031000026850504C205C181EFE02F88D9BF13874A
:1031100081811C43B7260020938646AB3E95636BA6
:10312000D500B78600209386068063E5A60008C315
:103130003E858280FD57EDBF011106CE2EC60DCD16
:103140001841AA8705C358417D5511CB8546631B9D
:10315000D70098472300070023A207000545F24047
:10316000056182809847B24614A39847050798C71F
:10317000D8437D17D8C3DDB705466C00EFF05FF587
:10318000F1BF797122D426D24ECE52CC56CA06D681
:103190004AD05AC82A8AAE8A3284814493090002EE
:1031A00063440602B3879A00838707009DE363D6D2
:1031B000840263D2E402198C93F72600930900027B
:1031C00081C719E393090003858A014985EA2289A9
:1031D00031A88504C1BF058CC5B70144F1BFCE85B8
:1031E00052853AC6EFF05FF532477D19E34920FF7B
:1031F00022896353040001493304244163CBE40270
:10320000CA84B3872441D69783850700A1E1228928
:103210006343200563530400014433059400B25016
:10322000225492540259F249624AD24A424B4561B1
:103230008280B3049740268B9305000352857D1B43
:10324000EFF09FEFE31A0BFE26995DBF5285EFF07A
:10325000BFEE85047DB7CE855285EFF0FFED7D1979
:1032600045BF5D71A6C252DC86C6A2C4CAC04EDE8E
:1032700056DABA843E8A9DE1930700030147D2865D
:1032800026862C08FC84EFF0DFEFB64026449644F7
:103290000649F259625AD25A616182802A8936847B
:1032A000C68A91CAA94701446317F60063D5050091
:1032B000B305B0400544A30701029307F102A546F8
:1032C000130568FC33F7C50263D3E6002A9713079A
:1032D0000703A38FE7FE9389F7FF33D7C50263FB8C
:1032E000C50409CCB9C813772A0021CB9305D002B5
:1032F0004A8542C6EFF05FE43248FD1493774A00F6
:103300008DC393071006930500034A85631FF802D7
:10331000EFF09FE2930580074A85EFF0FFE1090493
:10332000F9145687D2862686CE854A85EFF07FE54A
:103330002295A1BFBA85CE8771B71307D002A38F9C
:10334000E9FE01449389E7FF55BFEFF0FFDE9305E7
:103350008005D9B71D71CAC8CEC6D6C2DAC03A89AF
:1033600086CEA2CCA6CAD2C45EDE62DC66DA6AD899
:103370006ED633E7C500BE89AA8A428B8347010611
:1033800031E38DCF8D679387D7027C8423050100BD
:103390000147DA864E862C005685EFF09FDEF64018
:1033A0006644D6444649B649264A964A064BF25BDD
:1033B000625CD25C425DB25D25618280930700034E
:1033C0007C84F9B7368AAE84328463000902A94747
:1033D0000149639CF600635A0600B304B040B3375A
:1033E00090003304C0401D8C0549A30F0100130D4C
:1033F000F101935DFA41A54C138C68FC5286EE8670
:103400002685A285EF00300F63D3AC0062951305CB
:103410000503A30FADFE5286EE862685A285930B8B
:10342000FDFF89236366B401639A8D0263F8440348
:10343000630D09006388090293772B0085C7930504
:10344000D0025685EFF05FCFFD190147DA864E8630
:10345000DE855685EFF0FFD24A9591B7AA842E8477
:103460005E8D69BF9307D002A38FFBFE0149930BCA
:10347000EDFFE1BF5D71A6C2CAC0AA842E892E8568
:10348000B28586C63ACE42CCA2C44EDE52DCB289A8
:10349000368A56DA5AD8BE8A5ED662D466D2468C4E
:1034A0006AD0EF2080642A8BAE8B01468146CE85A0
:1034B0004A85EF10300B724762487D81BA872AC077
:1034C0000547E288D286DA855E862685EFF09FE89A
:1034D0002A8D9305E0022685EFF01FC6050D814772
:1034E000854C0144294763CE57075A85DE85EF2076
:1034F000806B2A86AE864A85CE85EF10905D2A893C
:10350000AE896685A285EF20006A2A86AE864A8546
:10351000CE85EF109010EF20405D13D6F541318D30
:10352000B347B600B305C5403335B5003386C74051
:1035300002C0E288D687D286098E094826850547CB
:10354000EFF05FE1B64026446A9596440649F25989
:10355000625AD25A425BB25B225C925C025D61614C
:103560008280B3068702850733349703B30C970331
:10357000369495BF5D715AD8377B0000A2C4A6C2AD
:10358000CAC04EDE52DC56DA5ED662D486C666D239
:10359000AA892E893284014A8144930B5002930AEE
:1035A000B002294C130B0BF5830509008DE56386EA
:1035B000090081454E85EFF03FB8B6402644268588
:1035C00006499644F259625AD25A425BB25B225C77
:1035D000925C61618280638875014E85EFF0DFB592
:1035E00085040509D1B783071900930C1900639A64
:1035F0007701930550024E85EFF01FB4850466896C
:10360000CDB7D5D76387570563C8FA0013073002D3
:103610006384E704814705A01307D002638AE700AB
:1036200013070003E398E7FE930C2900894721A0C4
:10363000930C2900854703870C006303570563C17A
:10364000EA0293063002630BD70266890145A5455D
:1036500035A8930C29007DBF930C29009147E1BF49
:103660009306D0026309D70093060003E31FD7FC3B
:1036700093E7270031A0850C8547C1BF93E747003A
:10368000850CE1B733058503050936950307090065
:10369000930607FD13F6F60FE3F6C5FE1306E002E8
:1036A0009946631EC70005098146254603070900A0
:1036B000130707FD9375F70F6375B602368A030784
:1036C00009001306A0066309C70A6341E602130650
:1036D000C0046303C70A130680066308C7080146CF
:1036E0001DA8B38686030509BA96C9B71306400715
:1036F0006304C7081306A0076300C7089305C00644
:103700000146631AB700830519000D466394E5006E
:10371000050911460509030709009305000613086A
:10372000100663C4E500130810049305700663C215
:10373000E506930550066359B7169305700463CFE9
:10374000E502130650046351C71693063004E31ACA
:10375000D7E81840930C4400A30E0100230EE100AB
:10376000BE8601472A866C0871A0830519000146B0
:10377000E393E5FA090945B7050995B793063006BD
:10378000E309D7FC63CEE606930680056303D70200
:1037900089BD930630076306D70463CDE60293061E
:1037A000F006630BD70C9306000793E74700E31A74
:1037B000D7E21147631BE60A1D04137784FF0C430D
:1037C000504313048700C28802C03E880147AA877D
:1037D000C146B9A0930650076303D7069306800736
:1037E00075B71840930C4400DA8511C3BA85528727
:1037F000BE862A864E85EFF0DF98AA946684D5B3FC
:1038000011476314E6021D04137784FF0C435043F1
:1038100013048700C28802C03E880547AA87A946CC
:103820004E85EFF03FB3AA946DBB0C40D2881104D3
:103830002A87854629464E85EFF0BFA2EDB711478E
:10384000631FE6001D04137784FF0C4350431304E9
:103850008700C28802C03E880147AA87C9B70C40CA
:10386000D28811042A878146F1B70C40D28811040E
:103870002A8781464146C1B711476310E6021D04FD
:10388000137784FF0C43504313048700C28802C09F
:103890003E880147AA87A14661B70C40D28811042F
:1038A0002A878146214641BF1D04137684FF1304F5
:1038B00086000C4250423307D540C2887D173E88AF
:1038C0004E85B687A946EFF0FFBAB1BF39712ED247
:1038D00032D4AA855010014506CE36D63AD83EDA03
:1038E00042DC46DE32C6EFF0FFC8F2402161828042
:1038F000397132833EDA2EC42AC6701085474800DB
:103900009A8506CE36D63AD842DC46DE3EC232C072
:10391000EFF05FC6F24021618280011122CC26CAFD
:1039200006CE1C21AA840144DC878307F10005042C
:1039300099EFA9479305F10005460145DC87EFF0B3
:103940002FF92285F2406244D24405618280054607
:103950009305F1000145EFF0AFF7B38784009C2396
:10396000DC87E1B7B687B2882A832E88639B06146A
:1039700063F8C50A4167636BE61AB7070001636025
:10398000F63493568601E147173700001307076D99
:1039900036971823BA97130700021D8F19CB339857
:1039A000E500B357F500B318E60033E80701331319
:1039B000E50013D608013355C80293960801C18269
:1039C000935703013377C802B385A60242073368D1
:1039D000F700637AB80046989307F5FF636418010F
:1039E0006365B8303E853308B8403357C802420398
:1039F000135303013378C802B386E60242083368E2
:103A00006800637BD80046989307F7FF6365180149
:103A100079176363D8003E874205598D81458280BE
:103A200001E60547B358C702416763E8E80EB707E8
:103A3000000163EAF82893D68801E14717370000B0
:103A40001307C76136971423BE9693070002958F1C
:103A5000FDE7939E08013387154113DF080193DECC
:103A60000E018545935703013355E7033377E70389
:103A7000B306D5034207D98F63FAD700C697130759
:103A8000F5FF63E4170163E5D7263A85958F33D7B1
:103A9000E703420313530301B3F7E703B30ED7035E
:103AA000C207B3E7670063FBD701C6979306F7FF2A
:103AB00063E51701791763E3D70136874205598D0E
:103AC000828063E1D504C16763E1F604B7070001B2
:103AD00063E3F61E13D7860161489737000093878A
:103AE000E757BA979823130E00024297330EEE4021
:103AF000631A0E0C63EDB61C3335C5001345150073
:103B0000814582808145014582809307F00F63F3F0
:103B1000D71C13D786002148C9B71307F00FC686F4
:103B2000E37E17F193D68800A14709BF1307F00F72
:103B3000B286E37BC7E493568600A147B1B5B3983C
:103B4000F80033D6D50013DF0801335EE603339760
:103B5000F500B356D500558F939E080193DE0E01F4
:103B60003313F50093550701B376E603B387CE030D
:103B7000C206CD8E63FBF600C6961306FEFF63E415
:103B8000161763F2F616791EC6969D8E33D6E60397
:103B900093170701C183B3F6E6033385CE0213976B
:103BA00006015D8F637BA70046979307F6FF636866
:103BB00017136376A7127916469793150E01098F8E
:103BC000D18D4DB5B357E600B396C601DD8E33D324
:103BD000E50013DF0601B357E303939E060193DE6E
:103BE0000E013398C5013357E50033680701935838
:103BF00008013316C6013373E303B385FE024203A3
:103C0000B368130163FBB800B6981387F7FF63EA44
:103C1000D80C63F8B80CF917B698B388B84033D706
:103C2000E803420813580801B3F8E8033383EE02AF
:103C3000C208B3E5080163FB6500B6951308F7FFFA
:103C400063EDD50863FB65087917B695C207416F28
:103C5000D98F1307FFFFB3F6E70093D80701718FE1
:103C60004182B38EE602B3856540B386C60213D89F
:103C70000E013387E802BA96C2963386C80263F310
:103C8000E6007A9693D80601469663E2C5026385FC
:103C9000C5003E858145828041677D17F98EC20649
:103CA000B3FEEE003315C501F696E374D5FE138519
:103CB000F7FF8145828013D70601414839BD9356ED
:103CC0000601C147D1B193D60801C14785BB8145E3
:103CD000054582803687014809B5428785BF3E8603
:103CE000E9BDBA871DBF328E4DB579154698E5B945
:103CF0007915C69761BBB68732882A832E872E8EA8
:103D00006391061463F0C50A41676376E61A1307E8
:103D1000F00FB2866375C70093568600A147173728
:103D200000001307A7333697182393080002BA97A9
:103D3000B388F840638C0800B3951501B357F500BC
:103D40003318160133EEB70033131501135608016B
:103D5000B357CE0213150801418193560301337EF8
:103D6000CE02B307F502420E3367DE006378F70038
:103D70004297636507016373F70042971D8FB3563F
:103D8000C70293170301C1833377C7023305D502F6
:103D90004207D98F63EBA7083385A7403355150138
:103DA0008145828001E605473358C7024167636B4E
:103DB000E80EB70700016364F82A93568801E147CB
:103DC0001737000013078729369718239308000236
:103DD000BA97B388F840639A081E131E0801B3858A
:103DE000054113560801135E0E0113570301B3D6A4
:103DF000C502B3F5C502B386C603C2054D8F63770E
:103E0000D700429763640701636AD726158F33553D
:103E1000C7024203135303013377C7023305C503B7
:103E20004207B367670063F8A700C29763E507011D
:103E300063F3A700C2973385A74033551501814529
:103E400082802A88E3EFD5F4C16763E5F604B707FB
:103E5000000163E2F62013D38601E14897370000A2
:103E60009387C71F9A9703CE070013030002469E4D
:103E70003303C3416319030463E4B6006369C500F7
:103E80003308C540958D333705013387E5404285BA
:103E9000BA8582809307F00F63FBD71C13D386008B
:103EA000A1486DBF1307F00FC286E37B07F193565D
:103EB0008800A14731B7B70700016366F61A935629
:103EC0008601E147A9BDB357C601B3966600DD8EF2
:103ED000B3D8C50113D70601B3DEE802139F06016C
:103EE000B357C501135F0F01B3956500DD8D13D87E
:103EF00005013316660033156500B3F8E802B30711
:103F0000DF03C20833E80801637BF8003698938822
:103F1000FEFF6363D8166371F816F91E36983308EE
:103F2000F840B357E802C205C1813378E802330F85
:103F3000FF02131708014D8F637BE70136979385C6
:103F4000F7FF6369D7126377E713F9173697C20E45
:103F5000C162B3EEFE001388F2FFB3F80E01935571
:103F6000060193DE0E0133780601B38F0803330791
:103F7000E74133880E0393D70F01B388B802C29884
:103F8000C697B38EBE0263F30701969E41687D1803
:103F900093D50701B3F70701C207B3FF0F01F695E9
:103FA000FE976362B70A630EB708B307F54033356F
:103FB000F500B305B740898D339EC50133D5670041
:103FC0003365AE00B3D5650082803318180133D74E
:103FD000F50013560801B356C702131E0801B35764
:103FE000F500135E0E01B3951501DD8D93DE05011D
:103FF000331315013377C702B307DE0293160701A7
:10400000B3E6D60163F8F600C29663E5060163F3F2
:10401000F600C2969D8E33D7C60293970501C183E1
:10402000B3F6C6023307EE0293950601DD8D63F801
:10403000E500C29563E5050163F3E500C295998D3E
:104040006DB3E374F5F63386C740B3B7C700B697D0
:104050009D8DB28799BF13D30601C14801B5935610
:104060000801C147B1BB93560601C1474DB936831C
:104070008148EDB3AE87E1BDC68E55B5429779B3A1
:104080003708100001117D183377B80026CA33783D
:10409000D80093D4450113D34601131E37004EC6F2
:1040A0001357D5010E089357D60193F4F47F137379
:1040B000F37F06CE22CC4AC893D9F50193DEF601F0
:1040C0003367C701131F350033E80701931F36001C
:1040D000338E64406380D9196356C0136304031C94
:1040E000B70680009307F07F3368D800638FF436FB
:1040F0009307800363C0C735FD4763CDC7471305EA
:1041000000023305C541B3D7CF01B316A8003399D8
:10411000AF00DD8E33392001B357C80133E92601E2
:104120001D8F33092F41B3372F013306F740931703
:10413000860063D40724370780007D173374E600B8
:10414000630C042C2285EF204014130785FF93078E
:104150000002998FB357F9003316E400D18F331959
:10416000E9006341972A33059740130615007D4700
:10417000634DC73813070002118FB356C9003319B6
:10418000E9003397E700558F333920013369270160
:1041900033D6C70081449377790081CF1377F90034
:1041A00091476308F70013074900333927014A96FE
:1041B0003A899317860063D6071C1385140093076A
:1041C000F07FCE856304F520B70780FFFD17F18FE0
:1041D0009398D70113593900A607B3E82801B18392
:1041E0001375F57F9396C7005205F2406244B18281
:1041F000FE05C98ECD8ED2444249B2494685B68568
:1042000005618280631E0E0A138314001373E37F1B
:1042100063170322B367E701B368F801639D041ACB
:1042200063870740638608443309FF41B3070741AA
:1042300033362F013386C7409317860063D6074C69
:104240003389EF41B307E84033B62F013386C740C7
:10425000F68991B76350C00F6300030CB706800066
:104260009307F07F3368D800638AF43A930780039A
:1042700063CBC713FD4763DFC73513090EFE9307F2
:104280000002B3562801630AFE0013090004330933
:10429000C94133192801B3EF2F013339F0013369D4
:1042A000D90031A2B367F801638A071C9307FEFFA8
:1042B000638C07389306F07F6309DE1A3E8E0DBDCE
:1042C000B305934063910422B367E7016387073224
:1042D0009387F5FF638107449306F07F638CD520B5
:1042E000BE859307800363CCB72AFD4763CFB73CF5
:1042F000930700028D8F3319F700B356BF00B31731
:10430000FF003369D900B337F0003357B700336982
:10431000F9003308E84041ACB367F8016380073423
:104320009307FEFF638A07209306F07F6308DE2E63
:104330003E8E2DBF631E0E149386140093F7E67F06
:1043400063910734B367E7016395042C6380073EEC
:10435000B367F801638E07303309FF01B307070124
:10436000333FE9013386E7019317860063D70700DF
:10437000B70780FFFD177D8E854493777900E39F13
:1043800007E09317D60193583900B3E8F800935724
:1043900036001307F07F638DE404B207B18313F591
:1043A000F47FCE8581B53369F801333920017A99DC
:1043B000B337E9013386E70093178600E3DF07FA96
:1043C00085049307F07F6396F418CE851305F07F7C
:1043D0008147814801BDC1EB6384083A93163600DA
:1043E0009317D8018D82B3E8D700F6899357380028
:1043F000B3E7F800F9DB81451305F07FB707080044
:104400008148CDB3370680FF7D167D8E9377790086
:10441000998CE39507D8B5B74A85EF101067130755
:104420008501FD47E3D5E7D2130685FFB317C90021
:10443000014905BB3369F80133392001DDB1330986
:10444000FF413306074133342F013304864093176D
:10445000840063CD0724B3688900E39308CE8147C5
:10446000814981441DBFE39808F80E059317D701D1
:104470000D81B3E8A700935737009DBF0E05931732
:10448000D7010D81B3E8A700F2849357370011B725
:104490003305934063820412B70680009307F07FD0
:1044A000558F630DF32E9307800363CBA720FD4741
:1044B00063C3A72A93070002898F3319F700B35605
:1044C000AF00B317FF003369D900B337F00033579B
:1044D000A7003369F9003A987E99B337F90133861A
:1044E00007019A84D1BDB70680009307F07F558FEE
:1044F000E319F3DE931736008D839318D801B3E8E0
:104500001701F68993573800E5B5130715FE930692
:10451000000233D7E700630AD6009306000433860F
:10452000C6403396C7003369C90033392001336967
:10453000E9000146814491B53309FF01B307070142
:104540003336E9013E96931786008544E3D707E2A8
:104550008944B70780FFFD17F18F135719001379AE
:104560001900336927019398F70133E9280113D61D
:10457000170015B113090EFE93070002B356280168
:10458000630AFE00130900043309C94133192801E5
:10459000B3EF2F013339F0013369D90059B63369CC
:1045A000E7013339200133892F41B3B72F01330697
:1045B000F8409A84F689A5BEB367E70163820718BD
:1045C0009307F5FF6384071C9306F07F6304D512FD
:1045D0003E85D1BD93070002B387C741B316F800EB
:1045E0003399FF0033D6CF01D18E33392001B35731
:1045F000C80133E926013E975DBB931736008D83D2
:104600009318D801B3E81701AE8493573800F689A0
:1046100049B3EDC33369F801E31F09DC0E059317B5
:10462000D7010D81B368F50093573700D1B363818B
:10463000080E931636009317D8018D82B3E8D70081
:10464000F6899357380091BB3309FF41B3070741FF
:10465000333F2F013386E7418544D1BC0E059317C4
:10466000D7010D81B368F500F2849357370015B375
:104670000E059317D7010D81B3E8A70093573700B4
:1046800029BB9307F07FE382F6D43309FF01333669
:10469000E901B3070701B2979398F701135919007D
:1046A00033E9280113D61700B684C1B93389EF4125
:1046B0003307E84033B62F013304C740F68949B4C5
:1046C0003369E7013339200101BD938705FE930665
:1046D0000002B357F700638AD50093060004B38540
:1046E000B6403317B700336FEF003339E001336959
:1046F000F90055BD931736008D839318D801B3E8A0
:10470000170193573800EDB1B368C900E39708C6A5
:104710008147814959B13389EF41B307E84033B646
:104720002F013386C740F689854411B493163600AD
:104730009317D8018D82B3E8D70093573800B1B9E9
:10474000931636009317D8018D82B3E8D700AA8458
:10475000935738003DB9930705FE93060002B357FF
:10476000F700630AD500930600043385A64033178B
:10477000A700336FEF003339E0013369F900A9BBBB
:1047800081451305F07FB7070800A9BC3309FF0175
:10479000B30707013336F9013E9675B39316360019
:1047A0009317D8018D82B3E8D7009357380089B1A9
:1047B000397193D7450122DC4AD856D22A891394FD
:1047C000C50006DE26DA4ED652D45AD05ECE13F598
:1047D000F77F318093DAF501630B05109307F07FC3
:1047E000630BF514135AD9010E0433648A00370A97
:1047F0008000336A4401131B3900930415C001443F
:10480000814B13D846011399C6001378F87FB288FC
:104810001359C90093D9F601630E08089307F07F76
:104820006300F8041357D6010E09336927011308F2
:1048300018C0B70780003367F90093183600B384B7
:1048400004418145BD4733C83A0163E4871A97277D
:1048500000009387A7700A043E9410403E9602869B
:104860003367C90093841480631207101364240013
:1048700081488945C1BF1306F07F81470147B207D0
:10488000F25062545206B1837E08D18FB3E707011C
:10489000D2544259B259225A925A025BF24B3A858B
:1048A000BE852161828001481306F07FB7070800AA
:1048B0000147F1B73367C9004DC7630809304A851E
:1048C00032C4EF10901C2246130755FFF54793069C
:1048D00085FF998F3319D900B357F60033E72701C5
:1048E000B318D60026959304353F8145A1BF336A9E
:1048F000240163030A0636C632C46306042A2285ED
:10490000EF10B0182246B246AA84130755FF754A25
:10491000138B84FF330AEA4033146401335A49018C
:10492000336A8A00331B69011305D0C0B304954074
:104930000144814BF9B5336A240163180A0021440C
:10494000014B9304F07F894B6DBD228A4A8B314421
:104950009304F07F8D4B75B51144014B8144854B19
:104960004DB51364140081488545E9BD13643400D6
:104970004A878D45C1BD630A052E8547898F9306F9
:10498000800363DDF632014681470147CDBDCE8607
:104990008947638DF53A8D47E387F5F0854736887B
:1049A000E383F5FE1385F43FE357A0FC93F778000B
:1049B0006396072893D638009317770063D80700CB
:1049C000B70700FFFD177D8F138504409307E07F35
:1049D000E3C3A7EA1316D70193179700B183336790
:1049E000D6001376F57F61BDD6865287DA88DE85DC
:1049F00045B763614723630DEA20DA86FD145284CC
:104A0000014B9317870013D388013363F300935E40
:104A10000301B357D403131F0301135F0F0193D591
:104A20000601139E88003374D4033307FF02420447
:104A3000C18D63FBE5009A951386F7FF63EE65264B
:104A400063FCE526F9179A95998D33D7D503C206ED
:104A5000C182B3F5D5033306EF02C205D58D63FBE2
:104A6000C5009A959306F7FF63E6652463F4C524B1
:104A700079179A95C20741645D8F9307F4FF3375E8
:104A8000F70093580701935F0E01B377FE00B3025E
:104A9000F502B386C540B383F80293D5020133868D
:104AA000AF021E962E963385F80363737600229527
:104AB000C168FD1893550601337616014206B3F816
:104AC0001201AA95469663E6B6126382B6123306C1
:104AD000CB408D8E333BCB00338B66411385F43F47
:104AE000630C6317B358DB0393550601337BDB0379
:104AF000B3061F03420B33EB6501637BDB001A9B9C
:104B00009385F8FF636D6B20637BDB20F9181A9B9C
:104B1000330BDB40B356DB0342064182337BDB03BE
:104B2000330FDF02420B33666601637BE6011A96A0
:104B30009385F6FF6367661E6375E61FF9161A967E
:104B4000C208B3E8D8009395080193D20801C18147
:104B5000B38EF5023306E641B385BF0293D60E014C
:104B6000B387F202BE95AE96B38F5F0263F4F60090
:104B7000C167BE9FC165FD1593D70601ED8EC206C4
:104B8000B3FEBE00BE9FF696637FF6091A96938722
:104B9000F8FF6369661A6368F619630FF61BBE882F
:104BA00093E8180011B54A85EF10206E13075501E0
:104BB000F145930405022246B246E3DAE5D4130434
:104BC00085FF331A8900014B85B3328532C4EF105B
:104BD000C06B13075501F146AA872246130505024B
:104BE000E3D6E6CEE1173317F6008148E5B9E37066
:104BF000CBEE729B3335CB011A95AA961305F7FFBE
:104C00006378D30263E6B6106382D5102A87C1B5F4
:104C1000E3651BDF93551B009316FA0113541A002A
:104C2000CD8E7E0BF9BBE31DF6F7E38F06D6B9BF39
:104C3000E31ED3FCE378CBFD2A8751BD93F7F80040
:104C40009146E389D7D693B7C8FF9386480093C7A8
:104C500017008D823E978DB381468547E34CA0FEB9
:104C6000FD58E31C05D0930410C085471385E4412B
:104C7000B316A70033D6F8003395A800D18E33358C
:104C8000A000C98E13F676003357F70001CE93F7D4
:104C9000F60011466388C70093874600B3B6D70075
:104CA0003697BE869317870063D807040546814769
:104CB0000147F1B636877DBBB28779B3FD46E3D7AE
:104CC000F6FA0556098E930600023356C70063882C
:104CD000D7009387E443B317F700B3E8F800B3367F
:104CE0001001D18E13F67600814701CE93F7F600BE
:104CF00011460147E392C7FA931797001316D7019D
:104D0000B18313D73600518F014695BEE370CBF0C7
:104D1000729B3335CB011A957917AA964DBBAE8895
:104D2000C5BBAE8631BD93171E0033BEC70172935B
:104D30001A96F9183E8EE315F6E7E307DEC693E808
:104D400018009DB1BE88E30AF6FF99BD36881306A8
:104D5000F07F8147014725B6E367DEFCBE88E3109C
:104D6000DEFE99B113D74501B7071000FD1713D820
:104D700046011377F77F9308F07F33FEB700AA8EC2
:104D8000F58FFD81328F1378F87FFD82630E170354
:104D9000630D180129E3B368AE00631F08005D8E40
:104DA00001EE0143638C080421A8B3E8C70009435E
:104DB000639608046DD305A0638408046385D50257
:104DC00005438DCD7D531DA8B368AE00094363979D
:104DD0000802630AE802631408005D8E75D2E3914D
:104DE000D5FEE34FE8FC63490701E3EBC7FD630F22
:104DF000FE0001436374FE00F1D505431A858280ED
:104E0000EDFE7D53E5BF5D8E79DACDBFE36ADFFB52
:104E10000143E3F5EEFFF5F175B739714AD813D9BF
:104E200045014ED652D456D29399C50006DE22DCF7
:104E300026DA5AD05ECE1379F97F2A8A93D9C9002F
:104E400093DAF501630D090E9307F07F6306F918F5
:104E50001354D5018E09B36934013704800033E45B
:104E6000890093143500130919C08149814B13D768
:104E70004601139AC6001377F77FB285135ACA000A
:104E800013DBF601630B07109307F07F6303F7044E
:104E90009357D6010E0A33EA4701130717C0B70725
:104EA0008000B367FA00931536003A99814833C7FA
:104EB0006A01BD463A851308190063E836171726BC
:104EC00000001306A60D8A09B29983A60900B296BE
:104ED0008286B367CA001309F97F6399071293E9C1
:104EE000290081458948E1B701479307F07F3704DE
:104EF000080081443204D20731807E075D8C598CD2
:104F0000A285F250625426854259D254B259225A8F
:104F1000925A025BF24B216182805A853E84AE84B4
:104F2000C68B8947638DFB0E8D47E38FFBFA854760
:104F30002A87639EFB3881470144814465BF33E47F
:104F4000A90061C036C632C4638C092A4E85EF10B1
:104F5000C0332246B246AA87130755FF754493848F
:104F600087FF198CB399990033548A003364340154
:104F7000B3149A0013D746011309D0C0139AC60080
:104F80001377F77F3309F9408149814BB285135A72
:104F9000CA0013DBF601E31907EEB367CA00B1C715
:104FA000630F0A22528532C4EF10202E22462A8730
:104FB000930655FFF547930587FF958F331ABA007F
:104FC000B357F600B3E74701B315B6003309E9401C
:104FD0001309D9C08148E1BD33E4A90001ECA1491E
:104FE00081441309F07F894B59B593E91900814534
:104FF000854875BD4E84AA84B1491309F07F8D4B55
:10500000BDB5914981440149854B95B593E9390076
:10501000D2878D4869BD89475685E397FBF02A877B
:105020009307F07F01448144F1B5C16E1386FEFF02
:1050300093D6040113DE0501F18CF18D33869502C0
:105040003383B6029358060133059E021A95AA9837
:10505000B382C60363F36800F692C16F1383FFFF48
:1050600033F5670093D30701B3F76800C2073373C2
:1050700066003E933306950293D80801B387A602D3
:10508000135F0601B3849302BE94FA94B38E760242
:1050900063F3F400FE9E416A9307FAFF935F0401F5
:1050A000B376F400B3F9F4007D8EC1803384D50269
:1050B000C209338FD401B299CE98B307DE02935E52
:1050C0000401B385BF02AE97BE9E330EFE0363F3A9
:1050D000BE00529EC1679385F7FF33F6BE006D8C0C
:1050E0004206229693DE0E01B305D502769E3385E5
:1050F000AF0213D40501B386D302AA96A296B38F4A
:10510000F30363F3A600BE9F41657D15B3F7A600C8
:10511000C2076D8DAA97B3855800B3B93501FA97C8
:10512000B2953384370133B6C500B30EC40133855D
:10513000CE0033343401B3B7E701C18F33BECE01A3
:1051400013D406013336C5003E943366CE009394E3
:10515000950032947E94B3E464002604935675015E
:10516000B3349000DD8193179500CD8C558CDD8C88
:105170009317740063DB070093D714008588931698
:10518000F401DD8CD58C058042899307F93F635982
:10519000F00893F6740081CE93F6F400114663880C
:1051A000C60093864400B3B496002694B684931642
:1051B000740063D80600B70700FFFD177D8C9307C6
:1051C00009409306E07F63CFF60E93D63400931424
:1051D000D4012604D58C318093F7F77F21BB32852B
:1051E00032C4EF10800A93065501F14713070502F8
:1051F0002246E3D1D7DC6115B317A6008145F9B388
:10520000EF10A00813075501F14593070502224648
:10521000B246E3D5E5D461153314AA00814499BBA5
:1052200085469D8EB1E71309E941B3972401B3D4B4
:10523000D40033192401B337F000B3649900DD8C36
:1052400093F77400B356D40081CF93F7F40011465E
:105250006388C70093874400B3B49700A696BE84C2
:105260009397860063D8070485470144814459B168
:1052700013068003E341D6CC7D46E356D6FA0556A5
:10528000B307F640930500023356F4006387B60077
:105290001309E943B3172401DD8CB3349000D18C9A
:1052A00093F67400014499CA93F7F40011468146BD
:1052B000E392C7FA139496003180F6068D80D58C60
:1052C00081470DB99307F07F0144814425B142899C
:1052D0006DBD370710007D1701113373B70093D8E8
:1052E0004601758F935ED60122CC26CA0E0393D455
:1052F00045019357D5010E0706CE4AC84EC693F80E
:10530000F87F130EF07F33E7EE0093F4F47F13D4AD
:10531000F50133E36700131F3500FD82931E36004D
:105320006380C81993C61600B38514416305D4126F
:105330006351B018638B081AB70780005D8F6381D3
:10534000C4599307800363C4B734FD4763C5B748A6
:10535000930700028D8FB3D9BE003318F700B39EB8
:10536000FE00336838013357B700B339D0013368D2
:1053700038013303E340B3090F41B3373F0133062C
:10538000F3409317860063D30724370980007D1903
:1053900033792601630F092C4A85EF00106F13073C
:1053A00085FF93070002998FB3D7F9003316E90000
:1053B000D18FB399E9006344972A058F130617002C
:1053C000FD4663C5C63A13070002118FB3D6C90064
:1053D0003398E9003397E700558F33380001B369FC
:1053E000070133D6C700814493F7790081CF93F644
:1053F000F90091476388F6009386490033B8360177
:105400004296B6899317860063D6071C138714004B
:105410009307F07F05886306F720B70780FFFD1725
:10542000F18F1398D70193D93900A6073368380153
:10543000B1831377F77F9396C7005207B1827E043A
:10544000D98EC18EF2406244D2444249B24942856B
:10545000B685056182806356B00A638A0812B70771
:1054600080005D8F6387C42D9307800363C7B718DF
:10547000FD4763D2B73C138805FE93070002B3597A
:105480000701638AF50093070004B385B74033171B
:10549000B700B3EEEE003338D0013368380195A27F
:1054A000B367D7019385148099E393C61600630A06
:1054B000D404D1E19387140093F7E77F6399071E23
:1054C000B367E3013368D701639204166382073C34
:1054D00063160842131835009316D3011358380089
:1054E00033E806019357330019A2B367D7016385E8
:1054F000071A9387F5FF638B073A638CC523BE8534
:1055000089B56399051C9386140093F7E67FC1EF74
:10551000B367E30163900436638D0744B367D70133
:10552000639407460E051318D3010D813368A80054
:10553000935733006DA8B385984063970420B367F1
:10554000E301638D07309387F5FF638907401305F7
:10555000F07F6383A520BE859307800363C2B72ACB
:10556000FD4763C8B73C930700028D8F3318F300E3
:105570003356BF00B317FF003368C800B339F000DB
:105580003353B3003368380133076740B5ACB367B2
:10559000D701638307109387F5FF638F071E63802E
:1055A000C52FBE85D1B59307F07F638BF606FA9EB3
:1055B00033B6EE01B307E300B2971398F70193DE19
:1055C0001E00B369D80113D61700B68493F779008B
:1055D000E39F07E09317D60113D839003368F8002A
:1055E000A685935736001307F07F6380E506B20760
:1055F000B18313F7F57F05883DBD3367D701333895
:10560000E000B309E801B3B7E901338667009317F7
:105610008600E3DD07FA85049307F07F639CF418A6
:1056200005881307F07F8147014831B56391071062
:105630006301083C131836009317D701135838003C
:105640003368F800368493573700B367F800E9DB16
:1056500001441307F07FB70708000148E9BB37068C
:1056600080FF7D167D8E93F77900998CE39107D8A2
:1056700095B74E85EF00704113078501FD47E3D2D2
:10568000E7D2130685FFB397C90081492DB333686C
:10569000D70133380001C5B1131835009317D30172
:1056A000135838003368F800935733002DBFB309FF
:1056B000DF413309E34033363F013309C9409317D3
:1056C000890063CA072033E82901E31508CC814724
:1056D000014431BFB385984063810414B70680004C
:1056E0009307F07F3363D3006381F820930780032F
:1056F00063CCB722FD4763C9B72C930700028D8F97
:105700003318F300B356BF00B317FF003368D80057
:10571000B339F0003353B300336838011A97B30933
:10572000D801B3B7D9013386E700C684CDB5E311FC
:1057300008F2131835009317D30113583800336853
:10574000F8009357330011B7370580009307F07FB7
:105750003363A300E392F8E00E061318D7010D821D
:105760003368C800935737003684C5B505179306CC
:10577000000233D7E700630AD6009306000433869D
:10578000C6403396C700B3E9C90033383001B36966
:10579000E800014681441DBDB309DF01B307E30002
:1057A00033BFE9013386E701931786008544E3DFC1
:1057B00007E08944B70780FFFD17F18F13D7190061
:1057C00013F81900336807019399F701B3E9090148
:1057D00013D6170011B9138805FE93070002B359B9
:1057E0000701638AF50093070004B385B7403317B8
:1057F000B700B3EEEE003338D00133683801A5BEF0
:105800003363E30133386000B3890E41B3B73E011F
:105810003306F740C6843684ADB6B367E3016387C9
:1058200007189387F5FF638C071C9306F07F638E40
:10583000D50ABE8565BD930700028D8FB3D9BE0022
:105840003318F700B39EFE00336838013357B700B2
:10585000B339D001336838013A9365B31318360071
:105860009317D7011358380033E80701368493574C
:10587000370095BBBDCB3367D701E31B07DC0E05B3
:105880001318D3010D813368A8009357330075BBFB
:10589000E30F08E2131836009317D70113583800A6
:1058A0003368F80036849357370091B3B309DF416A
:1058B000B307E340333F3F013386E7418544D1B42A
:1058C000131835009316D3011358380033E8060136
:1058D000935733009DBBB389EE413306674033B91C
:1058E0003E0133092641368475B40E061318D701DC
:1058F0000D823368C8009357370081BBB309DF417D
:10590000B307E34033363F013386C7409317860021
:1059100063D7070AB389EE41B3076740B3BE3E01C0
:105920003386D7413684C9B43363E301333860002A
:10593000FDB3138805FE93070002B3590301638A80
:10594000F50093070004B385B7403313B300336FFA
:105950006F003338E001336838017DB5B389EE411B
:10596000B3076740B3BE3E013386D74136848544D2
:1059700009BC131836009317D70113583800336841
:10598000F80093573700A5B1B309DF01B307E3006F
:1059900033BFE9013386E70193178600E3D807C2D6
:1059A000B70780FFFD177D8E85440DB10E061318D5
:1059B000D7010D823368C800935737002DB133E803
:1059C000C900E30608D019B1138805FE9307000249
:1059D000B3590301638AF50093070004B385B74008
:1059E0003313B300336F6F003338E001336838018D
:1059F0003DB301441307F07FB70708002DBCB3097E
:105A0000DF01B307E300B3BED9013386D70169BB19
:105A100093D74501B70610001387F6FF93F7F77F7A
:105A20001306E03F6D8FFD81635CF6001306D041E5
:105A3000635AF600370500801345F5FF2E958280E6
:105A400001458280130630431D8E7D48558F635D6E
:105A5000C80093063041B387F640B357F7003305CB
:105A6000F040E5F13E8582809387D7BEB317F700FB
:105A70003355C500C98FE5B7411106C622C426C2F9
:105A80000DCD9357F541B3C4A7009D8C2A8426857C
:105A9000EF00A07F9306E041898EA9477D8093F6B1
:105AA000F67F63CDA7022D47098FB3D7E4005505D4
:105AB000B207B394A400B18329A001448146814771
:105AC0008144B207D206B1837E04D58FC18FB24024
:105AD00022442685BE859244410182805515B397A4
